:100C5700438002E4FF120E0B90003DEEF0A3EFF08D
:100C6700A3E07002A3E06026900040E024FFF0902C
:100C7700003FE034FFF0C390003EE0946690003DF3
:100C8700E0940690005CE040094401F08007900082
:090C97005CE054FEF05380FD22E4
:1005B6004380027F0F120E0B900039E0FD04F0ED30
:1005C60025E0242DF582E43400F583EEF0A3EFF068
:1005D600900039E0C394054049E4F090002FE0FE16
:1005E600A3E0FF90002EE02FFF90002DE03EFE904E
:1005F6000032E02FFF900031E03EFE900034E02F05
:10060600FF900033E03EFE900036E02FFF9000356D
:10061600E03EFE7C007D0512074B900037EEF0A30E
:10062600EFF0900037E0FEA3E0FFC3945EEE940A7D
:10063600400CE490002CF090003A04F08025C3EFC3
:10064600946EEE940640028009C3EF945EEE940623
:100656005011E490002CF090003AF0A37403F0A33C
:100666007484F090003BE07002A3E0600E90003CC2
:0F067600E024FFF090003BE034FFF05380FD22C2
:100C09004380027F0C120E0B900041EEF0A3EFF02F
:100C1900D394AEEE9403501CA3E004F0E0C3940A0D
:100C29004017740AF090005BE04480F0900044742F
:100C39000AF08005E4900043F0900044E060041459
:0E0C4900F0800790005BE0547FF05380FD22A6
:070F150075C820E4F58A22F3
:100E2D00EDC3940F40027D0FEFB40106ED25E0F503
:0C0E3D00D822AF05EF25E04401F5D822D3
:100CA00075A18BE4F5ACF591F5DEF580F5D375D241
:100CB00020F5B1F5ADF592F588F5D575D40A75B97D
:100CC000C4F5AEF593F59075D60A75C102F5AFF58A
:100CD00098F5EE75C901F5A3F594F5A0F5EF75D17A
:080CE0001FF595F5B0F5FF22A8
:100E0B00759D07EF4480F59C439C4000E59CF420C6
:100E1B00E4FAE59F540FFEAD9E7C00E42DFFEC3E03
:020E2B00FE22A5
:100DC000AC06EC901012F0A3EFF09010107401F04C
:100DD000A37464F0901010E04480F0901011E0F4DF
:080DE00020E4F8E054EFF022DA
:0A0EF900EF1F70011E144E70F72267
:100BB300190715061F1D1B19171511080807070626
:100BC30006031F0938407080A8C0000000F0021C13
:100BD3000348047405A006CC06CC06CC0005090D19
:100BE3001115191D1F0002030405060708090666EF
:100BF300070A070A0FFF019A042905C2075C08F5D3
:060C03000A8F0C280CCC46
:1009F200EE25E02400F582E43400F583E0FCA3E078
:100A0200FDEF25E02400F582E43400F58322F0A313
:100A1200F0A3F0A3F022900047E025E024CDF58278
:100A2200E4340BF583E493FF740193900027CFF035
:100A3200A3EFF022F583E5822FF582E43583F58377
:100A4200E493900029F02290000BE0943390000A86
:100A5200E0940322900029E0FFA3E0FEC39F22EE70
:090A6200F0A3EFF07F0A7E0022F0
:1000030090004E743CF0A3F09000467402F0E4902C
:10001300005BF0A3F0900014F0900017120A109008
:10002300001C120A10A3120A10A3F0A3F0A3743C3D
:10003300F0120A18E4A3F0A3F0900041120A109002
:10004300000AF0A3F0900011F090000EF0A3F0A3CB
:10005300F0900013F0900012F090000CF0A3F02247
:10006E0090002AE0641F6003020252900047E0FFF6
:10007E0090002CE0F975F009A424DFF582E4340B2E
:10008E00120A3690003AE025E024F1F582E4340BB2
:10009E00F583E493FE740193FBAA06900015740198
:1000AE00F0900017E0FEA3E0FFC39BEE9A4014EF22
:1000BE0094D6EE940F402D90005BE04410F090002B
:1000CE0020801EE4900015F0D3900018E094F69076
:1000DE000017E09400500D90005BE04408F0900093
:1000EE001F740AF0900047E025E024F7F582E4340F
:1000FE000BF583E493FA740193FB9000167401F0F0
:10010E00C390001AE09B900019E09A4020E4900002
:10011E0016F090001AE094D6900019E0940F400D5E
:10012E0090005BE04440F0900022740AF0900026AC
:10013E00E06003120A18900047E07003020243E4E5
:10014E00900027F0A3F06009E9900BC59390002969
:10015E00F0E9900BB393FF900029E0C39F50030288
:10016E00020E900024E09434900023E094084006A0
:10017E009000257401F0C3900024E0946090002359
:10018E00E0940940069000257402F0C3900024E02C
:10019E00948C900023E0940A40069000257403F09E
:1001AE00C3900024E094B8900023E0940B40069096
:1001BE0000257404F0C3900024E094E4900023E042
:1001CE00940C40069000257405F0C3900024E09432
:1001DE0010900023E0940E40069000257406F0C3A4
:1001EE00900024E09480900023E09470402C9000C6
:1001FE00257407F09000237470F0A37480F0801AB9
:10020E00E4900023F0A3F0E9900BB593FF90002942
:10021E00E0D39F5005E4900025F0900025E0FF60AC
:10022E002390002CE075F007A424B6F582E4340B7D
:10023E00120A36800FE4900027F0A3F0900023F00E
:10024E00A3F0A3F09000167401F0E4900021F0A347
:10025E00F090001FE0700790005BE054F7F0900004
:10026E0020E0700790005BE054EFF0900021E0700A
:10027E000790005BE054DFF0900022E070079000E2
:10028E005BE054BFF090002AE004F0E0D3941F40EE
:10029E0002E4F09000157401F0900045E0B40116F0
:1002AE00900015E0B4010FA3E0B4010A90005BE0EA
:0D02BE0070047F0180027F00900014EFF0BB
:0102CB002210
:100D9600E490000DF0120A565019900014E0B401C8
:100DA60018438080E4C39E501043980290000D744F
:0A0DB60001F02253807F5398FD22C4
:100DE800120A565017900014E06401701543808071
:100DF800EF14FFEEC39F50074398022253807F539E
:030E080098FD2230
:100955004380027F0E120E0B90000AEEF0A3EFF01B
:10096500A37401F0A3E0B4011AE4A3F0A3F0D31239
:100975000A49505E90005BE04402F0900013740A4F
:10098500F0804FC3120A49401E90000FE004F0703A
:100995000690000EE004F0E490000CF0900011E0E9
:1009A5007013743CF0800EE490000EF0A3F09000FC
:1009B5005BE054FEF0C390000FE0946890000EE0F9
:1009C5009410400E7410F0A37468F090005BE0443E
:1009D50001F0900013E0700790005BE054FDF0908B
:0D09E500005BE054FDF054FEF05380FD2255
:100D2B00438002E4900068F07F0D120E0B90006878
:100D3B00E0120A04120A61120DC06380029000686F
:100D4B00E004F0E0C3940540DF5380FD120CE89003
:0E0D5B000006E0FFA3E0900017CFF0A3EFF03A
:010D69002267
:100A6B00438002E4900068F07F0B120E0B9000683D
:100A7B00E0120A04120A61120DC063800290006832
:100A8B00E004F0E0C3940540DF900002E0FEA3E039
:100A9B00FF900001E02FFF900000E03EFE9000056C
:100AAB00E02FFF900004E03EFE900007E02FFF9048
:100ABB000006E03EFE900009E02FFF900008E03EAC
:100ACB00FE7C007D0512074B900019EEF0A3EFF0B2
:030ADB005380FD48
:010ADE0022F5
:100CE800E4FFAE07EEC3940550321209F2E0FAA30E
:100CF800E0FBD39DEA9C4021900069EAF0A3EBF069
:100D08001209F2ECF0A3EDF0900069E0FCA3E0FD1D
:100D1800EE120A04ECF0A3EDF00E80C80FEF6405A4
:020D280070C099
:010D2A0022A6
:100D6A00A3F07460901011F09010107481F022FEBC
:100D7A00FDFCE0F8A3E0F9A3E0FAA3E0FB2290006F
:0C0D8A0062E0FCA3E0FDA3E0FEA3E02279
:0A0F030075B42075B20C43B28122D0
:0C0EE100EFB4010443AA022253AAFD2230
:0C0EED00EFB4010443AA012253AAFE2224
:100E6500AD07AC06ECF5C5AF058FC475C24075C3BB
:0B0E750081E5C2F420E4FA53C2EF2232
:100E4900AC06EC901012F0A3EFF07440120D6E9006
:0C0E59001011E0F420E4F8E054EFF02267
:100E8000EF25E0FFEE33901012F0EF120D6A901094
:0A0E900011E0F420E4F8E054EFF064
:010E9A002235
:06080C0090005E120800DE
:10081200E47F0290005E120D791207A0900062122E
:100822000800120D88C3940AFFEE94000208A4E4A3
:10083200FF900062120D79D31207EF4077E47FFF39
:100842007EFFFDFC900062E0F8A3A3A3E0D31207B1
:10085200EF40067EFF7FFF800A900062A3A3E0FEC6
:10086200A3E0FF900066EEF0A3EFF0900066E0FCDC
:10087200A3E0FDEC901012F0ED120D6A901011E061
:10088200F420E4F8E054EFF0120D88FFC006C00730
:10089200A3E0FEA3E0FBAA06D007D006C3EF9BFFAE
:1008A200EE9AFEED9400FDEC9400FC9000621208BA
:0408B2000002083107
:0108B600221F
:03006B00020ECDB5
:100ECD00C0E0C083C082900052E06401F0D082D0B7
:040EDD0083D0E032AC
:0300630002006632
:02006600003266
:100ADF00900055E4F0A3743CF0900058229000462B
:100AEF00E025E024C7F582E4340BF583E493FF742B
:100AFF000193900050CFF0A3EFF0227402F090001A
:100B0F0048E0FFF422E4F0900048E022E004F0E037
:100B1F00C3940222F0900045E0640122C2B3C2A048
:100B2F00C2B4C2B2C28322E4F0900048E022900027
:0F0B3F0055E4F0A3743CF022D2B3D2A0D2B4227A
:1003E600208B32900049E004F0E0C3940C402F7457
:1003F6000C120B0C30E027EF4401120B23F0E490B3
:100406000055F0A3F0A3F0900045E0601112000340
:10041600120AEC8009900049120B1454FEF0209A3F
:100426002490004A120B1B4025120B0A30E11FEFE5
:100436004402120B237017A3E094025003E004F069
:10044600120AEC800990004A120B1454FDF0208623
:100456002190004B120B1B4022120B0A30E21CEFBC
:100466004404120B237014A3E0600214F0120AEC89
:10047600800990004B120B3654FBF0208527900024
:100486004C120B1B4028120B0A30E322EF4408F0F3
:10049600900045E0B40117900047E0C39408500E61
:1004A600E004F0800990004C120B3654F7F02084DB
:1004B6002290004D120B1B4026120B0A30E420EF4F
:1004C6004410F0900045E0B40115900047E0600F3D
:1004D60014F022E490004DF0900048E054EFF02232
:1006850090004EE06003020721743CF0900011E0F9
:10069500600214F0900013E0600214F090001FE077
:1006A500600214F0900020E0600214F0900021E058
:1006B500600214F0900022E0600214F0900044E023
:1006C500600214F0900054E06003E014F0900026FE
:1006D500E0600214F0900027E07002A3E0600E9045
:1006E5000028E024FFF0900027E034FFF0E49000BC
:1006F50023F0A3F0900050E07002A3E0600E90009C
:1007050051E024FFF0900050E034FFF090004FE0FE
:100715007005743CF0800B90004F800390004EE014
:1007250014F0900054E0900050E07002A3E06006E1
:10073500900045E0700FE490005BF0900045F0906C
:060745000050F0A3F022B9
:1002CC00900057E0FFC3900056E09F900055E094DB
:1002DC0000401E120B24701FA3E0FF7004D292800A
:1002EC0016EFB40104D296800EEFB4020AD29780B6
:1002FC0006900058740AF0900055E07002A3E0607C
:10030C00030203C890005CE06013120B3D90005C8C
:10031C00E030E006900058740DF002039A90005BF8
:10032C00E0FF607730E009120ADF7401F002039AF3
:10033C00EF30E109120ADF7402F002039AEF30E2A7
:10034C0008120ADF7403F08045EF30E308120ADF6D
:10035C007404F08039EF30E408120ADF7405F08081
:10036C002DEF30E508120ADF7406F08021EF30E63D
:10037C0008120ADF7407F08015EF90005530E7087B
:10038C00120AE27408F08006120AE27409F0900076
:10039C0055E0C313A3E013A3F0802F120B3D900084
:1003AC0045E0B4010A900047E0900058F0800690B8
:1003BC000058740FF0E4900057F0800E900056E057
:1003CC0024FFF0900055E034FFF0120F0D90005810
:0A03DC00E0FF1204E6E4FF020F1C2C
:080F0D00120B2BC2B0C2B1228D
:1004E600EFB4100040030205B59004F6F82828730F
:1004F60002052602052C02053002053D02054602CC
:10050600054A02055402055A02056202056A0205F9
:100516007602058502058A0205960205A202058570
:10052600120B470205A8C2B3802CD2B3D2A0C2B424
:10053600D2B2D2830205B1120B47D2B2C283806B0C
:10054600C2B38022D2B3C2A0D2B4D2B2801EC2B38A
:10055600C2A0800CD2B3D2A0D2B4801AD2B3D2A099
:10056600D2B48026D2B3D2A0D2B4C2B2C28380277C
:10057600C2B3C2A0C2B4C2B2C283C2B0C2B1221256
:100586000B2B8027D2B3C2A0C2B4D2B2D2838007CB
:10059600120B47C2B2D283D2B0D2B122D2B3C2A01A
:1005A600C2B4D2B2D283D2B0C2B122C2B0D2B122C8
:060F1C00900068EFF022D6
:1008B70053A87F120F157D0FE4FF120E2D120CA007
:1008C70043A880120B4E120003120EB5E59830E3D1
:1008D700FB90002AE0B41F0543800180035380FE8C
:1008E7007F787E05120DC07F787E05120DC07FD000
:1008F7007E07120DC01205B61209557F847E0312BA
:100907000DC0120D2B120C091206851203E67FF497
:100917007E01120DC0120DE8E59820E3FB1202CC10
:100927007FE87E03120DC07FDC7E05120DC0120C1E
:10093700577FE87E03120DC0120A6B53903B1200DB
:0E0947006E7FE87E03120DC0120D960208D3DB
:100B4E00E4900045F0900053F0A37414F0E490008C
:100B5E0048F0A3F0A3F0900055F0A3F0A3F090009E
:100B6E00477404F0E4900046F090005DF090005A57
:100B7E00F0900058740AF0E490005BF0A3F090003F
:100B8E003F04F0A3742CF0E490002CF090003AF0A7
:100B9E0090002BF0900014F05398FD53807F5380FB
:050BAE00FD5380FE2252
:100EB5007F1EE4900068F0E59830E3FBE59820E3B9
:070EC500FBEF60031F80F04A
:010ECC002203
:03000000020E9B52
:100E9B0078FFE4F6D8FD9000007F007E09E4F0A314
:0A0EAB00DFFCDEFA7581070208B7CC
:10074B00BC000BBE0029EF8DF084FFADF022E4CC92
:10075B00F875F008EF2FFFEE33FEEC33FCEE9DEC5B
:10076B00984005FCEE9DFE0FD5F0E9E4CEFD22EDA1
:10077B00F8F5F0EE8420D21CFEADF075F008EF2FEB
:10078B00FFED33FD4007985006D5F0F222C398FDDC
:05079B000FD5F0EA2279
:1007A000E88FF0A4CC8BF0A42CFCE98EF0A42CFCF8
:1007B0008AF0EDA42CFCEA8EF0A4CDA8F08BF0A476
:1007C0002DCC3825F0FDE98FF0A42CCD35F0FCEBD5
:1007D0008EF0A4FEA9F0EB8FF0A4CFC5F02ECD399A
:0F07E000FEE43CFCEAA42DCE35F0FDE43CFC2207
:1007EF00EB9FF5F0EA9E42F0E99D42F0E89C45F060
:0107FF0022D7
:0C080000ECF0A3EDF0A3EEF0A3EFF0226B
:00000001FF
