:100A2A00438002E4FF120C0F900043EEF0A3EFF0B4
:100A3A00A3E07002A3E06026900046E024FFF09055
:100A4A000045E034FFF0C3900044E0946690004310
:100A5A00E09406900062E040094401F080079000AB
:090A6A0062E054FEF05380FD220D
:100372004380027F0F120C0F90003FE0FD04F0ED6E
:1003820025E02433F582E43400F583EEF0A3EFF0A8
:1003920090003FE0C394054049E4F0900035E0FE50
:1003A200A3E0FF900034E02FFF900033E03EFE9088
:1003B2000038E02FFF900037E03EFE90003AE02F39
:1003C200FF900039E03EFE90003CE02FFF90003BA2
:1003D200E03EFE7C007D0512006E90003DEEF0A333
:1003E200EFF090003DE0FEA3E0FFC3945EEE940ABE
:1003F200400D9000327402F090004014F0802CC343
:10040200EF945CEE940740099000327401F0E480AE
:100412000EC3EF9454EE94075011E4900032F09022
:100422000040F0A37403F0A37484F0900041E070E4
:1004320002A3E0600E900042E024FFF0900041E051
:0704420034FFF05380FD229E
:100003004380029000477406F0A37466F0D394AE65
:1000130074069403501CA3E004F0E0C3940A401751
:10002300740AF0900061E04480F090004A740AF092
:100033008005E4900049F090004AE0600414F080E9
:0C00430007900061E0547FF05380FD2224
:070D2E0075C820E4F58A22DC
:100C3100EDC3940F40027D0FEFB40106ED25E0F501
:0C0C4100D822AF05EF25E04401F5D822D1
:100A730075A18BE4F5ACF591F5DEF580F5D375D270
:100A830020F5B1F5ADF592F588F5D5F5D475B9C076
:100A9300F5AEF593F59075D60A75C102F5AFF598E5
:100AA300F5EE75C901F5A3F594F5A0F5EF75D11F22
:070AB300F595F5B0F5FF22F7
:100C0F00759D07EF4480F59C439C4000E59CF420C4
:100C1F00E4FAE59F540FFEAD9E7C00E42DFFEC3E01
:020C2F00FE22A3
:100BE700AC06EC901012F0A3EFF09010107401F027
:100BF700A37464F0901010E04480F0901011E0F4BA
:080C070020E4F8E054EFF022B4
:0A0D1200EF1F70011E144E70F7224F
:10028F00190715061F1D1B19171511080807070653
:10029F0006031F0938407080A8C0000000F0021C40
:1002AF000348047405A006CC06CC06CC0004080C49
:1002BF001014181C20000102030405060708000192
:1002CF00020304050607080666070A070A00000668
:1002DF006607AE085108F5099909EB0A8F0B330031
:1002EF0000000000000001000100010001010101F8
:1002FF00010101010101110111011101111111116F
:10030F0011111111111115111511151115151515B2
:10031F0015151515151555155515551555555555BE
:10032F005555555555555755575557555757575760
:10033F00575757575757775777577757777777775E
:10034F007777777777777F777F777F777F7F7F7FF6
:10035F007F7F7F7F7F7FFF7FFF7FFF7FFFFFFFFF1E
:03036F00FFFFFF8E
:100ABA00EE25E02400F582E43400F583E0FCA3E0AF
:100ACA00FDEF25E02400F582E43400F58322F0A34B
:100ADA00F0A3F0A3F02290000BE0945290000AE0F9
:100AEA00940022E490000FF0A3F022EEF0A3EFF0BE
:050AFA007F0A7E0022CE
:1007F400900054743CF0A3F090004C7402F0E49028
:100804000061F0A3F0900015F0900018120AD8903F
:10081400001D120AD8A3120AD8A3F0A3F0A3743CB3
:10082400F090004DE025E024A9F582E43402F5833C
:10083400E493FF740193900028CFF0A3EFF0E4A3B6
:10084400F0A3F0900047120AD890000AF0A3F090A9
:100854000012F0120AEEA3F0900014F0900013F0CE
:0908640090000CF0A3F0A3F022B7
:1009580090004DE09002BB9390002AF090004BE08D
:10096800B4011190002DA3A3A3E05401FFEF60048C
:100978007F0180027F00900015EFF090002DE0FCD1
:10098800A3E0FDA3E0FEA3E0FF780112012390009D
:100998002D12014690002BE004F0E0D3941F401C78
:1009A800E4F090002AE025E025E024EEF582E43426
:0C09B80002F58312013690002D1201465A
:0109C4002210
:100C9F00E490000DF0900015E0B4010A43808090BD
:0A0CAF00000D7401F02253807F2233
:0F0CEB00900015E0B401044380802253807F22E3
:10074E004380027F0E120C0F90000AEEF0A3EFF022
:10075E00A37401F0A3E0B40118120AEDD3120AE05B
:10076E005073900061E04402F0900014740AF0801F
:10077E0064C3120AE0401E900010E004F070069070
:10078E00000FE004F0E490000CF0900012E0701402
:10079E00743CF0800F120AED900061E054FEF0E41C
:1007AE0090000EF090000FE0FEA3E0FFD39410EE49
:1007BE00940E4021EF9468EE94105009900061E081
:1007CE004401F0801090000F7410F0A37468F09044
:1007DE00000E7401F0900014E07007900061E05478
:0607EE00FDF05380FD2226
:100B4200438002E4900072F07F0D120C0F9000724D
:100B5200E0120ACC120AF5120BE7638002900072CF
:100B6200E004F0E0C3940540DF5380FD120AFF90D9
:0E0B72000006E0FFA3E0900018CFF0A3EFF024
:010B80002252
:1008E400438002E4900073F07F0B120C0F900073AE
:1008F400E0120ACC120AF5120BE76380029000732F
:10090400E004F0E0C3940540DF900002E0FEA3E0C1
:10091400FF900001E02FFF900000E03EFE900005F4
:10092400E02FFF900004E03EFE900007E02FFF90D0
:100934000006E03EFE900009E02FFF900008E03E34
:10094400FE7C007D0512006E90001AEEF0A3EFF01D
:030954005380FDD0
:01095700227D
:100AFF00E4FFAE07EEC394055032120ABAE0FAA330
:100B0F00E0FBD39DEA9C402190006EEAF0A3EBF04E
:100B1F00120ABAECF0A3EDF090006EE0FCA3E0FD3A
:100B2F00EE120ACCECF0A3EDF00E80C80FEF6405C7
:020B3F0070C084
:010B41002291
:100BBB00A3F07460901011F09010107481F022FE6D
:100BCB00FDFCE0F8A3E0F9A3E0FAA3E0FB22900020
:0C0BDB0068E0FCA3E0FDA3E0FEA3E02224
:0A0D1C0075B42075B20C43B28122B9
:0C0CFA00EFB4010443AA022253AAFD2219
:0C0D0600EFB4010443AA012253AAFE220C
:100C6900AD07AC06ECF5C5AF058FC475C24075C3B9
:0B0C790081E5C2F420E4FA53C2EF2230
:100C4D00AC06EC901012F0A3EFF07440120BBF90B5
:0C0C5D001011E0F420E4F8E054EFF02265
:100C8400EF25E0FFEE33901012F0EF120BBB901043
:0A0C940011E0F420E4F8E054EFF062
:010C9E002233
:0606A30090006412014604
:1006A900E47F02900064120BCA1200C39000681222
:1006B9000146120BD9C3940AFFEE940002073BE4EA
:1006C900FF900068120BCAD31201124077E47FFF32
:1006D9007EFFFDFC900068E0F8A3A3A3E0D312011C
:1006E9001240067EFF7FFF800A900068A3A3E0FE08
:1006F900A3E0FF90006CEEF0A3EFF090006CE0FC3B
:10070900A3E0FDEC901012F0ED120BBB901011E07C
:10071900F420E4F8E054EFF0120BD9FFC006C0074B
:10072900A3E0FEA3E0FBAA06D007D006C3EF9BFF18
:10073900EE9AFEED9400FDEC9400FC900068120125
:04074900460206C896
:01074D002289
:03006B0002004F41
:10004F00C0E0C083C082900058E06401F0D082D03D
:04005F0083D0E03238
:0300630002006632
:02006600003266
:100B810090005BE4F0A3743CF090005E227402F0EC
:100B910090004EE0FFF422C2B3C2A0C2B4C2B2C2FE
:100BA1008322E4F090004EE02290005BE4F0A37415
:0A0BB1003CF022D2B3D2A0D2B4224D
:1005E600208B4490004FE004F0E0C3943C404174FB
:1005F6003C120B9030E039EF4401F090004BE06480
:1006060001F0E490005BF0A3F0A3F090004BE060F3
:100616001F1207F49002A7E493FF7401939000560B
:10062600CFF0A3EFF0800990004F120BA354FEF019
:1006360020852B900052E004F0E0C394024028127B
:100646000B8E30E322EF4408F090004BE0B4011724
:1006560090004DE0C39408500EE004F0800990002D
:1006660052120BA354F7F0208426900053E004F0B6
:10067600E0C394024026120B8E30E420EF4410F0C3
:1006860090004BE0B4011590004DE0600F14F0228D
:0D069600E4900053F090004EE054EFF0228D
:10051900900054E060030205BC743CF0900012E0C6
:10052900600214F0900014E0600214F0900020E0E2
:10053900600214F0900021E0600214F0900022E0C3
:10054900600214F0900023E0600214F090004AE089
:10055900600214F090005AE06003E014F090002764
:10056900E0600214F0900028E07002A3E0600E90B1
:100579000029E024FFF0900028E034FFF0900025E6
:10058900E004F07006900024E004F0900056E0705A
:1005990002A3E0600E900057E024FFF0900056E0BF
:1005A90034FFF0900055E07005743CF0800B90002A
:1005B900558003900054E014F090005AE0900056E2
:1005C900E07002A3E0600690004BE0700FE4900039
:0D05D90061F090004BF0900056F0A3F0226E
:1001830090005DE0FFC390005CE09F90005BE09413
:1001930000400990004BE0B40108800690005E74B3
:1001A3000AF0E4900061F0A3F090005BE07002A31A
:1001B300E06003020271900062E06013120BAA90E8
:1001C3000062E030E00690005E740DF0020243909E
:1001D3000061E0FF607730E009120B817401F002E7
:1001E3000243EF30E109120B817402F0020243EF84
:1001F30030E208120B817403F08045EF30E30812FC
:100203000B817404F08039EF30E408120B8174051C
:10021300F0802DEF30E508120B817406F08021EF9A
:1002230030E608120B817407F08015EF90005B3005
:10023300E708120B847408F08006120B847409F02B
:1002430090005BE0C313A3E013A3F0802F120BAA6B
:1002530090004BE0B4010A90004DE090005EF08006
:100263000690005E740FF0E490005DF0800E900045
:100273005CE024FFF090005BE034FFF0120D269069
:0C028300005EE0FF120449E4FF020D35AC
:080D2600120B98C2B0C2B12209
:10044900EFB410004003020518900459F8282873E6
:1004590002048902048F0204930204A00204A9027F
:1004690004AD0204B70204BD0204C50204CD0204AE
:10047900D90204E80204ED0204F90205050204E8C0
:10048900120BB402050BC2B3802CD2B3D2A0C2B4F2
:10049900D2B2D283020514120BB4D2B2C283806BDA
:1004A900C2B38022D2B3C2A0D2B4D2B2801EC2B328
:1004B900C2A0800CD2B3D2A0D2B4801AD2B3D2A037
:1004C900D2B48026D2B3D2A0D2B4C2B2C28380271A
:1004D900C2B3C2A0C2B4C2B2C283C2B0C2B12212F4
:1004E9000B988027D2B3C2A0C2B4D2B2D2838007FC
:1004F900120BB4C2B2D283D2B0D2B122D2B3C2A04B
:10050900C2B4D2B2D283D2B0C2B122C2B0D2B12265
:060D3500900070EFF022B7
:1009C50053A87F120D2E7D0FE4FF120C31120A730E
:1009D50043A88012086D1207F4120CD3E59830E392
:1009E500FB90002BE0B41F0543800180035380FE7C
:1009F5007FA87E16120BE71205191205E6120CEBFD
:100A0500E59820E3FB1201837FC47E09120BE77F83
:100A1500E87E03120BE71209587FE87E03120BE705
:050A2500120C9F80B7D8
:10086D00E490004BF0900059F0A37414F0E4900064
:10087D004EF0A3F0A3F090005BF0A3F0A3F0900076
:10088D004D7404F0E490004CF0900063F090006023
:10089D00F090005E740AF0E4900061F0A3F0900017
:1008AD004504F0A3742CF09000327402F0E4900033
:1008BD0040F0900031F0900015F090002D12015293
:1008CD0000000000E490002AF0A3F0A3F053807F15
:0708DD005380FD5380FE2251
:100CD3007F1EE4900070F0E59830E3FBE59820E395
:070CE300FBEF60031F80F02E
:010CEA0022E7
:03000000020CB936
:100CB90078FFE4F6D8FD9000007F007E09E4F0A3F8
:0A0CC900DFFCDEFA7581070209C5A1
:10006E00BC000BBE0029EF8DF084FFADF022E4CC76
:10007E00F875F008EF2FFFEE33FEEC33FCEE9DEC3F
:10008E00984005FCEE9DFE0FD5F0E9E4CEFD22ED85
:10009E00F8F5F0EE8420D21CFEADF075F008EF2FCF
:1000AE00FFED33FD4007985006D5F0F222C398FDC0
:0500BE000FD5F0EA225D
:1000C300E88FF0A4CC8BF0A42CFCE98EF0A42CFCDC
:1000D3008AF0EDA42CFCEA8EF0A4CDA8F08BF0A45A
:1000E3002DCC3825F0FDE98FF0A42CCD35F0FCEBB9
:1000F3008EF0A4FEA9F0EB8FF0A4CFC5F02ECD397E
:0F010300FEE43CFCEAA42DCE35F0FDE43CFC22EA
:10011200EB9FF5F0EA9E42F0E99D42F0E89C45F043
:0101220022BA
:10012300E8600FECC313FCED13FDEE13FEEF13FFBA
:03013300D8F122DE
:10013600E493FC740193FD740293FE740393FF220F
:0C014600ECF0A3EDF0A3EEF0A3EFF0222C
:10015200A8828583F0D083D08212016912016912CC
:100162000169120169E473E493A3C583C5F0C583F1
:10017200C8C582C8F0A3C583C5F0C583C8C582C8F7
:01018200225A
:00000001FF
