:100C8300438002E4FF120E23900044EEF0A3EFF042
:100C9300A3E07002A3E06026900047E024FFF090F9
:100CA3000046E034FFF0C3900045E09466900044B2
:100CB300E09406900063E040094401F0800790004F
:090CC30063E054FEF05380FD22B1
:1003A3004380027F0F120E23900040E0FD04F0ED26
:1003B30025E02434F582E43400F583EEF0A3EFF076
:1003C300900040E0C394054049E4F0900036E0FE1D
:1003D300A3E0FF900035E02FFF900034E03EFE9055
:1003E3000039E02FFF900038E03EFE90003BE02F05
:1003F300FF90003AE03EFE90003DE02FFF90003C6E
:10040300E03EFE7C007D0512047A90003EEEF0A3F0
:10041300EFF090003EE0FEA3E0FFC3945EEE940A8B
:10042300400D9000337402F090004114F0802CC30F
:10043300EF945CEE940740099000337401F0E4807C
:100443000EC3EF9454EE94075011E4900033F090F0
:100453000041F0A37403F0A37484F0900042E070B1
:1004630002A3E0600E900043E024FFF0900042E01E
:0704730034FFF05380FD226D
:100003004380029000487406F0A37466F0D394AE64
:1000130074069403501CA3E004F0E0C3940A401751
:10002300740AF0900062E04480F090004B740AF090
:100033008005E490004AF090004BE0600414F080E7
:0C00430007900062E0547FF05380FD2223
:070F300075C820E4F58A22D8
:100E4500EDC3940F40027D0FEFB40106ED25E0F5EB
:0C0E5500D822AF05EF25E04401F5D822BB
:100CCC0075A18BE4F5ACF591F5DEF580F5D375D215
:100CDC0020F5B1F5ADF592F588F5D5F5D475B9C417
:100CEC00F5AEF593F59075D60A75C102F5AFF5988A
:100CFC00F5EE75C901F5A3F594F5A0F5EF75D11FC7
:070D0C00F595F5B0F5FF229B
:100E2300759D07EF4480F59C439C4000E59CF420AE
:100E3300E4FAE59F540FFEAD9E7C00E42DFFEC3EEB
:020E4300FE228D
:100DFB00AC06EC901012F0A3EFF09010107401F011
:100E0B00A37464F0901010E04480F0901011E0F4A3
:080E1B0020E4F8E054EFF0229E
:0A0F0C00EF1F70011E144E70F72253
:100A4800190715061F1D1B19171511080807070692
:100A580006031F0938407080A8C0000000F0021C7F
:100A68000348047405A006CC06CC06CC0004080C88
:100A78001014181C200001020304050607080001D1
:100A8800020304050607080666070A070A000006A7
:100A98006607AE085108F5099909EB0A8F0B330070
:100AA800010101011111111115151515555555554E
:100AB80057575757777777777F7F7F7FFFFFFFFFFE
:070F20004400000000000086
:100C1900EE25E02404F582E43400F583E0FCA3E04A
:100C2900FDEF25E02404F582E43400F58322F0A3E6
:100C3900F0A3F0A3F022F583E5822FF582E4358352
:100C4900F583E49390002EF02290004EE025E024F5
:100C590062F582E4340AF583E4932290000FE0946C
:100C69005290000EE0940022E4900013F0A3F022C9
:0A0C7900EEF0A3EFF07F0A7E0022E8
:100BAE00900055743CF0A3F090004D7402F0E49068
:100BBE000062F0A3F0900019F090001C120C379018
:100BCE000021120C37A3120C37A3F0A3F0A3743C30
:100BDE00F0120C52FF74019390002CCFF0A3EFF0A3
:100BEE00E4A3F0A3F0900048120C3790000EF0A38F
:100BFE00F0900016F0120C72A3F0900018F0900016
:0B0C0E0017F0900010F0A3F0A3F022FC
:10006E0090004EE0FF900033E0FE75F009A424747A
:10007E00F582E4340A120C3FEF25E02495F582E474
:10008E00340AF583E493FC740193FD90001B740114
:10009E00F0C390001FE09D90001EE09C4020E49075
:1000AE00001BF090001FE094FF90001EE0940F40A4
:1000BE000D900062E04440F0900027740AF090002A
:1000CE002BE0600F120C52FD74019390002CCDF0BA
:1000DE00A3EDF090004EE070030201E590002CE0DD
:1000EE007002A3E06009EE900A5A9390002EF090F1
:1000FE000033E0FF900A4893FE90002EE0C39E501E
:10010E00030201B0900029E09434900028E0940896
:10011E00400690002A7401F0C3900029E09460908C
:10012E000028E09409400690002A7402F0C3900063
:10013E0029E0948C900028E0940A400690002A74DE
:10014E0003F0C3900029E094B8900028E0940B408F
:10015E000690002A7404F0C3900029E094E4900005
:10016E0028E0940C400690002A7405F0C3900029F4
:10017E00E09410900028E0940E400690002A740639
:10018E00F0C3900029E09480900028E09470402CF9
:10019E0090002A7407F09000287470F0A37480F019
:1001AE00801AE4900028F0A3F0EF900A4A93FF9093
:1001BE00002EE0D39F5005E490002AF090002AE034
:1001CE00FF6023900033E075F007A4244BF582E422
:1001DE00340A120C3F800FE490002CF0A3F0900034
:1001EE0028F0A3F0A3F0900024E07007900062E0E6
:1001FE0054F7F0900025E07007900062E054EFF0A5
:10020E00900026E07007900062E054DFF090002727
:10021E00E07007900062E054BFF090004CE0B40133
:10022E0019900031E0FF900000A3E0F9A3E0FAA3DB
:10023E00E05FFFEF60047F0180027F00900019EF06
:10024E00F0900000E0FCA3E0FDA3E0FEA3E0FF7849
:10025E000112052F90000012054290002FE004F0CD
:10026E00E0D3941F4015E4F090002EE0900AA7937F
:0B027E00FFE4FCFDFE900000120542B2
:010289002252
:100EB300E4900011F0900019E0B4010A438080909F
:0A0EC30000117401F02253807F2219
:0F0EE500900019E0B401044380802253807F22E3
:100908004380027F0E120E2390000EEEF0A3EFF04C
:10091800A37401F0A3E0B40118120C71D3120C6493
:100928005073900062E04402F0900018740AF0805E
:1009380064C3120C64401E900014E004F07006902A
:100948000013E004F0E4900010F0900016E070143A
:10095800743CF0800F120C71900062E054FEF0E4D9
:10096800900012F0900013E0FEA3E0FFD39410EE85
:10097800940E4021EF9468EE94105009900062E0C4
:100988004401F080109000137410F0A37468F09084
:1009980000127401F0900018E07007900062E054B3
:0609A800FDF05380FD226A
:100D5600438002E490006FF07F0D120E2390006F27
:100D6600E0120C2B120C79120DFB63800290006FBF
:100D7600E004F0E0C3940540DF5380FD120D1390AC
:0E0D8600000AE0FFA3E090001CCFF0A3EFF006
:010D9400223C
:100AC800438002E490006FF07F0B120E2390006FBA
:100AD800E0120C2B120C79120DFB63800290006F50
:100AE800E004F0E0C3940540DF900006E0FEA3E0D8
:100AF800FF900005E02FFF900004E03EFE90000903
:100B0800E02FFF900008E03EFE90000BE02FFF90E2
:100B1800000AE03EFE90000DE02FFF90000CE03E42
:100B2800FE7C007D0512047A90001EEEF0A3EFF023
:030B38005380FDEA
:010B3B002297
:100D1300E4FFAE07EEC394055032120C19E0FAA3B8
:100D2300E0FBD39DEA9C4021900070EAF0A3EBF036
:100D3300120C19ECF0A3EDF0900070E0FCA3E0FDC1
:100D4300EE120C2BECF0A3EDF00E80C80FEF640550
:020D530070C06E
:010D5500227B
:100DCF00A3F07460901011F09010107481F022FE57
:100DDF00FDFCE0F8A3E0F9A3E0FAA3E0FB2290000A
:0C0DEF0069E0FCA3E0FDA3E0FEA3E0220D
:0A0F160075B42075B20C43B28122BD
:0C0EF400EFB4010443AA022253AAFD221D
:0C0F0000EFB4010443AA012253AAFE2210
:100E7D00AD07AC06ECF5C5AF058FC475C24075C3A3
:0B0E8D0081E5C2F420E4FA53C2EF221A
:100E6100AC06EC901012F0A3EFF07440120DD39089
:0C0E71001011E0F420E4F8E054EFF0224F
:100E9800EF25E0FFEE33901012F0EF120DCF901017
:0A0EA80011E0F420E4F8E054EFF04C
:010EB200221D
:06085D0090006512054247
:10086300E47F02900065120DDE1204CF900069123E
:100873000542120DEDC3940AFFEE94000208F5E45D
:10088300FF900069120DDED312051E4077E47FFF4F
:100893007EFFFDFC900069E0F8A3A3A3E0D312055B
:1008A3001E40067EFF7FFF800A900069A3A3E0FE3F
:1008B300A3E0FF90006DEEF0A3EFF090006DE0FC7D
:1008C300A3E0FDEC901012F0ED120DCF901011E0AB
:1008D300F420E4F8E054EFF0120DEDFFC006C0077A
:1008E300A3E0FEA3E0FBAA06D007D006C3EF9BFF5D
:1008F300EE9AFEED9400FDEC9400FC900069120565
:040903004202088222
:0109070022CD
:03006B0002004F41
:10004F00C0E0C083C082900059E06401F0D082D03C
:04005F0083D0E03238
:0300630002006632
:02006600003266
:100D950090005CE4F0A3743CF090005F227402F0D4
:100DA50090004FE0FFF422C2B3C2A0C2B4C2B2C2E7
:100DB5008322E4F090004FE02290005CE4F0A374FD
:0A0DC5003CF022D2B3D2A0D2B42237
:1006EB00208B44900050E004F0E0C3943C404174F4
:1006FB003C120DA430E039EF4401F090004CE06463
:10070B0001F0E490005CF0A3F0A3F090004CE060EB
:10071B001F120BAE900A60E493FF74019390005785
:10072B00CFF0A3EFF08009900050120DB754FEF0FC
:10073B0020852B900053E004F0E0C3940240281274
:10074B000DA230E322EF4408F090004CE0B4011707
:10075B0090004EE0C39408500EE004F08009900026
:10076B0053120DB754F7F0208426900054E004F098
:10077B00E0C394024026120DA230E420EF4410F0A7
:10078B0090004CE0B4011590004EE0600F14F02285
:0D079B00E4900054F090004FE054EFF02285
:10061E00900055E060030206C1743CF0900016E0B5
:10062E00600214F0900018E0600214F0900024E0D4
:10063E00600214F0900025E0600214F0900026E0B5
:10064E00600214F0900027E0600214F090004BE07E
:10065E00600214F090005BE06003E014F090002B59
:10066E00E0600214F090002CE07002A3E0600E90A7
:10067E00002DE024FFF090002CE034FFF0900029D4
:10068E00E004F07006900028E004F0900057E0704F
:10069E0002A3E0600E900058E024FFF0900057E0B7
:1006AE0034FFF0900056E07005743CF0800B900023
:1006BE00568003900055E014F090005BE0900057D8
:1006CE00E07002A3E0600690004CE0700FE4900032
:0D06DE0062F090004CF0900057F0A3F02265
:10028A0090005EE0FFC390005DE09F90005CE09408
:10029A0000401690004CE0B40115A3E0FF60106422
:1002AA0001600CEFB40208800690005F740AF0E463
:1002BA00900062F0A3F090005CE07002A3E060039B
:1002CA00020385900063E06013120DBE900063E0A4
:1002DA0030E00690005F740DF0020357900062E070
:1002EA00FF607730E009120D957401F0020357EFB1
:1002FA0030E109120D957402F0020357EF30E2085B
:10030A00120D957403F08045EF30E308120D9574D1
:10031A0004F08039EF30E408120D957405F0802D51
:10032A00EF30E508120D957406F08021EF30E608EB
:10033A00120D957407F08015EF90005C30E70812F3
:10034A000D987408F08006120D987409F090005CFC
:10035A00E0C313A3E013A3F0802F120DBE90004C4C
:10036A00E0B4010A90004EE090005FF08006900031
:10037A005F740FF0E490005EF0800E90005DE02460
:10038A00FFF090005CE034FFF0120F2890005FE06D
:09039A00FF12054EE4FF020F37CB
:080F2800120DACC2B0C2B122EF
:10054E00EFB41000400302061D90055EF8282873D4
:10055E0002058E0205940205980205A50205AE025B
:10056E0005B20205BC0205C20205CA0205D2020589
:10057E00DE0205ED0205F20205FE02060A0205ED97
:10058E00120DC8020610C2B3802CD2B3D2A0C2B4D0
:10059E00D2B2D283020619120DC8D2B2C283806BB8
:1005AE00C2B38022D2B3C2A0D2B4D2B2801EC2B322
:1005BE00C2A0800CD2B3D2A0D2B4801AD2B3D2A031
:1005CE00D2B48026D2B3D2A0D2B4C2B2C283802714
:1005DE00C2B3C2A0C2B4C2B2C283C2B0C2B12212EE
:1005EE000DAC8027D2B3C2A0C2B4D2B2D2838007E0
:1005FE00120DC8C2B2D283D2B0D2B122D2B3C2A02F
:10060E00C2B4D2B2D283D2B0C2B122C2B0D2B1225F
:060F370090006FEFF022B4
:1007A80053A87F120F307D0FE4FF120E45120CCCB8
:1007B80043A880120B3C120BAE120ECDE59830E325
:1007C800FB90002FE0FF600D64086009EF64106083
:1007D80004EFB4180543800180035380FE90001293
:1007E800E0B401034398027F787E05120DFB7F7801
:1007F8007E05120DFB7FD07E07120DFB5398FD126C
:1008080003A31209087F847E03120DFB120D5612F2
:10081800000312061E1206EB7FF47E01120DFB1276
:100828000EE5E59820E3FB12028A1208557FDC7E6C
:1008380005120DFB120C83120855120AC812006E1D
:100848007FE87E03120DFB120EB30207C47FE87E19
:0508580003120DFB225C
:100B3C00E490004CF090005AF0A37414F0E4900090
:100B4C004FF0A3F0A3F090005CF0A3F0A3F09000A2
:100B5C004E7404F0E490004DF0900064F09000614D
:100B6C00F090005F740AF0E4900062F0A3F0900043
:100B7C004604F0A3742CF09000337402F0E490005F
:100B8C0041F0900032F0900019F090003104F0E444
:100B9C0090002EF0A3F0A3F053807F5380FD538080
:020BAC00FE2227
:100ECD007F1EE490006FF0E59830E3FBE59820E39A
:070EDD00FBEF60031F80F032
:010EE40022EB
:030000000209AE44
:1009AE0078FFE4F6D8FD9000007F007E09E4F0A306
:0A09BE00DFFCDEFA758107020A0370
:1009C8000207A8E493A3F8E493A34003F68001F296
:1009D80008DFF48029E493A3F85407240CC8C33330
:1009E800C4540F4420C8834004F456800146F6DFFF
:1009F800E4800B0102040810204080900F20E47E60
:100A0800019360BCA3FF543F30E509541FFEE493F3
:100A1800A360010ECF54C025E060A840B8E493A3BA
:100A2800FAE493A3F8E493A3C8C582C8CAC583CAE5
:100A3800F0A3C8C582C8CAC583CADFE9DEE780BE9D
:010F270000C9
:10047A00BC000BBE0029EF8DF084FFADF022E4CC66
:10048A00F875F008EF2FFFEE33FEEC33FCEE9DEC2F
:10049A00984005FCEE9DFE0FD5F0E9E4CEFD22ED75
:1004AA00F8F5F0EE8420D21CFEADF075F008EF2FBF
:1004BA00FFED33FD4007985006D5F0F222C398FDB0
:0504CA000FD5F0EA224D
:1004CF00E88FF0A4CC8BF0A42CFCE98EF0A42CFCCC
:1004DF008AF0EDA42CFCEA8EF0A4CDA8F08BF0A44A
:1004EF002DCC3825F0FDE98FF0A42CCD35F0FCEBA9
:1004FF008EF0A4FEA9F0EB8FF0A4CFC5F02ECD396E
:0F050F00FEE43CFCEAA42DCE35F0FDE43CFC22DA
:10051E00EB9FF5F0EA9E42F0E99D42F0E89C45F033
:01052E0022AA
:10052F00E8600FECC313FCED13FDEE13FEEF13FFAA
:03053F00D8F122CE
:0C054200ECF0A3EDF0A3EEF0A3EFF0222C
:00000001FF
