:100B6B00438002E4FF120D0B90003EEEF0A3EFF07A
:100B7B00A3E07002A3E06026900041E024FFF09018
:100B8B000040E034FFF0C390003FE0946690003EDD
:100B9B00E0940690005DE040094401F0800790006E
:090BAB005DE054FEF05380FD22D0
:100472004380027F0F120D0B90003AE0FD04F0ED75
:1004820025E0242EF582E43400F583EEF0A3EFF0AC
:1004920090003AE0C394054049E4F0900030E0FE59
:1004A200A3E0FF90002FE02FFF90002EE03EFE9091
:1004B2000033E02FFF900032E03EFE900035E02F47
:1004C200FF900034E03EFE900037E02FFF900036B0
:1004D200E03EFE7C007D0512060E900038EEF0A391
:1004E200EFF0900038E0FEA3E0FFC3945EEE940AC2
:1004F200400CE490002DF090003B04F08025C3EF07
:10050200946EEE940640028009C3EF945EEE940668
:100512005011E490002DF090003BF0A37403F0A37F
:100522007484F090003CE07002A3E0600E90003D05
:0F053200E024FFF090003CE034FFF05380FD2206
:100B1F004380029000427406F0A37466F0D394AE43
:100B2F0074069403501CA3E004F0E0C3940A40172A
:100B3F00740AF090005CE04480F0900045740AF075
:100B4F008005E4900044F0900045E0600414F080CC
:0C0B5F000790005CE0547FF05380FD2202
:070E510075C820E4F58A22B8
:100D4F00EDC3940F40027D0FEFB40106ED25E0F5E2
:0C0D5F00D822AF05EF25E04401F5D822B2
:100BB40075A18BE4F5ACF591F5DEF580F5D375D22E
:100BC40020F5B1F5ADF592F588F5D5F5D475B9C430
:100BD400F5AEF593F59075D60A75C102F5AFF598A3
:100BE400F5EE75C901F5A3F594F5A0F5EF75D11FE0
:070BF400F595F5B0F5FF22B5
:100D0B00759D07EF4480F59C439C4000E59CF420C7
:100D1B00E4FAE59F540FFEAD9E7C00E42DFFEC3E04
:020D2B00FE22A6
:100CE300AC06EC901012F0A3EFF09010107401F02A
:100CF300A37464F0901010E04480F0901011E0F4BD
:080D030020E4F8E054EFF022B7
:0A0E3500EF1F70011E144E70F7222B
:100AC900190715061F1D1B19171511080807070611
:100AD90006031F0938407080A8C0000000F0021CFE
:100AE9000348047405A006CC06CC06CC0005090D04
:100AF9001115191D1F0002030405060708090666DA
:100B0900070A070A0000066607AE085108F50999A1
:060B190009EB0A8F0B330B
:1009F900EE25E02400F582E43400F583E0FCA3E071
:100A0900FDEF25E02400F582E43400F58322F0A30C
:100A1900F0A3F0A3F022900048E025E024E3F5825A
:100A2900E4340AF583E493FF740193900028CFF02E
:100A3900A3EFF02290000BE0945290000AE094009A
:100A49002290002AE0FFA3E0FEC39F22E490000F5A
:0E0A5900F0A3F022EEF0A3EFF07F0A7E002261
:1000030090004F743CF0A3F09000477402F0E4902A
:10001300005CF0A3F0900015F0900018120A1790FE
:10002300001D120A17A3120A17A3F0A3F0A3743C2E
:10003300F0120A1FE4A3F0A3F0900042120A1790F3
:10004300000AF0A3F0900012F0120A56A3F09000F9
:0F00530014F0900013F090000CF0A3F0A3F02233
:10006E0090002BE0641F60030202147F667E0690F0
:10007E00001604F0900018E0FCA3E0FDC39FEC9E78
:10008E004008ED94FFEC940F8005E4900016F0907C
:10009E000048E025E0240DF582E4340BF583E4936B
:1000AE00FE740193FF9000177401F0C390001BE0E3
:1000BE009F90001AE09E4020E4900017F090001BE5
:1000CE00E094D690001AE0940F400D90005CE0444E
:1000DE0040F0900023740AF0900027E06003120AAB
:1000EE001F900048E07003020205900028E07002A5
:1000FE00A3E0600C90002DE0900ADB9390002AF0B4
:10010E0090002DE0FF900AC993FE90002AE0C39E56
:10011E0050030201C1900025E09434900024E09435
:10012E000840069000267401F0C3900025E094600C
:10013E00900024E0940940069000267402F0C390CB
:10014E000025E0948C900024E0940A40069000264E
:10015E007403F0C3900025E094B8900024E0940B53
:10016E0040069000267404F0C3900025E094E490BD
:10017E000024E0940C40069000267405F0C3900015
:10018E0025E09410900024E0940E40069000267412
:10019E0006F0C3900025E09480900024E094704017
:1001AE002C9000267407F09000247470F0A37480D5
:1001BE00F0801AE4900024F0A3F0EF900ACB93FFA6
:1001CE0090002AE0D39F5005E4900026F090002680
:1001DE00E0FF603290002DE075F007A424CCF5828C
:1001EE00E4340AF583E5822FF582E43583F583E462
:1001FE009390002AF0800FE4900028F0A3F0900076
:10020E0024F0A3F0A3F09000167401F0900020E00B
:10021E00700790005CE054F7F0900021E0700790BA
:10022E00005CE054EFF0900022E0700790005CE07C
:10023E0054DFF0900023E0700790005CE054BFF0B4
:10024E0090002BE004F0E0D3941F4002E4F0900005
:10025E0046E064017024900016E06401701CA3E077
:10026E00B4011790000CE0B40110900012E0700A77
:10027E0090005CE070047F0180027F00900015EF1B
:01028E00F07F
:01028F00224C
:100D2D00E490000DF0120A4A5014900015E0B40141
:100D3D001043808090000D7401F0E4C39E22538017
:020D4D007F2203
:100DBD00120A4A5011900015E0B4010D438080EFE6
:0A0DCD0014FFEEC39F2253807F2223
:1008DF004380027F0E120D0B90000AEEF0A3EFF093
:1008EF00A37401F0A3E0B40118120A55D3120A3D04
:1008FF00507390005CE04402F0900014740AF08092
:10090F0064C3120A3D401E900010E004F070069080
:10091F00000FE004F0E490000CF0900012E070146F
:10092F00743CF0800F120A5590005CE054FEF0E426
:10093F0090000EF090000FE0FEA3E0FFD39410EEB6
:10094F00940E4021EF9468EE9410500990005CE0F3
:10095F004401F0801090000F7410F0A37468F090B1
:10096F00000E7401F0900014E0700790005CE054EA
:06097F00FDF05380FD2293
:100C3E00438002E4900069F07F0D120D0B90006965
:100C4E00E0120A0B120A5D120CE363800290006937
:100C5E00E004F0E0C3940540DF5380FD120BFB90DF
:0E0C6E000006E0FFA3E0900018CFF0A3EFF027
:010C7C002255
:10098500438002E4900069F07F0B120D0B90006923
:10099500E0120A0B120A5D120CE3638002900069F3
:1009A500E004F0E0C3940540DF900002E0FEA3E020
:1009B500FF900001E02FFF900000E03EFE90000553
:1009C500E02FFF900004E03EFE900007E02FFF902F
:1009D5000006E03EFE900009E02FFF900008E03E93
:1009E500FE7C007D0512060E90001AEEF0A3EFF0D6
:0309F5005380FD2F
:0109F80022DC
:100BFB00E4FFAE07EEC3940550321209F9E0FAA3F5
:100C0B00E0FBD39DEA9C402190006AEAF0A3EBF055
:100C1B001209F9ECF0A3EDF090006AE0FCA3E0FD03
:100C2B00EE120A0BECF0A3EDF00E80C80FEF64058B
:020C3B0070C087
:010C3D002294
:100CB700A3F07460901011F09010107481F022FE70
:100CC700FDFCE0F8A3E0F9A3E0FAA3E0FB22900023
:0C0CD70063E0FCA3E0FDA3E0FEA3E0222C
:0A0E3F0075B42075B20C43B2812295
:0C0E1D00EFB4010443AA022253AAFD22F4
:0C0E2900EFB4010443AA012253AAFE22E8
:100D8700AD07AC06ECF5C5AF058FC475C24075C39A
:0B0D970081E5C2F420E4FA53C2EF2211
:100D6B00AC06EC901012F0A3EFF07440120CBB9099
:0C0D7B001011E0F420E4F8E054EFF02246
:100DA200EF25E0FFEE33901012F0EF120CB7901027
:0A0DB20011E0F420E4F8E054EFF043
:010DBC002214
:06078C0090005F1206C39D
:10079200E47F0290005F120CC6120663900063129F
:1007A20006C3120CD5C3940AFFEE9400020824E497
:1007B200FF900063120CC6D31206B24077E47FFFAB
:1007C2007EFFFDFC900063E0F8A3A3A3E0D3120632
:1007D200B240067EFF7FFF800A900063A3A3E0FE83
:1007E200A3E0FF900067EEF0A3EFF0900067E0FC5B
:1007F200A3E0FDEC901012F0ED120CB7901011E096
:10080200F420E4F8E054EFF0120CD5FFC006C00764
:10081200A3E0FEA3E0FBAA06D007D006C3EF9BFF2E
:10082200EE9AFEED9400FDEC9400FC90006312063B
:04083200C30207B145
:01083600229F
:03006B00020E0979
:100E0900C0E0C083C082900053E06401F0D082D07A
:040E190083D0E03270
:0300630002006632
:02006600003266
:100C7D00900056E4F0A3743CF0900059227402F0F9
:100C8D00900049E0FFF422C2B3C2A0C2B4C2B2C206
:100C9D008322E4F0900049E022900056E4F0A37422
:0A0CAD003CF022D2B3D2A0D2B42250
:1006CF00208B4490004AE004F0E0C3943C40417416
:1006DF003C120C8C30E039EF4401F0900046E0649E
:1006EF0001F0E4900056F0A3F0A3F0900046E06014
:1006FF001F120003900AE1E493FF740193900051DD
:10070F00CFF0A3EFF0800990004A120C9F54FEF037
:10071F0020852B90004DE004F0E0C3940240281296
:10072F000C8A30E322EF4408F0900046E0B4011742
:10073F00900048E0C39408500EE004F08009900048
:10074F004D120C9F54F7F020842690004EE004F0D9
:10075F00E0C394024026120C8A30E420EF4410F0DC
:10076F00900046E0B40115900048E0600F14F022AD
:0D077F00E490004EF0900049E054EFF022AD
:1005410090004FE060030205E4743CF0900012E07B
:10055100600214F0900014E0600214F0900020E0BA
:10056100600214F0900021E0600214F0900022E09B
:10057100600214F0900023E0600214F0900045E066
:10058100600214F0900055E06003E014F090002741
:10059100E0600214F0900028E07002A3E0600E9089
:1005A1000029E024FFF0900028E034FFF0900025BE
:1005B100E004F07006900024E004F0900051E07037
:1005C10002A3E0600E900052E024FFF0900051E0A1
:1005D10034FFF0900050E07005743CF0800B900007
:1005E10050800390004FE014F0900055E0900051CE
:1005F100E07002A3E06006900046E0700FE4900016
:0D0601005CF0900046F0900051F0A3F02254
:10029000900058E0FFC3900057E09F900056E09414
:1002A000004016900046E0B40115A3E0FF60106422
:1002B00001600CEFB402088006900059740AF090B7
:1002C0000056E07002A3E0600302038490005DE04A
:1002D0006013120CA690005DE030E00690005974A7
:1002E0000DF002035690005CE0FF607730E00912E9
:1002F0000C7D7401F0020356EF30E109120C7D749D
:1003000002F0020356EF30E208120C7D7403F08015
:1003100045EF30E308120C7D7404F08039EF30E4CF
:1003200008120C7D7405F0802DEF30E508120C7D6D
:100330007406F08021EF30E608120C7D7407F0801F
:1003400015EF90005630E708120C807408F0800614
:10035000120C807409F0900056E0C313A3E013A3BD
:10036000F0802F120CA6900046E0B4010A900048DD
:10037000E0900059F08006900059740FF0E490006E
:1003800058F0800E900057E024FFF0900056E034C3
:10039000FFF0120E49900059E0FF1203A2E4FF02A1
:0203A0000E58F5
:080E4900120C94C2B0C2B122E8
:1003A200EFB4100040030204719003B2F8282873DE
:1003B2000203E20203E80203EC0203F9020402026E
:1003C200040602041002041602041E020426020499
:1003D2003202044102044602045202045E02044153
:1003E200120CB0020464C2B3802CD2B3D2A0C2B445
:1003F200D2B2D28302046D120CB0D2B2C283806B2D
:10040200C2B38022D2B3C2A0D2B4D2B2801EC2B3CF
:10041200C2A0800CD2B3D2A0D2B4801AD2B3D2A0DE
:10042200D2B48026D2B3D2A0D2B4C2B2C2838027C1
:10043200C2B3C2A0C2B4C2B2C283C2B0C2B122129B
:100442000C948027D2B3C2A0C2B4D2B2D2838007A6
:10045200120CB0C2B2D283D2B0D2B122D2B3C2A0F5
:10046200C2B4D2B2D283D2B0C2B122C2B0D2B1220D
:060E5800900069EFF0229A
:1008370053A87F120E517D0FE4FF120D4F120BB418
:1008470043A880120A67120003120DF1E59830E3FE
:10085700FB90002BE0B41F0543800180035380FE0B
:1008670090000EE0B401034398027F787E05120CD6
:10087700E37F787E05120CE37FD07E07120CE353EB
:1008870098FD1204721208DF7F847E03120CE312B4
:100897000C3E120B1F1205411206CF7FF47E011288
:1008A7000CE3120DBDE59820E3FB1202907FE87E72
:1008B70003120CE37FDC7E05120CE3120B6B7FE85F
:1008C7007E03120CE312098512006E7FE87E031285
:0808D7000CE3120D2D02085381
:100A6700E4900046F0900054F0A37414F0E4900072
:100A770049F0A3F0A3F0900056F0A3F0A3F0900084
:100A8700487404F0E4900047F090005EF090005B3B
:100A9700F0900059740AF0E490005CF0A3F0900025
:100AA7004004F0A3742CF0E490002DF090003BF08C
:100AB70090002CF0900015F053807F5380FD5380F9
:020AC700FE220D
:100DF1007F1EE4900069F0E59830E3FBE59820E37D
:070E0100FBEF60031F80F00E
:010E080022C7
:03000000020DD717
:100DD70078FFE4F6D8FD9000007F007E09E4F0A3D9
:0A0DE700DFFCDEFA75810702083711
:10060E00BC000BBE0029EF8DF084FFADF022E4CCD0
:10061E00F875F008EF2FFFEE33FEEC33FCEE9DEC99
:10062E00984005FCEE9DFE0FD5F0E9E4CEFD22EDDF
:10063E00F8F5F0EE8420D21CFEADF075F008EF2F29
:10064E00FFED33FD4007985006D5F0F222C398FD1A
:05065E000FD5F0EA22B7
:10066300E88FF0A4CC8BF0A42CFCE98EF0A42CFC36
:100673008AF0EDA42CFCEA8EF0A4CDA8F08BF0A4B4
:100683002DCC3825F0FDE98FF0A42CCD35F0FCEB13
:100693008EF0A4FEA9F0EB8FF0A4CFC5F02ECD39D8
:0F06A300FEE43CFCEAA42DCE35F0FDE43CFC2245
:1006B200EB9FF5F0EA9E42F0E99D42F0E89C45F09E
:0106C2002215
:0C06C300ECF0A3EDF0A3EEF0A3EFF022AA
:00000001FF
