:100CEC00438002E4FF120E8C900044EEF0A3EFF070
:100CFC00A3E07002A3E06026900047E024FFF09090
:100D0C000046E034FFF0C3900045E0946690004448
:100D1C00E09406900063E040094401F080079000E5
:090D2C0063E054FEF05380FD2247
:10056D004380027F0F120E8C900040E0FD04F0EDF1
:10057D0025E02434F582E43400F583EEF0A3EFF0AA
:10058D00900040E0C394054049E4F0900036E0FE51
:10059D00A3E0FF900035E02FFF900034E03EFE9089
:1005AD000039E02FFF900038E03EFE90003BE02F39
:1005BD00FF90003AE03EFE90003DE02FFF90003CA2
:1005CD00E03EFE7C007D0512038590003EEEF0A31B
:1005DD00EFF090003EE0FEA3E0FFC3945EEE940AC0
:1005ED00400D9000337402F090004114F0802CC344
:1005FD00EF945CEE940740099000337401F0E480B1
:10060D000EC3EF9454EE94075011E4900033F09024
:10061D000041F0A37403F0A37484F0900042E070E5
:10062D0002A3E0600E900043E024FFF0900042E052
:07063D0034FFF05380FD22A1
:100003004380029000487406F0A37466F0D394AE64
:1000130074069403501CA3E004F0E0C3940A401751
:10002300740AF0900062E04480F090004B740AF090
:100033008005E490004AF090004BE0600414F080E7
:0C00430007900062E0547FF05380FD2223
:070F990075C820E4F58A226F
:100EAE00EDC3940F40027D0FEFB40106ED25E0F582
:0C0EBE00D822AF05EF25E04401F5D82252
:100D350075A18BE4F5ACF591F5DEF580F5D375D2AB
:100D450020F5B1F5ADF592F588F5D5F5D475B9C4AD
:100D5500F5AEF593F59075D60A75C102F5AFF59820
:100D6500F5EE75C901F5A3F594F5A0F5EF75D11F5D
:070D7500F595F5B0F5FF2232
:100E8C00759D07EF4480F59C439C4000E59CF42045
:100E9C00E4FAE59F540FFEAD9E7C00E42DFFEC3E82
:020EAC00FE2224
:100E6400AC06EC901012F0A3EFF09010107401F0A7
:100E7400A37464F0901010E04480F0901011E0F43A
:080E840020E4F8E054EFF02235
:0A0F7500EF1F70011E144E70F722EA
:10048A00190715061F1D1B19171511080807070656
:10049A0006031F0938407080A8C0000000F0021C43
:1004AA000348047405A006CC06CC06CC0004080C4C
:1004BA001014181C20000102030405060708000195
:1004CA00020304050607080666070A070A0000066B
:1004DA006607AE085108F5099909EB0A8F0B330034
:1004EA0000000000000001000100010001010101FB
:1004FA000101010101011101110111011111111172
:10050A0011111111111115111511151115151515B5
:10051A0015151515151555155515551555555555C1
:10052A005555555555555755575557555757575763
:10053A005757575757577757775777577777777761
:10054A007777777777777F777F777F777F7F7F7FF9
:10055A007F7F7F7F7F7FFF7FFF7FFF7FFFFFFFFF21
:03056A00FFFFFF91
:070F89004400000101010119
:100C8200EE25E02404F582E43400F583E0FCA3E0E1
:100C9200FDEF25E02404F582E43400F58322F0A37D
:100CA200F0A3F0A3F022F583E5822FF582E43583E9
:100CB200F583E49390002EF02290004EE025E0248C
:100CC200A4F582E43404F583E4932290000FE094C7
:100CD2005290000EE0940022E4900013F0A3F02260
:0A0CE200EEF0A3EFF07F0A7E00227F
:100C1700900055743CF0A3F090004D7402F0E490FE
:100C27000062F0A3F0900019F090001C120CA09045
:100C37000021120CA0A3120CA0A3F0A3F0A3743CF4
:100C4700F0120CBBFF74019390002CCFF0A3EFF0D0
:100C5700E4A3F0A3F0900048120CA090000EF0A3BC
:100C6700F0900016F0120CDBA3F0900018F0900043
:0B0C770017F0900010F0A3F0A3F02293
:10006E0090004EE0FF900033E0FE75F009A424B638
:10007E00F582E43404120CA8EF25E024D7F582E4CF
:10008E003404F583E493FC740193FD90001B74011A
:10009E00F0C390001FE09D90001EE09C4020E49075
:1000AE00001BF090001FE094FF90001EE0940F40A4
:1000BE000D900062E04440F0900027740AF090002A
:1000CE002BE0600F120CBBFD74019390002CCDF051
:1000DE00A3EDF090004EE070030201E590002CE0DD
:1000EE007002A3E06009EE90049C9390002EF090B5
:1000FE000033E0FF90048A93FE90002EE0C39E50E2
:10010E00030201B0900029E09434900028E0940896
:10011E00400690002A7401F0C3900029E09460908C
:10012E000028E09409400690002A7402F0C3900063
:10013E0029E0948C900028E0940A400690002A74DE
:10014E0003F0C3900029E094B8900028E0940B408F
:10015E000690002A7404F0C3900029E094E4900005
:10016E0028E0940C400690002A7405F0C3900029F4
:10017E00E09410900028E0940E400690002A740639
:10018E00F0C3900029E09480900028E09470402CF9
:10019E0090002A7407F09000287470F0A37480F019
:1001AE00801AE4900028F0A3F0EF90048C93FF9057
:1001BE00002EE0D39F5005E490002AF090002AE034
:1001CE00FF6023900033E075F007A4248DF582E4E0
:1001DE003404120CA8800FE490002CF0A3F09000D1
:1001EE0028F0A3F0A3F0900024E07007900062E0E6
:1001FE0054F7F0900025E07007900062E054EFF0A5
:10020E00900026E07007900062E054DFF090002727
:10021E00E07007900062E054BFF090004CE0B40133
:10022E00047F0180027F00900019EFF0900000E043
:10023E00FCA3E0FDA3E0FEA3E0FF780112043A90D8
:10024E00000012044D90002FE004F0E0D3941F4004
:0D025E000CE4F090000012045901010101B0
:01026B002270
:100F1C00E4900011F0900019E0B4010A4380809035
:0A0F2C0000117401F02253807F22AF
:0F0F4E00900019E0B401044380802253807F2279
:1009F1004380027F0E120E8C90000EEEF0A3EFF0FA
:100A0100A37401F0A3E0B40118120CDAD3120CCDD7
:100A11005073900062E04402F0900018740AF08074
:100A210064C3120CCD401E900014E004F0700690D7
:100A31000013E004F0E4900010F0900016E0701450
:100A4100743CF0800F120CDA900062E054FEF0E486
:100A5100900012F0900013E0FEA3E0FFD39410EE9B
:100A6100940E4021EF9468EE94105009900062E0DA
:100A71004401F080109000137410F0A37468F0909A
:100A810000127401F0900018E07007900062E054C9
:060A9100FDF05380FD2280
:100DBF00438002E490006FF07F0D120E8C90006F55
:100DCF00E0120C94120CE2120E6463800290006F1A
:100DDF00E004F0E0C3940540DF5380FD120D7C90DA
:0E0DEF00000AE0FFA3E090001CCFF0A3EFF09D
:010DFD0022D3
:100B3100438002E490006FF07F0B120E8C90006FE7
:100B4100E0120C94120CE2120E6463800290006FAA
:100B5100E004F0E0C3940540DF900006E0FEA3E06E
:100B6100FF900005E02FFF900004E03EFE90000999
:100B7100E02FFF900008E03EFE90000BE02FFF9079
:100B8100000AE03EFE90000DE02FFF90000CE03ED9
:100B9100FE7C007D0512038590001EEEF0A3EFF0B0
:030BA1005380FD81
:010BA400222E
:100D7C00E4FFAE07EEC394055032120C82E0FAA3E6
:100D8C00E0FBD39DEA9C4021900070EAF0A3EBF0CD
:100D9C00120C82ECF0A3EDF0900070E0FCA3E0FDEF
:100DAC00EE120C94ECF0A3EDF00E80C80FEF64057E
:020DBC0070C005
:010DBE002212
:100E3800A3F07460901011F09010107481F022FEED
:100E4800FDFCE0F8A3E0F9A3E0FAA3E0FB229000A0
:0C0E580069E0FCA3E0FDA3E0FEA3E022A3
:0A0F7F0075B42075B20C43B2812254
:0C0F5D00EFB4010443AA022253AAFD22B3
:0C0F6900EFB4010443AA012253AAFE22A7
:100EE600AD07AC06ECF5C5AF058FC475C24075C33A
:0B0EF60081E5C2F420E4FA53C2EF22B1
:100ECA00AC06EC901012F0A3EFF07440120E3C90B6
:0C0EDA001011E0F420E4F8E054EFF022E6
:100F0100EF25E0FFEE33901012F0EF120E38901043
:0A0F110011E0F420E4F8E054EFF0E2
:010F1B0022B3
:06089E0090006512044DFC
:1008A400E47F02900065120E471203DA9000691289
:1008B400044D120E56C3940AFFEE9400020936E466
:1008C400FF900069120E47D31204294077E47FFF9A
:1008D4007EFFFDFC900069E0F8A3A3A3E0D312041B
:1008E4002940067EFF7FFF800A900069A3A3E0FEF3
:1008F400A3E0FF90006DEEF0A3EFF090006DE0FC3C
:10090400A3E0FDEC901012F0ED120E38901011E0FF
:10091400F420E4F8E054EFF0120E56FFC006C007CE
:10092400A3E0FEA3E0FBAA06D007D006C3EF9BFF1B
:10093400EE9AFEED9400FDEC9400FC900069120424
:040944004D0208C395
:01094800228C
:03006B0002004F41
:10004F00C0E0C083C082900059E06401F0D082D03C
:04005F0083D0E03238
:0300630002006632
:02006600003266
:100DFE0090005CE4F0A3743CF090005F227402F06B
:100E0E0090004FE0FFF422C2B3C2A0C2B4C2B2C27D
:100E1E008322E4F090004FE02290005CE4F0A37493
:0A0E2E003CF022D2B3D2A0D2B422CD
:1007E100208B44900050E004F0E0C3943C404174FD
:1007F1003C120E0D30E039EF4401F090004CE06402
:1008010001F0E490005CF0A3F0A3F090004CE060F4
:100811001F120C179004A2E493FF740193900057E8
:10082100CFF0A3EFF08009900050120E2054FEF09B
:1008310020852B900053E004F0E0C394024028127D
:100841000E0B30E322EF4408F090004CE0B40117A6
:1008510090004EE0C39408500EE004F0800990002F
:1008610053120E2054F7F0208426900054E004F037
:10087100E0C394024026120E0B30E420EF4410F046
:1008810090004CE0B4011590004EE0600F14F0228E
:0D089100E4900054F090004FE054EFF0228E
:10071400900055E060030207B7743CF0900016E0C7
:10072400600214F0900018E0600214F0900024E0DD
:10073400600214F0900025E0600214F0900026E0BE
:10074400600214F0900027E0600214F090004BE087
:10075400600214F090005BE06003E014F090002B62
:10076400E0600214F090002CE07002A3E0600E90B0
:10077400002DE024FFF090002CE034FFF0900029DD
:10078400E004F07006900028E004F0900057E07058
:1007940002A3E0600E900058E024FFF0900057E0C0
:1007A40034FFF0900056E07005743CF0800B90002C
:1007B400568003900055E014F090005BE0900057E1
:1007C400E07002A3E0600690004CE0700FE490003B
:0D07D40062F090004CF0900057F0A3F0226E
:10026C0090005EE0FFC390005DE09F90005CE09426
:10027C0000401690004CE0B40115A3E0FF60106440
:10028C0001600CEFB40208800690005F740AF0E481
:10029C00900062F0A3F090005CE07002A3E06003B9
:1002AC00020367900063E06013120E27900063E076
:1002BC0030E00690005F740DF0020339900062E0AC
:1002CC00FF607730E009120DFE7401F0020339EF84
:1002DC0030E109120DFE7402F0020339EF30E2082E
:1002EC00120DFE7403F08045EF30E308120DFE741E
:1002FC0004F08039EF30E408120DFE7405F0802D07
:10030C00EF30E508120DFE7406F08021EF30E608A0
:10031C00120DFE7407F08015EF90005C30E70812A8
:10032C000E017408F08006120E017409F090005C46
:10033C00E0C313A3E013A3F0802F120E2790004C00
:10034C00E0B4010A90004EE090005FF0800690004F
:10035C005F740FF0E490005EF0800E90005DE0247E
:10036C00FFF090005CE034FFF0120F9190005FE022
:09037C00FF120644E4FF020FA089
:080F9100120E15C2B0C2B1221C
:10064400EFB410004003020713900654F8282873EF
:1006540002068402068A02068E02069B0206A40291
:1006640006A80206B20206B80206C00206C80206BE
:10067400D40206E30206E80206F40207000206E3D7
:10068400120E31020706C2B3802CD2B3D2A0C2B478
:10069400D2B2D28302070F120E31D2B2C283806B60
:1006A400C2B38022D2B3C2A0D2B4D2B2801EC2B32B
:1006B400C2A0800CD2B3D2A0D2B4801AD2B3D2A03A
:1006C400D2B48026D2B3D2A0D2B4C2B2C28380271D
:1006D400C2B3C2A0C2B4C2B2C283C2B0C2B12212F7
:1006E4000E158027D2B3C2A0C2B4D2B2D28380077F
:1006F400120E31C2B2D283D2B0D2B122D2B3C2A0CE
:10070400C2B4D2B2D283D2B0C2B122C2B0D2B12268
:060FA00090006FEFF0224B
:1009490053A87F120F997D0FE4FF120EAE120D35D9
:1009590043A880120BA5120C17120F36E59830E345
:10096900FB90002FE0B41F055380FE8003438001F4
:10097900900012E0B401034398027F787E05120EBD
:10098900647F787E05120E647FD07E07120E645351
:1009990098FD12056D1209F17F847E03120E64120F
:1009A9000DBF1200031207141207E17FF47E011232
:1009B9000E64120F4EE59820E3FB12026C1209E94E
:1009C9007FDC7E05120E64120CEC1209E9120B3160
:1009D90012006E7FE87E03120E64120F1C02096575
:0809E9007FE87E03120E642278
:100BA500E490004CF090005AF0A37414F0E4900027
:100BB5004FF0A3F0A3F090005CF0A3F0A3F0900039
:100BC5004E7404F0E490004DF0900064F0900061E4
:100BD500F090005F740AF0E4900062F0A3F09000DA
:100BE5004604F0A3742CF09000337402F0E49000F6
:100BF50041F0900032F0900019F090003104F0E4DB
:100C050090002EF0A3F0A3F053807F5380FD538016
:020C1500FE22BD
:100F36007F1EE490006FF0E59830E3FBE59820E330
:070F4600FBEF60031F80F0C8
:010F4D002281
:03000000020A975A
:100A970078FFE4F6D8FD9000007F007E09E4F0A31C
:0A0AA700DFFCDEFA758107020AEC9D
:100AB100020949E493A3F8E493A34003F68001F209
:100AC10008DFF48029E493A3F85407240CC8C33346
:100AD100C4540F4420C8834004F456800146F6DF15
:100AE100E4800B0102040810204080900F89E47E0D
:100AF100019360BCA3FF543F30E509541FFEE4930A
:100B0100A360010ECF54C025E060A840B8E493A3D0
:100B1100FAE493A3F8E493A3C8C582C8CAC583CAFB
:100B2100F0A3C8C582C8CAC583CADFE9DEE780BEB3
:010F90000060
:10038500BC000BBE0029EF8DF084FFADF022E4CC5C
:10039500F875F008EF2FFFEE33FEEC33FCEE9DEC25
:1003A500984005FCEE9DFE0FD5F0E9E4CEFD22ED6B
:1003B500F8F5F0EE8420D21CFEADF075F008EF2FB5
:1003C500FFED33FD4007985006D5F0F222C398FDA6
:0503D5000FD5F0EA2243
:1003DA00E88FF0A4CC8BF0A42CFCE98EF0A42CFCC2
:1003EA008AF0EDA42CFCEA8EF0A4CDA8F08BF0A440
:1003FA002DCC3825F0FDE98FF0A42CCD35F0FCEB9F
:10040A008EF0A4FEA9F0EB8FF0A4CFC5F02ECD3963
:0F041A00FEE43CFCEAA42DCE35F0FDE43CFC22D0
:10042900EB9FF5F0EA9E42F0E99D42F0E89C45F029
:0104390022A0
:10043A00E8600FECC313FCED13FDEE13FEEF13FFA0
:03044A00D8F122C4
:0C044D00ECF0A3EDF0A3EEF0A3EFF02222
:10045900A8828583F0D083D08212047012047012AE
:100469000470120470E473E493A3C583C5F0C583D3
:10047900C8C582C8F0A3C583C5F0C583C8C582C8ED
:010489002250
:00000001FF
