:100B5E00438002E4FF120D4C90003DEEF0A3EFF047
:100B6E00A3E07002A3E06026900040E024FFF09026
:100B7E00003FE034FFF0C390003EE0946690003DED
:100B8E00E0940690005CE040094401F0800790007C
:090B9E005CE054FEF05380FD22DE
:10049A004380027F0F120D4C900039E0FD04F0ED0D
:1004AA0025E0242DF582E43400F583EEF0A3EFF085
:1004BA00900039E0C394054049E4F090002FE0FE33
:1004CA00A3E0FF90002EE02FFF90002DE03EFE906B
:1004DA000032E02FFF900031E03EFE900034E02F22
:1004EA00FF900033E03EFE900036E02FFF9000358B
:1004FA00E03EFE7C007D05120636900037EEF0A342
:10050A00EFF0900037E0FEA3E0FFC3945EEE940A9A
:10051A00400CE490002CF090003A04F08025C3EFE0
:10052A00946EEE940640028009C3EF945EEE940640
:10053A005011E490002CF090003AF0A37403F0A359
:10054A007484F090003BE07002A3E0600E90003CDF
:0F055A00E024FFF090003BE034FFF05380FD22DF
:100B12004380029000417406F0A37466F0D394AE51
:100B220074069403501CA3E004F0E0C3940A401737
:100B3200740AF090005BE04480F0900044740AF084
:100B42008005E4900043F0900044E0600414F080DB
:0C0B52000790005BE0547FF05380FD2210
:070E560075C820E4F58A22B3
:100D6E00EDC3940F40027D0FEFB40106ED25E0F5C3
:0C0D7E00D822AF05EF25E04401F5D82293
:100BA70075A18BE4F5ACF591F5DEF580F5D375D23B
:100BB70020F5B1F5ADF592F588F5D575D40275B97F
:100BC700C4F5AEF593F59075D60A75C102F5AFF584
:100BD70098F5EE75C901F5A3F594F5A0F5EF75D174
:080BE7001FF595F5B0F5FF22A2
:100D4C00759D07EF4480F59C439C4000E59CF42086
:100D5C00E4FAE59F540FFEAD9E7C00E42DFFEC3EC3
:020D6C00FE2265
:100D0100AC06EC901012F0A3EFF09010107401F00B
:100D1100A37464F0901010E04480F0901011E0F49E
:080D210020E4F8E054EFF02299
:0A0E3A00EF1F70011E144E70F72226
:100ABC00190715061F1D1B1917151108080707061E
:100ACC0006031F0938407080A8C0000000F0021C0B
:100ADC000348047405A006CC06CC06CC0005090D11
:100AEC001115191D1F0002030405060708090666E7
:100AFC00070A070A0FFF019A042905C2075C08F5CB
:060B0C000A8F0C280CCC3E
:1009F100EE25E02400F582E43400F583E0FCA3E079
:100A0100FDEF25E02400F582E43400F58322F0A314
:100A1100F0A3F0A3F022900047E025E024D6F58270
:100A2100E4340AF583E493FF740193900027CFF037
:100A3100A3EFF02290000BE0945290000AE09400A2
:100A410022900029E0FFA3E0FEC39F22EEF0A3EF76
:060A5100F07F0A7E002286
:1000030090004E743CF0A3F09000467402F0E4902C
:10001300005BF0A3F0900014F0900017120A0F9009
:10002300001C120A0FA3120A0FA3F0A3F0A3743C3F
:10003300F0120A17E4A3F0A3F0900041120A0F9004
:10004300000AF0A3F0900011F090000EF0A3F0A3CB
:10005300F0900013F0900012F090000CF0A3F02247
:10006E0090002AE0641F600302023C7B667A0690D1
:10007E00001504F0900017E0FEA3E0FFC39BEE9A7C
:10008E004014EF94FFEE940F402D90005BE044106F
:10009E00F0900020801EE4900015F0D3900018E040
:1000AE0094F6900017E09400500D90005BE0440829
:1000BE00F090001F740AF0900047E025E02400F550
:1000CE0082E4340BF583E493FA740193FB900016EB
:1000DE007401F0C390001AE09B900019E09A402042
:1000EE00E4900016F090001AE094D6900019E09477
:1000FE000F400D90005BE04440F0900022740AF037
:10010E00900026E06003120A17900047E070030289
:10011E00022D900027E07002A3E0600C90002CE00E
:10012E00900ACE93900029F090002CE0FF900ABC2C
:10013E0093FE900029E0C39E50030201E990002433
:10014E00E09434900023E09408400690002574015A
:10015E00F0C3900024E09460900023E094094006E0
:10016E009000257402F0C3900024E0948C9000233C
:10017E00E0940A40069000257403F0C3900024E03A
:10018E0094B8900023E0940B40069000257404F080
:10019E00C3900024E094E4900023E0940C40069079
:1001AE0000257405F0C3900024E09410900023E025
:1001BE00940E40069000257406F0C3900024E0943F
:1001CE0080900023E09470402C9000257407F090EE
:1001DE0000237470F0A37480F0801AE4900023F072
:1001EE00A3F0EF900ABE93FF900029E0D39F500535
:1001FE00E4900025F0900025E0FF603290002CE0A6
:10020E0075F007A424BFF582E4340AF583E5822F46
:10021E00F582E43583F583E493900029F0800FE4B2
:10022E00900027F0A3F0900023F0A3F0A3F090002D
:10023E00157401F090001FE0700790005BE054F71A
:10024E00F0900020E0700790005BE054EFF090001B
:10025E0021E0700790005BE054DFF0900022E07028
:10026E000790005BE054BFF090002AE004F0E0D36A
:10027E00941F4002E4F0900045E064017024900069
:10028E0015E06401701CA3E0B4011790000CE0B4FB
:10029E000110900011E0700A90005BE070047F0185
:0902AE0080027F00900014EFF0C3
:0102B7002224
:100CD700E490000DF0120A425019900014E0B4019C
:100CE70018438080E4C39E501043980290000D740F
:0A0CF70001F02253807F5398FD2284
:100D2900120A425017900014E06401701543808044
:100D3900EF14FFEEC39F50074398022253807F535D
:030D490098FD22F0
:1008F9004380027F0E120D4C90000AEEF0A3EFF038
:10090900A37401F0A3E0B4010BE4A3F0A3F0D312A4
:100919000A35804FC3120A35401E90000FE004F0DB
:10092900700690000EE004F0E490000CF0900011C5
:10093900E07013743CF0800EE490000EF0A3F09088
:10094900005BE054FEF0C390000FE0946890000E45
:10095900E09410400E7410F0A37468F090005BE00E
:100969004401F0900013E0700790005BE054FDF043
:040979005380FD2288
:100C3200438002E4900068F07F0D120D4C90006832
:100C4200E0120A03120A4D120D016380029000683D
:100C5200E004F0E0C3940540DF5380FD120BEF90F7
:0E0C62000006E0FFA3E0900017CFF0A3EFF034
:010C70002261
:10097D00438002E4900068F07F0B120D4C900068EC
:10098D00E0120A03120A4D120D01638002900068F5
:10099D00E004F0E0C3940540DF900002E0FEA3E028
:1009AD00FF900001E02FFF900000E03EFE9000055B
:1009BD00E02FFF900004E03EFE900007E02FFF9037
:1009CD000006E03EFE900009E02FFF900008E03E9B
:1009DD00FE7C007D05120636900019EEF0A3EFF0B7
:0309ED005380FD37
:0109F00022E4
:100BEF00E4FFAE07EEC3940550321209F1E0FAA309
:100BFF00E0FBD39DEA9C4021900069EAF0A3EBF063
:100C0F001209F1ECF0A3EDF0900069E0FCA3E0FD18
:100C1F00EE120A03ECF0A3EDF00E80C80FEF64059F
:020C2F0070C093
:010C310022A0
:100CAB00A3F07460901011F09010107481F022FE7C
:100CBB00FDFCE0F8A3E0F9A3E0FAA3E0FB2290002F
:0C0CCB0062E0FCA3E0FDA3E0FEA3E02239
:0A0E440075B42075B20C43B2812290
:0C0E2200EFB4010443AA022253AAFD22EF
:0C0E2E00EFB4010443AA012253AAFE22E3
:100DA600AD07AC06ECF5C5AF058FC475C24075C37B
:0B0DB60081E5C2F420E4FA53C2EF22F2
:100D8A00AC06EC901012F0A3EFF07440120CAF9086
:0C0D9A001011E0F420E4F8E054EFF02227
:100DC100EF25E0FFEE33901012F0EF120CAB901014
:0A0DD10011E0F420E4F8E054EFF024
:010DDB0022F5
:0607B40090005E1206EB4E
:1007BA00E47F0290005E120CBA12068B900062125D
:1007CA0006EB120CC9C3940AFFEE940002084CE42B
:1007DA00FF900062120CBAD31206DA4077E47FFF68
:1007EA007EFFFDFC900062E0F8A3A3A3E0D312060B
:1007FA00DA40067EFF7FFF800A900062A3A3E0FE34
:10080A00A3E0FF900066EEF0A3EFF0900066E0FC34
:10081A00A3E0FDEC901012F0ED120CAB901011E079
:10082A00F420E4F8E054EFF0120CC9FFC006C00748
:10083A00A3E0FEA3E0FBAA06D007D006C3EF9BFF06
:10084A00EE9AFEED9400FDEC9400FC900062120614
:04085A00EB0207D9CD
:01085E002277
:03006B00020E0E74
:100E0E00C0E0C083C082900052E06401F0D082D076
:040E1E0083D0E0326B
:0300630002006632
:02006600003266
:100C7100900055E4F0A3743CF0900058227402F007
:100C8100900048E0FFF422C2B3C2A0C2B4C2B2C213
:100C91008322E4F0900048E022900055E4F0A37430
:0A0CA1003CF022D2B3D2A0D2B4225C
:1006F700208B44900049E004F0E0C3943C404174EF
:100707003C120C8030E039EF4401F0900045E06482
:1007170001F0E4900055F0A3F0A3F0900045E060ED
:100727001F120003900AD4E493FF740193900050C2
:10073700CFF0A3EFF08009900049120C9354FEF01C
:1007470020852B90004CE004F0E0C394024028126F
:100757000C7E30E322EF4408F0900045E0B4011727
:10076700900047E0C39408500EE004F08009900021
:100777004C120C9354F7F020842690004DE004F0BF
:10078700E0C394024026120C7E30E420EF4410F0C0
:10079700900045E0B40115900047E0600F14F02287
:0D07A700E490004DF0900048E054EFF02287
:1005690090004EE0600302060C743CF0900011E02C
:10057900600214F0900013E0600214F090001FE094
:10058900600214F0900020E0600214F0900021E075
:10059900600214F0900022E0600214F0900044E040
:1005A900600214F0900054E06003E014F09000261B
:1005B900E0600214F0900027E07002A3E0600E9062
:1005C9000028E024FFF0900027E034FFF090002499
:1005D900E004F07006900023E004F0900050E07011
:1005E90002A3E0600E900051E024FFF0900050E07B
:1005F90034FFF090004FE07005743CF0800B9000E0
:100609004F800390004EE014F0900054E0900050A9
:10061900E07002A3E06006900045E0700FE49000EE
:0D0629005BF0900045F0900050F0A3F0222F
:1002B800900057E0FFC3900056E09F900055E094EF
:1002C800004016900045E0B40115A3E0FF601064FB
:1002D80001600CEFB402088006900058740AF09090
:1002E8000055E07002A3E060030203AC90005CE0FC
:1002F8006013120C9A90005CE030E006900058748D
:100308000DF002037E90005BE0FF607730E0091299
:100318000C717401F002037EEF30E109120C717464
:1003280002F002037EEF30E208120C717403F080D1
:1003380045EF30E308120C717404F08039EF30E4B3
:1003480008120C717405F0802DEF30E508120C715D
:100358007406F08021EF30E608120C717407F08003
:1003680015EF90005530E708120C747408F08006F9
:10037800120C747409F0900055E0C313A3E013A3A2
:10038800F0802F120C9A900045E0B4010A900047C3
:10039800E0900058F08006900058740FF0E4900048
:1003A80057F0800E900056E024FFF0900055E0349E
:1003B800FFF0120E4E900058E0FF1203CAE4FF024D
:0203C8000E5DC8
:080E4E00120C88C2B0C2B122EF
:1003CA00EFB4100040030204999003DAF828287366
:1003DA0002040A02041002041402042102042A027A
:1003EA00042E02043802043E02044602044E0204A9
:1003FA005A02046902046E02047A0204860204693B
:10040A00120CA402048CC2B3802CD2B3D2A0C2B400
:10041A00D2B2D283020495120CA4D2B2C283806BE8
:10042A00C2B38022D2B3C2A0D2B4D2B2801EC2B3A7
:10043A00C2A0800CD2B3D2A0D2B4801AD2B3D2A0B6
:10044A00D2B48026D2B3D2A0D2B4C2B2C283802799
:10045A00C2B3C2A0C2B4C2B2C283C2B0C2B1221273
:10046A000C888027D2B3C2A0C2B4D2B2D28380078A
:10047A00120CA4C2B2D283D2B0D2B122D2B3C2A0D9
:10048A00C2B4D2B2D283D2B0C2B122C2B0D2B122E5
:060E5D00900068EFF02296
:10085F0053A87F120E567D0FE4FF120D6E120BA7D9
:10086F0043A880120A57120003120DF6E59830E3E1
:10087F00FB90002AE0B41F0543800180035380FEE4
:10088F007F787E05120D017F787E05120D017FD0D6
:10089F007E07120D0112049A1208F97F847E03124B
:1008AF000D01120C32120B121205691206F77FF4AA
:1008BF007E01120D01120D29E59820E3FB1202B8FB
:1008CF007FE87E03120D017FDC7E05120D01120BF6
:1008DF005E7FE87E03120D0112097D12006E7FE824
:0A08EF007E03120D01120CD7808267
:100A5700E4900045F0900053F0A37414F0E4900084
:100A670048F0A3F0A3F0900055F0A3F0A3F0900096
:100A7700477404F0E4900046F090005DF090005A4F
:100A8700F0900058740AF0E490005BF0A3F0900037
:100A97003F04F0A3742CF0E490002CF090003AF09F
:100AA70090002BF0900014F05398FD53807F5380F3
:050AB700FD5380FE224A
:100DF6007F1EE4900068F0E59830E3FBE59820E379
:070E0600FBEF60031F80F009
:010E0D0022C2
:03000000020DDC12
:100DDC0078FFE4F6D8FD9000007F007E09E4F0A3D4
:0A0DEC00DFFCDEFA75810702085FE4
:10063600BC000BBE0029EF8DF084FFADF022E4CCA8
:10064600F875F008EF2FFFEE33FEEC33FCEE9DEC71
:10065600984005FCEE9DFE0FD5F0E9E4CEFD22EDB7
:10066600F8F5F0EE8420D21CFEADF075F008EF2F01
:10067600FFED33FD4007985006D5F0F222C398FDF2
:050686000FD5F0EA228F
:10068B00E88FF0A4CC8BF0A42CFCE98EF0A42CFC0E
:10069B008AF0EDA42CFCEA8EF0A4CDA8F08BF0A48C
:1006AB002DCC3825F0FDE98FF0A42CCD35F0FCEBEB
:1006BB008EF0A4FEA9F0EB8FF0A4CFC5F02ECD39B0
:0F06CB00FEE43CFCEAA42DCE35F0FDE43CFC221D
:1006DA00EB9FF5F0EA9E42F0E99D42F0E89C45F076
:0106EA0022ED
:0C06EB00ECF0A3EDF0A3EEF0A3EFF02282
:00000001FF
