:100C2700438002E4FF120DC7900040EEF0A3EFF0FF
:100C3700A3E07002A3E06026900043E024FFF09059
:100C47000042E034FFF0C3900041E094669000401A
:100C5700E0940690005FE040094401F080079000AF
:090C67005FE054FEF05380FD2211
:100485004380027F0F120DC790003CE0FD04F0EDA4
:1004950025E02430F582E43400F583EEF0A3EFF097
:1004A50090003CE0C394054049E4F0900032E0FE42
:1004B500A3E0FF900031E02FFF900030E03EFE907A
:1004C5000035E02FFF900034E03EFE900037E02F2E
:1004D500FF900036E03EFE900039E02FFF90003897
:1004E500E03EFE7C007D051206F990003AEEF0A391
:1004F500EFF090003AE0FEA3E0FFC3945EEE940AAD
:10050500400D90002F7402F090003D14F0802CC334
:10051500EF945CEE9407400990002F7401F0E4809D
:100525000EC3EF9454EE94075011E490002FF09011
:10053500003DF0A37403F0A37484F090003EE070D6
:1005450002A3E0600E90003FE024FFF090003EE043
:0705550034FFF05380FD228A
:100003004380029000447406F0A37466F0D394AE68
:1000130074069403501CA3E004F0E0C3940A401751
:10002300740AF090005EE04480F0900047740AF098
:100033008005E4900046F0900047E0600414F080EF
:0C0043000790005EE0547FF05380FD2227
:070EE60075C820E4F58A2223
:100DE900EDC3940F40027D0FEFB40106ED25E0F548
:0C0DF900D822AF05EF25E04401F5D82218
:100C700075A18BE4F5ACF591F5DEF580F5D375D271
:100C800020F5B1F5ADF592F588F5D5F5D475B9C473
:100C9000F5AEF593F59075D60A75C102F5AFF598E6
:100CA000F5EE75C901F5A3F594F5A0F5EF75D11F23
:070CB000F595F5B0F5FF22F8
:100DC700759D07EF4480F59C439C4000E59CF4200B
:100DD700E4FAE59F540FFEAD9E7C00E42DFFEC3E48
:020DE700FE22EA
:100D9F00AC06EC901012F0A3EFF09010107401F06D
:100DAF00A37464F0901010E04480F0901011E0F400
:080DBF0020E4F8E054EFF022FB
:0A0ECA00EF1F70011E144E70F72296
:1003A200190715061F1D1B1917151108080707063F
:1003B20006031F0938407080A8C0000000F0021C2C
:1003C2000348047405A006CC06CC06CC0004080C35
:1003D2001014181C2000010203040506070800017E
:1003E200020304050607080666070A070A00000654
:1003F2006607AE085108F5099909EB0A8F0B33001D
:1004020000000000000001000100010001010101E3
:10041200010101010101110111011101111111115A
:10042200111111111111151115111511151515159E
:1004320015151515151555155515551555555555AA
:10044200555555555555575557555755575757574C
:10045200575757575757775777577757777777774A
:100462007777777777777F777F777F777F7F7F7FE2
:100472007F7F7F7F7F7FFF7FFF7FFF7FFFFFFFFF0A
:03048200FFFFFF7A
:100BC100EE25E02400F582E43400F583E0FCA3E0A7
:100BD100FDEF25E02400F582E43400F58322F0A343
:100BE100F0A3F0A3F022F583E5822FF582E43583AB
:100BF100F583E4932290004AE025E024BCF582E4E9
:100C01003403F583E4932290000BE0945290000AA0
:100C1100E0940022E490000FF0A3F022EEF0A3EFA5
:060C2100F07F0A7E0022B4
:100B5600900051743CF0A3F09000497402F0E490C8
:100B6600005EF0A3F0900015F0900018120BDF90D5
:100B7600001D120BDFA3120BDFA3F0A3F0A3743C3E
:100B8600F0120BF6FF740193900028CFF0A3EFF05C
:100B9600E4A3F0A3F0900044120BDF90000AF0A348
:100BA600F0900012F0120C16A3F0900014F09000D2
:0B0BB60013F090000CF0A3F0A3F0225D
:10006E0090004AE0FF90002FE0FE75F009A424CE28
:10007E00F582E43403120BE790002AF0EF25E0241A
:10008E00EFF582E43403F583E493FC740193FD9061
:10009E0000177401F0C390001BE09D90001AE09CC5
:1000AE004020E4900017F090001BE094FF90001A9F
:1000BE00E0940F400D90005EE04440F090002374F9
:1000CE000AF0900027E0600F120BF6FD740193907A
:1000DE000028CDF0A3EDF090004AE070030201ED90
:1000EE00900028E07002A3E06009EE9003B49390B4
:1000FE00002AF090002FE0FF9003A293FE90002ABA
:10010E00E0C39E50030201B4900025E094349000A9
:10011E0024E0940840069000267401F0C390002558
:10012E00E09460900024E09409400690002674024A
:10013E00F0C3900025E0948C900024E0940A4006D1
:10014E009000267403F0C3900025E094B89000242C
:10015E00E0940B40069000267404F0C3900025E056
:10016E0094E4900024E0940C40069000267405F070
:10017E00C3900025E09410900024E0940E40069069
:10018E0000267406F0C3900025E09480900024E0D1
:10019E009470402C9000267407F09000247470F038
:1001AE00A37480F0801AE4900024F0A3F0EF900383
:1001BE00A493FF90002AE0D39F5005E4900026F010
:1001CE00900026E0FF602790002FE075F007A42432
:1001DE00A5F582E43403120BE790002AF0800FE4B9
:1001EE00900028F0A3F0900024F0A3F0A3F090006C
:1001FE0020E0700790005EE054F7F0900021E07070
:10020E000790005EE054EFF0900022E0700790003F
:10021E005EE054DFF0900023E0700790005EE05443
:10022E00BFF0900048E0B4012590002BE0FF900055
:10023E002AE025E025E02401F582E43404120BE7E0
:10024E00FF90002DE0FEEF5E60047F0180027F00D4
:10025E00900015EFF090002DE025E0F090002CE0DE
:10026E0004F0E0C394084012E4F0A304F090002BD5
:0A027E00E004F0E094044002E4F014
:010288002253
:100E5700E490000DF0900015E0B4010A4380809003
:0A0E6700000D7401F02253807F2279
:0F0EA300900015E0B401044380802253807F2229
:1009CA004380027F0E120DC790000AEEF0A3EFF0EB
:1009DA00A37401F0A3E0B40118120C15D3120C0889
:1009EA00507390005EE04402F0900014740AF080A4
:1009FA0064C3120C08401E900010E004F0700690C8
:100A0A00000FE004F0E490000CF0900012E0701483
:100A1A00743CF0800F120C1590005EE054FEF0E476
:100A2A0090000EF090000FE0FEA3E0FFD39410EECA
:100A3A00940E4021EF9468EE9410500990005EE005
:100A4A004401F0801090000F7410F0A37468F090C5
:100A5A00000E7401F0900014E0700790005EE054FC
:060A6A00FDF05380FD22A7
:100CFA00438002E490006BF07F0D120DC790006BE9
:100D0A00E0120BD3120C1D120D9F63800290006B30
:100D1A00E004F0E0C3940540DF5380FD120CB79065
:0E0D2A000006E0FFA3E0900018CFF0A3EFF06A
:010D38002298
:100A7000438002E490006BF07F0B120DC790006B77
:100A8000E0120BD3120C1D120D9F63800290006BBD
:100A9000E004F0E0C3940540DF900002E0FEA3E034
:100AA000FF900001E02FFF900000E03EFE90000567
:100AB000E02FFF900004E03EFE900007E02FFF9043
:100AC0000006E03EFE900009E02FFF900008E03EA7
:100AD000FE7C007D051206F990001AEEF0A3EFF0FF
:030AE0005380FD43
:010AE30022F0
:100CB700E4FFAE07EEC394055032120BC1E0FAA36E
:100CC700E0FBD39DEA9C402190006CEAF0A3EBF097
:100CD700120BC1ECF0A3EDF090006CE0FCA3E0FD7B
:100CE700EE120BD3ECF0A3EDF00E80C80FEF640506
:020CF70070C0CB
:010CF90022D8
:100D7300A3F07460901011F09010107481F022FEB3
:100D8300FDFCE0F8A3E0F9A3E0FAA3E0FB22900066
:0C0D930065E0FCA3E0FDA3E0FEA3E0226D
:0A0ED40075B42075B20C43B2812200
:0C0EB200EFB4010443AA022253AAFD225F
:0C0EBE00EFB4010443AA012253AAFE2253
:100E2100AD07AC06ECF5C5AF058FC475C24075C3FF
:0B0E310081E5C2F420E4FA53C2EF2276
:100E0500AC06EC901012F0A3EFF07440120D779041
:0C0E15001011E0F420E4F8E054EFF022AB
:100E3C00EF25E0FFEE33901012F0EF120D739010CF
:0A0E4C0011E0F420E4F8E054EFF0A8
:010E56002279
:060877009000611207AEC3
:10087D00E47F02900061120D8212074E9000651206
:10088D0007AE120D91C3940AFFEE940002090FE416
:10089D00FF900065120D82D312079D4077E47FFF14
:1008AD007EFFFDFC900065E0F8A3A3A3E0D3120743
:1008BD009D40067EFF7FFF800A900065A3A3E0FEAA
:1008CD00A3E0FF900069EEF0A3EFF0900069E0FC6B
:1008DD00A3E0FDEC901012F0ED120D73901011E0ED
:1008ED00F420E4F8E054EFF0120D91FFC006C007BC
:1008FD00A3E0FEA3E0FBAA06D007D006C3EF9BFF43
:10090D00EE9AFEED9400FDEC9400FC90006512074C
:04091D00AE02089C82
:0109210022B3
:03006B0002004F41
:10004F00C0E0C083C082900055E06401F0D082D040
:04005F0083D0E03238
:0300630002006632
:02006600003266
:100D3900900058E4F0A3743CF090005B227402F038
:100D490090004BE0FFF422C2B3C2A0C2B4C2B2C247
:100D59008322E4F090004BE022900058E4F0A37461
:0A0D69003CF022D2B3D2A0D2B42293
:1007BA00208B4490004CE004F0E0C3943C40417428
:1007CA003C120D4830E039EF4401F0900048E064F3
:1007DA0001F0E4900058F0A3F0A3F0900048E06024
:1007EA001F120B569003BAE493FF740193900053BF
:1007FA00CFF0A3EFF0800990004C120D5B54FEF08D
:10080A0020852B90004FE004F0E0C39402402812A8
:10081A000D4630E322EF4408F0900048E0B4011797
:10082A0090004AE0C39408500EE004F0800990005A
:10083A004F120D5B54F7F0208426900050E004F02C
:10084A00E0C394024026120D4630E420EF4410F033
:10085A00900048E0B4011590004AE0600F14F022BD
:0D086A00E4900050F090004BE054EFF022BD
:10062C00900051E060030206CF743CF0900012E0A1
:10063C00600214F0900014E0600214F0900020E0CE
:10064C00600214F0900021E0600214F0900022E0AF
:10065C00600214F0900023E0600214F0900047E078
:10066C00600214F0900057E06003E014F090002753
:10067C00E0600214F0900028E07002A3E0600E909D
:10068C000029E024FFF0900028E034FFF0900025D2
:10069C00E004F07006900024E004F0900053E07049
:1006AC0002A3E0600E900054E024FFF0900053E0B1
:1006BC0034FFF0900052E07005743CF0800B900019
:1006CC00528003900051E014F0900057E0900053DA
:1006DC00E07002A3E06006900048E0700FE4900028
:0D06EC005EF0900048F0900053F0A3F02263
:1002890090005AE0FFC3900059E09F900058E09415
:10029900004016900048E0B40115A3E0FF60106427
:1002A90001600CEFB40208800690005B740AF0E468
:1002B90090005EF0A3F0900058E07002A3E06003A4
:1002C90002038490005FE06013120D6290005FE00A
:1002D90030E00690005B740DF002035690005EE07A
:1002E900FF607730E009120D397401F0020356EF0F
:1002F90030E109120D397402F0020356EF30E208B9
:10030900120D397403F08045EF30E308120D39748A
:1003190004F08039EF30E408120D397405F0802DAE
:10032900EF30E508120D397406F08021EF30E60848
:10033900120D397407F08015EF90005830E7081254
:100349000D3C7408F08006120D3C7409F0900058B9
:10035900E0C313A3E013A3F0802F120D62900048AD
:10036900E0B4010A90004AE090005BF0800690003A
:100379005B740FF0E490005AF0800E900059E0246D
:10038900FFF0900058E034FFF0120EDE90005BE0C1
:09039900FF12055CE4FF020EED09
:080EDE00120D50C2B0C2B12296
:10055C00EFB41000400302062B90056CF8282873AA
:10056C0002059C0205A20205A60205B30205BC0207
:10057C0005C00205CA0205D00205D80205E0020535
:10058C00EC0205FB02060002060C0206180205FB33
:10059C00120D6C02061EC2B3802CD2B3D2A0C2B410
:1005AC00D2B2D283020627120D6CD2B2C283806BF8
:1005BC00C2B38022D2B3C2A0D2B4D2B2801EC2B314
:1005CC00C2A0800CD2B3D2A0D2B4801AD2B3D2A023
:1005DC00D2B48026D2B3D2A0D2B4C2B2C283802706
:1005EC00C2B3C2A0C2B4C2B2C283C2B0C2B12212E0
:1005FC000D508027D2B3C2A0C2B4D2B2D28380072E
:10060C00120D6CC2B2D283D2B0D2B122D2B3C2A07C
:10061C00C2B4D2B2D283D2B0C2B122C2B0D2B12251
:060EED0090006BEFF02203
:1009220053A87F120EE67D0FE4FF120DE9120C7040
:1009320043A880120AE4120B56120E8BE59830E39C
:10094200FB90002BE0B41F0543800180035380FE1F
:1009520090000EE0B401034398027F787E05120DE9
:100962009F7F787E05120D9F7FD07E07120D9F53C9
:1009720098FD1204851209CA7F847E03120D9F120C
:100982000CFA12000312062C1207BA7FF47E01122F
:100992000D9F120EA3E59820E3FB1202891209C2F1
:1009A2007FDC7E05120D9F120C271209C2120A70FB
:1009B20012006E7FE87E03120D9F120E5702093E4F
:0809C2007FE87E03120D9F2265
:100AE400E4900048F0900056F0A37414F0E49000F1
:100AF4004BF0A3F0A3F0900058F0A3F0A3F0900003
:100B04004A7404F0E4900049F0900060F090005DB5
:100B1400F090005B740AF0E490005EF0A3F09000A3
:100B24004204F0A3742CF090002F7402F0E49000BF
:100B34003DF090002EF0900015F090002D04F0E4AC
:100B440090002AF0A3F0A3F053807F5380FD5380DC
:020B5400FE227F
:100E8B007F1EE490006BF0E59830E3FBE59820E3E0
:070E9B00FBEF60031F80F074
:010EA200222D
:03000000020E717C
:100E710078FFE4F6D8FD9000007F007E09E4F0A33E
:0A0E8100DFFCDEFA7581070209228A
:1006F900BC000BBE0029EF8DF084FFADF022E4CCE5
:10070900F875F008EF2FFFEE33FEEC33FCEE9DECAD
:10071900984005FCEE9DFE0FD5F0E9E4CEFD22EDF3
:10072900F8F5F0EE8420D21CFEADF075F008EF2F3D
:10073900FFED33FD4007985006D5F0F222C398FD2E
:050749000FD5F0EA22CB
:10074E00E88FF0A4CC8BF0A42CFCE98EF0A42CFC4A
:10075E008AF0EDA42CFCEA8EF0A4CDA8F08BF0A4C8
:10076E002DCC3825F0FDE98FF0A42CCD35F0FCEB27
:10077E008EF0A4FEA9F0EB8FF0A4CFC5F02ECD39EC
:0F078E00FEE43CFCEAA42DCE35F0FDE43CFC2259
:10079D00EB9FF5F0EA9E42F0E99D42F0E89C45F0B2
:0107AD002229
:0C07AE00ECF0A3EDF0A3EEF0A3EFF022BE
:00000001FF
