:100B6F00438002E4FF120D1090003EEEF0A3EFF071
:100B7F00A3E07002A3E06026900041E024FFF09014
:100B8F000040E034FFF0C390003FE0946690003ED9
:100B9F00E0940690005DE040094401F0800790006A
:090BAF005DE054FEF05380FD22CC
:10049A004380027F0F120D1090003AE0FD04F0ED48
:1004AA0025E0242EF582E43400F583EEF0A3EFF084
:1004BA0090003AE0C394054049E4F0900030E0FE31
:1004CA00A3E0FF90002FE02FFF90002EE03EFE9069
:1004DA000033E02FFF900032E03EFE900035E02F1F
:1004EA00FF900034E03EFE900037E02FFF90003688
:1004FA00E03EFE7C007D05120636900038EEF0A341
:10050A00EFF0900038E0FEA3E0FFC3945EEE940A99
:10051A00400CE490002DF090003B04F08025C3EFDE
:10052A00946EEE940640028009C3EF945EEE940640
:10053A005011E490002DF090003BF0A37403F0A357
:10054A007484F090003CE07002A3E0600E90003DDD
:0F055A00E024FFF090003CE034FFF05380FD22DE
:100B23004380029000427406F0A37466F0D394AE3F
:100B330074069403501CA3E004F0E0C3940A401726
:100B4300740AF090005CE04480F0900045740AF071
:100B53008005E4900044F0900045E0600414F080C8
:0C0B63000790005CE0547FF05380FD22FE
:070E560075C820E4F58A22B3
:100D5400EDC3940F40027D0FEFB40106ED25E0F5DD
:0C0D6400D822AF05EF25E04401F5D822AD
:100BB80075A18BE4F5ACF591F5DEF580F5D375D22A
:100BC80020F5B1F5ADF592F588F5D575D40275B96E
:100BD800C4F5AEF593F59075D60A75C102F5AFF573
:100BE80098F5EE75C901F5A3F594F5A0F5EF75D163
:080BF8001FF595F5B0F5FF2291
:100D1000759D07EF4480F59C439C4000E59CF420C2
:100D2000E4FAE59F540FFEAD9E7C00E42DFFEC3EFF
:020D3000FE22A1
:100CE800AC06EC901012F0A3EFF09010107401F025
:100CF800A37464F0901010E04480F0901011E0F4B8
:080D080020E4F8E054EFF022B2
:0A0E3A00EF1F70011E144E70F72226
:100ACD00190715061F1D1B1917151108080707060D
:100ADD0006031F0938407080A8C0000000F0021CFA
:100AED000348047405A006CC06CC06CC0005090D00
:100AFD001115191D1F0002030405060708090666D6
:100B0D00070A070A0000066607AE085108F509999D
:060B1D0009EB0A8F0B3307
:1009FD00EE25E02400F582E43400F583E0FCA3E06D
:100A0D00FDEF25E02400F582E43400F58322F0A308
:100A1D00F0A3F0A3F022900048E025E024E7F58252
:100A2D00E4340AF583E493FF740193900028CFF02A
:100A3D00A3EFF02290000BE0945290000AE0940096
:100A4D002290002AE0FFA3E0FEC39F22E490000F56
:0E0A5D00F0A3F022EEF0A3EFF07F0A7E00225D
:1000030090004F743CF0A3F09000477402F0E4902A
:10001300005CF0A3F0900015F0900018120A1B90FA
:10002300001D120A1BA3120A1BA3F0A3F0A3743C26
:10003300F0120A23E4A3F0A3F0900042120A1B90EB
:10004300000AF0A3F0900012F0120A5AA3F09000F5
:0F00530014F0900013F090000CF0A3F0A3F02233
:10006E0090002BE0641F600302023C7B667A0690D0
:10007E00001604F0900018E0FEA3E0FFC39BEE9A7A
:10008E004014EF94FFEE940F402D90005CE044106E
:10009E00F0900021801EE4900016F0D3900019E03D
:1000AE0094F6900018E09400500D90005CE0440827
:1000BE00F0900020740AF0900048E025E02411F53D
:1000CE0082E4340BF583E493FA740193FB900017EA
:1000DE007401F0C390001BE09B90001AE09A402040
:1000EE00E4900017F090001BE094D690001AE09474
:1000FE000F400D90005CE04440F0900023740AF035
:10010E00900027E06003120A23900048E07003027B
:10011E00022D900028E07002A3E0600C90002DE00C
:10012E00900ADF9390002AF090002DE0FF900ACD08
:10013E0093FE90002AE0C39E50030201E990002531
:10014E00E09434900024E094084006900026740158
:10015E00F0C3900025E09460900024E094094006DE
:10016E009000267402F0C3900025E0948C90002439
:10017E00E0940A40069000267403F0C3900025E038
:10018E0094B8900024E0940B40069000267404F07E
:10019E00C3900025E094E4900024E0940C40069077
:1001AE0000267405F0C3900025E09410900024E022
:1001BE00940E40069000267406F0C3900025E0943D
:1001CE0080900024E09470402C9000267407F090EC
:1001DE0000247470F0A37480F0801AE4900024F070
:1001EE00A3F0EF900ACF93FF90002AE0D39F500523
:1001FE00E4900026F0900026E0FF603290002DE0A3
:10020E0075F007A424D0F582E4340AF583E5822F35
:10021E00F582E43583F583E49390002AF0800FE4B1
:10022E00900028F0A3F0900024F0A3F0A3F090002B
:10023E00167401F0900020E0700790005CE054F717
:10024E00F0900021E0700790005CE054EFF0900019
:10025E0022E0700790005CE054DFF0900023E07025
:10026E000790005CE054BFF090002BE004F0E0D368
:10027E00941F4002E4F0900046E064017024900068
:10028E0016E06401701CA3E0B4011790000CE0B4FA
:10029E000110900012E0700A90005CE070047F0183
:0902AE0080027F00900015EFF0C2
:0102B7002224
:100D3200E490000DF0120A4E5014900015E0B40138
:100D42001043808090000D7401F0E4C39E22538012
:020D52007F22FE
:100DC200120A4E5011900015E0B4010D438080EFDD
:0A0DD20014FFEEC39F2253807F221E
:100907004380027F0E120D1090000AEEF0A3EFF065
:10091700A37401F0A3E0B40118120A59D3120A41D3
:10092700504F90005CE04402F0900014740AF0808D
:1009370040C3120A414015900010E004F070069081
:10094700000FE004F0E490000CF0800F120A5990B9
:10095700005CE054FEF0E490000EF0C3900010E05D
:10096700946890000FE0941040077410F0A3746827
:10097700F0900014E0700790005CE054FDF05380A5
:02098700FD224F
:100C4300438002E4900069F07F0D120D109000695B
:100C5300E0120A0F120A61120CE863800290006925
:100C6300E004F0E0C3940540DF5380FD120C0090D4
:0E0C73000006E0FFA3E0900018CFF0A3EFF022
:010C81002250
:10098900438002E4900069F07F0B120D109000691A
:10099900E0120A0F120A61120CE8638002900069E2
:1009A900E004F0E0C3940540DF900002E0FEA3E01C
:1009B900FF900001E02FFF900000E03EFE9000054F
:1009C900E02FFF900004E03EFE900007E02FFF902B
:1009D9000006E03EFE900009E02FFF900008E03E8F
:1009E900FE7C007D0512063690001AEEF0A3EFF0AA
:0309F9005380FD2B
:0109FC0022D8
:100C0000E4FFAE07EEC3940550321209FDE0FAA3EB
:100C1000E0FBD39DEA9C402190006AEAF0A3EBF050
:100C20001209FDECF0A3EDF090006AE0FCA3E0FDFA
:100C3000EE120A0FECF0A3EDF00E80C80FEF640582
:020C400070C082
:010C4200228F
:100CBC00A3F07460901011F09010107481F022FE6B
:100CCC00FDFCE0F8A3E0F9A3E0FAA3E0FB2290001E
:0C0CDC0063E0FCA3E0FDA3E0FEA3E02227
:0A0E440075B42075B20C43B2812290
:0C0E2200EFB4010443AA022253AAFD22EF
:0C0E2E00EFB4010443AA012253AAFE22E3
:100D8C00AD07AC06ECF5C5AF058FC475C24075C395
:0B0D9C0081E5C2F420E4FA53C2EF220C
:100D7000AC06EC901012F0A3EFF07440120CC0908F
:0C0D80001011E0F420E4F8E054EFF02241
:100DA700EF25E0FFEE33901012F0EF120CBC90101D
:0A0DB70011E0F420E4F8E054EFF03E
:010DC100220F
:0607B40090005F1206EB4D
:1007BA00E47F0290005F120CCB12068B900063124A
:1007CA0006EB120CDAC3940AFFEE940002084CE41A
:1007DA00FF900063120CCBD31206DA4077E47FFF56
:1007EA007EFFFDFC900063E0F8A3A3A3E0D312060A
:1007FA00DA40067EFF7FFF800A900063A3A3E0FE33
:10080A00A3E0FF900067EEF0A3EFF0900067E0FC32
:10081A00A3E0FDEC901012F0ED120CBC901011E068
:10082A00F420E4F8E054EFF0120CDAFFC006C00737
:10083A00A3E0FEA3E0FBAA06D007D006C3EF9BFF06
:10084A00EE9AFEED9400FDEC9400FC900063120613
:04085A00EB0207D9CD
:01085E002277
:03006B00020E0E74
:100E0E00C0E0C083C082900053E06401F0D082D075
:040E1E0083D0E0326B
:0300630002006632
:02006600003266
:100C8200900056E4F0A3743CF0900059227402F0F4
:100C9200900049E0FFF422C2B3C2A0C2B4C2B2C201
:100CA2008322E4F0900049E022900056E4F0A3741D
:0A0CB2003CF022D2B3D2A0D2B4224B
:1006F700208B4490004AE004F0E0C3943C404174EE
:100707003C120C9130E039EF4401F0900046E06470
:1007170001F0E4900056F0A3F0A3F0900046E060EB
:100727001F120003900AE5E493FF740193900051B0
:10073700CFF0A3EFF0800990004A120CA454FEF00A
:1007470020852B90004DE004F0E0C394024028126E
:100757000C8F30E322EF4408F0900046E0B4011715
:10076700900048E0C39408500EE004F08009900020
:100777004D120CA454F7F020842690004EE004F0AC
:10078700E0C394024026120C8F30E420EF4410F0AF
:10079700900046E0B40115900048E0600F14F02285
:0D07A700E490004EF0900049E054EFF02285
:1005690090004FE0600302060C743CF0900012E02A
:10057900600214F0900014E0600214F0900020E092
:10058900600214F0900021E0600214F0900022E073
:10059900600214F0900023E0600214F0900045E03E
:1005A900600214F0900055E06003E014F090002719
:1005B900E0600214F0900028E07002A3E0600E9061
:1005C9000029E024FFF0900028E034FFF090002596
:1005D900E004F07006900024E004F0900051E0700F
:1005E90002A3E0600E900052E024FFF0900051E079
:1005F90034FFF0900050E07005743CF0800B9000DF
:1006090050800390004FE014F0900055E0900051A5
:10061900E07002A3E06006900046E0700FE49000ED
:0D0629005CF0900046F0900051F0A3F0222C
:1002B800900058E0FFC3900057E09F900056E094EC
:1002C800004016900046E0B40115A3E0FF601064FA
:1002D80001600CEFB402088006900059740AF0908F
:1002E8000056E07002A3E060030203AC90005DE0FA
:1002F8006013120CAB90005DE030E006900059747A
:100308000DF002037E90005CE0FF607730E0091298
:100318000C827401F002037EEF30E109120C827442
:1003280002F002037EEF30E208120C827403F080C0
:1003380045EF30E308120C827404F08039EF30E4A2
:1003480008120C827405F0802DEF30E508120C823B
:100358007406F08021EF30E608120C827407F080F2
:1003680015EF90005630E708120C857408F08006E7
:10037800120C857409F0900056E0C313A3E013A390
:10038800F0802F120CAB900046E0B4010A900048B0
:10039800E0900059F08006900059740FF0E4900046
:1003A80058F0800E900057E024FFF0900056E0349B
:1003B800FFF0120E4E900059E0FF1203CAE4FF024C
:0203C8000E5DC8
:080E4E00120C99C2B0C2B122DE
:1003CA00EFB4100040030204999003DAF828287366
:1003DA0002040A02041002041402042102042A027A
:1003EA00042E02043802043E02044602044E0204A9
:1003FA005A02046902046E02047A0204860204693B
:10040A00120CB502048CC2B3802CD2B3D2A0C2B4EF
:10041A00D2B2D283020495120CB5D2B2C283806BD7
:10042A00C2B38022D2B3C2A0D2B4D2B2801EC2B3A7
:10043A00C2A0800CD2B3D2A0D2B4801AD2B3D2A0B6
:10044A00D2B48026D2B3D2A0D2B4C2B2C283802799
:10045A00C2B3C2A0C2B4C2B2C283C2B0C2B1221273
:10046A000C998027D2B3C2A0C2B4D2B2D283800779
:10047A00120CB5C2B2D283D2B0D2B122D2B3C2A0C8
:10048A00C2B4D2B2D283D2B0C2B122C2B0D2B122E5
:060E5D00900069EFF02295
:10085F0053A87F120E567D0FE4FF120D54120BB8E2
:10086F0043A880120A6B120003120DF6E59830E3CD
:10087F00FB90002BE0B41F0543800180035380FEE3
:10088F0090000EE0B401034398027F787E05120CAE
:10089F00E87F787E05120CE87FD07E07120CE853B4
:1008AF0098FD12049A1209077F847E03120CE81236
:1008BF000C43120B231205691206F77FF47E011207
:1008CF000CE8120DC2E59820E3FB1202B87FE87E18
:1008DF0003120CE87FDC7E05120CE8120B6F7FE829
:1008EF007E03120CE812098912006E7FE87E031254
:0808FF000CE8120D3202087B27
:100A6B00E4900046F0900054F0A37414F0E490006E
:100A7B0049F0A3F0A3F0900056F0A3F0A3F0900080
:100A8B00487404F0E4900047F090005EF090005B37
:100A9B00F0900059740AF0E490005CF0A3F0900021
:100AAB004004F0A3742CF0E490002DF090003BF088
:100ABB0090002CF0900015F053807F5380FD5380F5
:020ACB00FE2209
:100DF6007F1EE4900069F0E59830E3FBE59820E378
:070E0600FBEF60031F80F009
:010E0D0022C2
:03000000020DDC12
:100DDC0078FFE4F6D8FD9000007F007E09E4F0A3D4
:0A0DEC00DFFCDEFA75810702085FE4
:10063600BC000BBE0029EF8DF084FFADF022E4CCA8
:10064600F875F008EF2FFFEE33FEEC33FCEE9DEC71
:10065600984005FCEE9DFE0FD5F0E9E4CEFD22EDB7
:10066600F8F5F0EE8420D21CFEADF075F008EF2F01
:10067600FFED33FD4007985006D5F0F222C398FDF2
:050686000FD5F0EA228F
:10068B00E88FF0A4CC8BF0A42CFCE98EF0A42CFC0E
:10069B008AF0EDA42CFCEA8EF0A4CDA8F08BF0A48C
:1006AB002DCC3825F0FDE98FF0A42CCD35F0FCEBEB
:1006BB008EF0A4FEA9F0EB8FF0A4CFC5F02ECD39B0
:0F06CB00FEE43CFCEAA42DCE35F0FDE43CFC221D
:1006DA00EB9FF5F0EA9E42F0E99D42F0E89C45F076
:0106EA0022ED
:0C06EB00ECF0A3EDF0A3EEF0A3EFF02282
:00000001FF
