:100B9E00438002E4FF120D8C90003DEEF0A3EFF0C7
:100BAE00A3E07002A3E06026900040E024FFF090E6
:100BBE00003FE034FFF0C390003EE0946690003DAD
:100BCE00E0940690005CE040094401F0800790003C
:090BDE005CE054FEF05380FD229E
:1003D3004380027F0F120D8C900039E0FD04F0ED95
:1003E30025E0242DF582E43400F583EEF0A3EFF04D
:1003F300900039E0C394054049E4F090002FE0FEFB
:10040300A3E0FF90002EE02FFF90002DE03EFE9032
:100413000032E02FFF900031E03EFE900034E02FE9
:10042300FF900033E03EFE900036E02FFF90003552
:10043300E03EFE7C007D05120646900037EEF0A3F9
:10044300EFF0900037E0FEA3E0FFC3945EEE940A62
:10045300400C90002C7401F090003AF0802CC3EF14
:10046300946EEE9406400990002C7401F0E4800E23
:10047300C3EF945EEE94065011E490002CF09000CC
:100483003AF0A37403F0A37484F090003BE070028D
:10049300A3E0600E90003CE024FFF090003BE034CA
:0604A300FFF05380FD2272
:100B52004380029000417406F0A37466F0D394AE11
:100B620074069403501CA3E004F0E0C3940A4017F7
:100B7200740AF090005BE04480F0900044740AF044
:100B82008005E4900043F0900044E0600414F0809B
:0C0B92000790005BE0547FF05380FD22D0
:070E960075C820E4F58A2273
:100DAE00EDC3940F40027D0FEFB40106ED25E0F583
:0C0DBE00D822AF05EF25E04401F5D82253
:100BE70075A18BE4F5ACF591F5DEF580F5D375D2FB
:100BF70020F5B1F5ADF592F588F5D575D40275B93F
:100C0700C4F5AEF593F59075D60A75C102F5AFF543
:100C170098F5EE75C901F5A3F594F5A0F5EF75D133
:080C27001FF595F5B0F5FF2261
:100D8C00759D07EF4480F59C439C4000E59CF42046
:100D9C00E4FAE59F540FFEAD9E7C00E42DFFEC3E83
:020DAC00FE2225
:100D4100AC06EC901012F0A3EFF09010107401F0CB
:100D5100A37464F0901010E04480F0901011E0F45E
:080D610020E4F8E054EFF02259
:0A0E7A00EF1F70011E144E70F722E6
:100AFC00190715061F1D1B191715110808070706DE
:100B0C0006031F09038404B005DC0000003C0078D8
:100B1C0000B400F0012C0168016801680005090DA2
:100B2C001115191D1F0002030405060708090666A6
:100B3C00070A070A0FFF019A042905C2075C08F58A
:060B4C000A8F0C280CCCFE
:10099C00EE25E02400F582E43400F583E0FCA3E0CE
:1009AC00FDEF25E02400F582E43400F58322F0A36A
:1009BC00F0A3F0A3F022900047E025E02416F58286
:1009CC00E4340BF583E493FF740193900027CFF08C
:1009DC00A3EFF022F583E5822FF582E43583F583CE
:1009EC00E493900029F022900023E09401229000DF
:1009FC000BE0943390000AE0940322900029E0FF6E
:100A0C00A3E0FEC39F22900023E0940222EEF0A309
:070A1C00EFF07F0A7E0022CB
:1000030090004E743CF0A3F09000467402F0E4902C
:10001300005BF0A3F0900014F09000171209BA905F
:10002300001C1209BAA31209BAA3F0A3F0A3743CEB
:10003300F01209C2E4A3F0A3F09000411209BA90B0
:10004300000AF0A3F0900011F090000EF0A3F0A3CB
:10005300F0900013F0900012F090000CF0A3F02247
:10006E0090002AE0641F600302023E900047E0FF0A
:10007E0090002CE0F975F009A42428F582E4340BE5
:10008E001209E090003AE025E0243AF582E4340BC0
:10009E00F583E493FE740193FBAA06900015740198
:1000AE00F0900017E0FEA3E0FFC39BEE9A4014EF22
:1000BE0094FFEE940F402D90005BE04410F0900002
:1000CE0020801EE4900015F0D3900018E094F69076
:1000DE000017E09400500D90005BE04408F0900093
:1000EE001F740AF0900047E025E02440F582E434C6
:1000FE000BF583E493FA740193FB9000167401F0F0
:10010E00C390001AE09B900019E09A4020E4900002
:10011E0016F090001AE094D6900019E0940F400D5E
:10012E0090005BE04440F0900022740AF0900026AC
:10013E00E060031209C2900047E0700302022F90A4
:10014E000027E07002A3E06009E9900B0E93900087
:10015E0029F0E9900AFC93FF900029E0C39F500319
:10016E000201FA900024E0942C1209F3400690004C
:10017E00257401F0C3900024E094681209F3400640
:10018E009000257402F0C3900024E094A41209F3A9
:10019E0040069000257403F0C3900024E094E01212
:1001AE0009F340069000257404F0C3900024E094F7
:1001BE001C120A1240069000257405F0C39000240C
:1001CE00E09458120A1240069000257406F0C3906F
:1001DE000024E09494120A12402C9000257407F02B
:1001EE009000237402F0A37494F0801AE49000231C
:1001FE00F0A3F0E9900AFE93FF900029E0D39F5000
:10020E0005E4900025F0900025E0FF602390002C7F
:10021E00E075F007A424FFF582E4340A1209E080A9
:10022E000FE4900027F0A3F0900023F0A3F0A3F0CA
:10023E009000167401F0E4900021F0A3F090001FDE
:10024E00E0700790005BE054F7F0900020E070073C
:10025E0090005BE054EFF0900021E0700790005B9F
:10026E00E054DFF0900022E0700790005BE054BF96
:10027E00F090002AE004F0E0D3941F4002E4F090E6
:10028E000045E064017024900015E06401701CA329
:10029E00E0B4011790000CE0B40110900011E07072
:1002AE000A90005BE070047F0180027F00900014D2
:0202BE00EFF05F
:0102C000221B
:100D1700E490000DF0120A075019900014E0B40196
:100D270018438080E4C39E501043980290000D74CE
:0A0D370001F02253807F5398FD2243
:100D6900120A075017900014E0640170154380803F
:100D7900EF14FFEEC39F50074398022253807F531D
:030D890098FD22B0
:100909004380027F0E120D8C90000AEEF0A3EFF0E7
:10091900A37401F0A3E0B4011AE4A3F0A3F0D31285
:1009290009FA505E90005BE04402F0900013740AEB
:10093900F0804FC31209FA401E90000FE004F070D6
:100949000690000EE004F0E490000CF0900011E035
:100959007013743CF0800EE490000EF0A3F0900048
:100969005BE054FEF0C390000FE0946890000EE045
:100979009410400E7410F0A37468F090005BE0448A
:1009890001F0900013E0700790005BE054FDF05314
:0309990080FD22BC
:100C7200438002E4900068F07F0D120D8C900068B2
:100C8200E01209AE120A19120D4163800290006847
:100C9200E004F0E0C3940540DF5380FD120C2F9076
:0E0CA2000006E0FFA3E0900017CFF0A3EFF0F4
:010CB0002221
:100A2300438002E4900068F07F0B120D8C90006805
:100A3300E01209AE120A19120D4163800290006898
:100A4300E004F0E0C3940540DF900002E0FEA3E081
:100A5300FF900001E02FFF900000E03EFE900005B4
:100A6300E02FFF900004E03EFE900007E02FFF9090
:100A73000006E03EFE900009E02FFF900008E03EF4
:100A8300FE7C007D05120646900019EEF0A3EFF000
:030A93005380FD90
:010A9600223D
:100C2F00E4FFAE07EEC39405503212099CE0FAA31D
:100C3F00E0FBD39DEA9C4021900069EAF0A3EBF022
:100C4F0012099CECF0A3EDF0900069E0FCA3E0FD2D
:100C5F00EE1209AEECF0A3EDF00E80C80FEF6405B5
:020C6F0070C053
:010C71002260
:100CEB00A3F07460901011F09010107481F022FE3C
:100CFB00FDFCE0F8A3E0F9A3E0FAA3E0FB229000EF
:0C0D0B0062E0FCA3E0FDA3E0FEA3E022F8
:0A0E840075B42075B20C43B2812250
:0C0E6200EFB4010443AA022253AAFD22AF
:0C0E6E00EFB4010443AA012253AAFE22A3
:100DE600AD07AC06ECF5C5AF058FC475C24075C33B
:0B0DF60081E5C2F420E4FA53C2EF22B2
:100DCA00AC06EC901012F0A3EFF07440120CEF9006
:0C0DDA001011E0F420E4F8E054EFF022E7
:100E0100EF25E0FFEE33901012F0EF120CEB901093
:0A0E110011E0F420E4F8E054EFF0E3
:010E1B0022B4
:0607C40090005E1206FB2E
:1007CA00E47F0290005E120CFA12069B90006212FD
:1007DA0006FB120D09C3940AFFEE940002085CE4BA
:1007EA00FF900062120CFAD31206EA4077E47FFF08
:1007FA007EFFFDFC900062E0F8A3A3A3E0D31206FB
:10080A00EA40067EFF7FFF800A900062A3A3E0FE13
:10081A00A3E0FF900066EEF0A3EFF0900066E0FC24
:10082A00A3E0FDEC901012F0ED120CEB901011E029
:10083A00F420E4F8E054EFF0120D09FFC006C007F7
:10084A00A3E0FEA3E0FBAA06D007D006C3EF9BFFF6
:10085A00EE9AFEED9400FDEC9400FC900062120604
:04086A00FB0207E99D
:01086E002267
:03006B00020E4E34
:100E4E00C0E0C083C082900052E06401F0D082D036
:040E5E0083D0E0322B
:0300630002006632
:02006600003266
:100CB100900055E4F0A3743CF0900058227402F0C7
:100CC100900048E0FFF422C2B3C2A0C2B4C2B2C2D3
:100CD1008322E4F0900048E022900055E4F0A374F0
:0A0CE1003CF022D2B3D2A0D2B4221C
:10070700208B44900049E004F0E0C3943C404174DE
:100717003C120CC030E039EF4401F0900045E06432
:1007270001F0E4900055F0A3F0A3F0900045E060DD
:100737001F120003900B14E493FF74019390005071
:10074700CFF0A3EFF08009900049120CD354FEF0CC
:1007570020852B90004CE004F0E0C394024028125F
:100767000CBE30E322EF4408F0900045E0B40117D7
:10077700900047E0C39408500EE004F08009900011
:100787004C120CD354F7F020842690004DE004F06F
:10079700E0C394024026120CBE30E420EF4410F070
:1007A700900045E0B40115900047E0600F14F02277
:0D07B700E490004DF0900048E054EFF02277
:1005790090004EE0600302061C743CF0900011E00C
:10058900600214F0900013E0600214F090001FE084
:10059900600214F0900020E0600214F0900021E065
:1005A900600214F0900022E0600214F0900044E030
:1005B900600214F0900054E06003E014F09000260B
:1005C900E0600214F0900027E07002A3E0600E9052
:1005D9000028E024FFF0900027E034FFF090002489
:1005E900E004F07006900023E004F0900050E07001
:1005F90002A3E0600E900051E024FFF0900050E06B
:1006090034FFF090004FE07005743CF0800B9000CF
:100619004F800390004EE014F0900054E090005099
:10062900E07002A3E06006900045E0700FE49000DE
:0D0639005BF0900045F0900050F0A3F0221F
:1002C100900057E0FFC3900056E09F900055E094E6
:1002D100004016900045E0B40115A3E0FF601064F2
:1002E10001600CEFB402088006900058740AF09087
:1002F1000055E07002A3E060030203B590005CE0EA
:100301006013120CDA90005CE030E0069000587443
:100311000DF002038790005BE0FF607730E0091287
:100321000CB17401F0020387EF30E109120CB174D2
:1003310002F0020387EF30E208120CB17403F0807F
:1003410045EF30E308120CB17404F08039EF30E46A
:1003510008120CB17405F0802DEF30E508120CB1D4
:100361007406F08021EF30E608120CB17407F080BA
:1003710015EF90005530E708120CB47408F08006B0
:10038100120CB47409F0900055E0C313A3E013A359
:10039100F0802F120CDA900045E0B4010A9000477A
:1003A100E0900058F08006900058740FF0E490003F
:1003B10057F0800E900056E024FFF0900055E03495
:1003C100FFF0120E8E900058E0FF1204A9E4FF0224
:0203D1000E9D7F
:080E8E00120CC8C2B0C2B1226F
:1004A900EFB4100040030205789004B9F8282873C6
:1004B9000204E90204EF0204F3020500020509023D
:1004C900050D02051702051D02052502052D020568
:1004D9003902054802054D0205590205650205481C
:1004E900120CE402056BC2B3802CD2B3D2A0C2B401
:1004F900D2B2D283020574120CE4D2B2C283806BE9
:10050900C2B38022D2B3C2A0D2B4D2B2801EC2B3C7
:10051900C2A0800CD2B3D2A0D2B4801AD2B3D2A0D6
:10052900D2B48026D2B3D2A0D2B4C2B2C2838027B9
:10053900C2B3C2A0C2B4C2B2C283C2B0C2B1221293
:100549000CC88027D2B3C2A0C2B4D2B2D28380076A
:10055900120CE4C2B2D283D2B0D2B122D2B3C2A0B9
:10056900C2B4D2B2D283D2B0C2B122C2B0D2B12205
:060E9D00900068EFF02256
:10086F0053A87F120E967D0FE4FF120DAE120BE709
:10087F0043A880120A97120003120E36E59830E350
:10088F00FB90002AE0B41F0543800180035380FED4
:10089F007F787E05120D417F787E05120D417FD046
:1008AF007E07120D411203D31209097F847E0312B2
:1008BF000D41120C72120B521205791207077FF4B9
:1008CF007E01120D41120D69E59820E3FB1202C162
:1008DF007FE87E03120D417FDC7E05120D41120B66
:1008EF009E7FE87E03120D41120A2312006E7FE8ED
:0A08FF007E03120D41120D178082D6
:100A9700E4900045F0900053F0A37414F0E4900044
:100AA70048F0A3F0A3F0900055F0A3F0A3F0900056
:100AB700477404F0E4900046F090005DF090005A0F
:100AC700F0900058740AF0E490005BF0A3F09000F7
:100AD7003F04F0A3742CF0E490002CF090003AF05F
:100AE70090002BF0900014F05398FD53807F5380B3
:050AF700FD5380FE220A
:100E36007F1EE4900068F0E59830E3FBE59820E338
:070E4600FBEF60031F80F0C9
:010E4D002282
:03000000020E1CD1
:100E1C0078FFE4F6D8FD9000007F007E09E4F0A393
:0A0E2C00DFFCDEFA75810702086F93
:10064600BC000BBE0029EF8DF084FFADF022E4CC98
:10065600F875F008EF2FFFEE33FEEC33FCEE9DEC61
:10066600984005FCEE9DFE0FD5F0E9E4CEFD22EDA7
:10067600F8F5F0EE8420D21CFEADF075F008EF2FF1
:10068600FFED33FD4007985006D5F0F222C398FDE2
:050696000FD5F0EA227F
:10069B00E88FF0A4CC8BF0A42CFCE98EF0A42CFCFE
:1006AB008AF0EDA42CFCEA8EF0A4CDA8F08BF0A47C
:1006BB002DCC3825F0FDE98FF0A42CCD35F0FCEBDB
:1006CB008EF0A4FEA9F0EB8FF0A4CFC5F02ECD39A0
:0F06DB00FEE43CFCEAA42DCE35F0FDE43CFC220D
:1006EA00EB9FF5F0EA9E42F0E99D42F0E89C45F066
:0106FA0022DD
:0C06FB00ECF0A3EDF0A3EEF0A3EFF02272
:00000001FF
