:100BE100438002E4FF120DCF900058EEF0A3EFF026
:100BF100A3E07002A3E0602690005BE024FFF09088
:100C0100005AE034FFF0C3900059E0946690005818
:100C1100E09406900044E040094401F08007900010
:090C210044E054FEF05380FD2272
:1004D9004380027F0F120DCF900054E0FD04F0ED30
:1004E90025E02448F582E43400F583EEF0A3EFF02B
:1004F900900054E0C394054049E4F090004AE0FEBE
:10050900A3E0FF900049E02FFF900048E03EFE90F5
:10051900004DE02FFF90004CE03EFE90004FE02F91
:10052900FF90004EE03EFE900051E02FFF900050FA
:10053900E03EFE7C007D0512074D900052EEF0A3CF
:10054900EFF0900052E0FEA3E0FFC3945EEE940A40
:10055900400C9000477401F0900055F0802CC3EFD7
:10056900946EEE940640099000477401F0E4800E01
:10057900C3EF945EEE94065011E4900047F09000AA
:1005890055F0A37403F0A37484F0900056E0700250
:10059900A3E0600E900057E024FFF0900056E0348D
:0605A900FFF05380FD226B
:100B950043800290005C7406F0A37466F0D394AEB3
:100BA50074069403501CA3E004F0E0C3940A4017B4
:100BB500740AF0900043E04480F090005F740AF0FE
:100BC5008005E490005EF090005FE0600414F08022
:0C0BD50007900043E0547FF05380FD22A5
:070ED90075C820E4F58A2230
:100DF100EDC3940F40027D0FEFB40106ED25E0F540
:0C0E0100D822AF05EF25E04401F5D8220F
:100C2A0075A18BE4F5ACF591F5DEF580F5D375D2B7
:100C3A0020F5B1F5ADF592F588F5D575D40275B9FB
:100C4A00C4F5AEF593F59075D60A75C102F5AFF500
:100C5A0098F5EE75C901F5A3F594F5A0F5EF75D1F0
:080C6A001FF595F5B0F5FF221E
:100DCF00759D07EF4480F59C439C4000E59CF42003
:100DDF00E4FAE59F540FFEAD9E7C00E42DFFEC3E40
:020DEF00FE22E2
:100D8400AC06EC901012F0A3EFF09010107401F088
:100D9400A37464F0901010E04480F0901011E0F41B
:080DA40020E4F8E054EFF02216
:0A0EBD00EF1F70011E144E70F722A3
:100B3D00190715061F1D1B1917151108080707069C
:100B4D0006031F0938407080A8C01518000000F07A
:100B5D00021C0348047405A006CC06CC06CC000587
:100B6D00090D1115191D1F000203040506070809BB
:100B7D000666070A070A0FFF019A042905C2075CDA
:080B8D0008F50A8F0C280CCCBE
:1009E600EE25E02400F582E43400F583E0FCA3E084
:1009F600FDEF25E02400F582E43400F58322F0A320
:100A0600F0A3F0A3F02290002DE025E02459F58212
:100A1600E4340BF583E493FF740193900027CFF041
:100A2600A3EFF022F582E43583F583E49390002961
:100A3600F02290000BE0943390000AE09403229099
:100A46000029E0FFA3E0FEC39F22F583E493FA7436
:0E0A56000193FB22EEF0A3EFF07F0A7E002258
:10000300900034743CF0A3F090002C7402F0E49060
:100013000043F0A3F0900014F0900017120A04902C
:10002300001C120A04A3120A04A3F0A3F0A3743C55
:10003300F0120A0CE4A3F0A3F090005C120A0490FF
:10004300000AF0A3F0900011F090000EF0A3F0A3CB
:10005300F0900013F0900012F090000CF0A3F02247
:10006E0090002AE0641F600302025F90002DE0FD05
:10007E00900047E0F975F009A4246BF582E4340B87
:10008E00F583E5822D120A2A900038E07002A3E073
:10009E0060067A017BEB8010900055E025E0247D10
:1000AE00F582E4340B120A509000157401F09000A2
:1000BE0017E0FCA3E0FDC39BEC9A4014ED94FFEC1B
:1000CE00940F402D900043E04410F0900020801ECD
:1000DE00E4900015F0D3900018E094F6900017E02D
:1000EE009400500D900043E04408F090001F740AF5
:1000FE00F090002DE025E02483F582E4340B120A03
:10010E00509000167401F0C390001AE09B900019F5
:10011E00E09A4020E4900016F090001AE094D690F9
:10012E000019E0940F400D900043E04440F0900021
:10013E0022740AF0900026E06003120A0C90002D43
:10014E00E07003020250900027E07002A3E0600905
:10015E00E9900B4F93900029F0E9900B3D93FF909F
:10016E000029E0C39F5003020216900024E094344D
:10017E00900023E0940840069000257401F0C3908F
:10018E000024E09460900023E0940940069000253E
:10019E007402F0C3900024E0948C900023E0940A43
:1001AE0040069000257403F0C3900024E094B890AC
:1001BE000023E0940B40069000257404F0C39000D9
:1001CE0024E094E4900023E0940C40069000257403
:1001DE0005F0C3900024E09410900023E0940E40AC
:1001EE00069000257406F0C3900024E094809000E1
:1001FE0023E09470402C9000257407F09000237437
:10020E0070F0A37480F0801AE4900023F0A3F0E95C
:10021E00900B3F93FF900029E0D39F5005E4900090
:10022E0025F0900025E0FF6028900047E075F0076C
:10023E00A42440F582E4340BF583E5822F120A2ABA
:10024E00800FE4900027F0A3F0900023F0A3F0A31A
:10025E00F09000167401F0E4900021F0A3F09000ED
:10026E001FE07007900043E054F7F0900020E0701C
:10027E0007900043E054EFF0900021E070079000EB
:10028E0043E054DFF0900022E07007900043E0540A
:10029E00BFF090002AE004F0E0D3941F4002E4F097
:1002AE0090002BE064017024900015E06401701C36
:1002BE00A3E0B4011790000CE0B40110900011E01F
:1002CE00700A900043E070047F0180027F0090006E
:0302DE0014EFF02A
:0102E10022FA
:100D5A00E490000DF0120A455019900014E0B40115
:100D6A0018438080E4C39E501043980290000D748B
:0A0D7A0001F02253807F5398FD2200
:100DAC00120A455017900014E064017015438080BE
:100DBC00EF14FFEEC39F50074398022253807F53DA
:030DCC0098FD226D
:100953004380027F0E120DCF90000AEEF0A3EFF05A
:10096300A37401F0A3E0B4011AE4A3F0A3F0D3123B
:100973000A38505E900043E04402F0900013740A7A
:10098300F0804FC3120A38401E90000FE004F0704D
:100993000690000EE004F0E490000CF0900011E0EB
:1009A3007013743CF0800EE490000EF0A3F09000FE
:1009B30043E054FEF0C390000FE0946890000EE013
:1009C3009410400E7410F0A37468F0900043E04458
:1009D30001F0900013E07007900043E054FDF053E2
:0309E30080FD2272
:100CB500438002E490006AF07F0D120DCF90006A28
:100CC500E01209F8120A5A120D8463800290006A34
:100CD500E004F0E0C3940540DF5380FD120C7290F0
:0E0CE5000006E0FFA3E0900017CFF0A3EFF0B1
:010CF30022DE
:100A6400438002E490006AF07F0B120DCF90006A7D
:100A7400E01209F8120A5A120D8463800290006A87
:100A8400E004F0E0C3940540DF900002E0FEA3E040
:100A9400FF900001E02FFF900000E03EFE90000573
:100AA400E02FFF900004E03EFE900007E02FFF904F
:100AB4000006E03EFE900009E02FFF900008E03EB3
:100AC400FE7C007D0512074D900019EEF0A3EFF0B7
:030AD4005380FD4F
:010AD70022FC
:100C7200E4FFAE07EEC3940550321209E6E0FAA390
:100C8200E0FBD39DEA9C402190006BEAF0A3EBF0DD
:100C92001209E6ECF0A3EDF090006BE0FCA3E0FD9E
:100CA200EE1209F8ECF0A3EDF00E80C80FEF640528
:020CB20070C010
:010CB400221D
:100D2E00A3F07460901011F09010107481F022FEF8
:100D3E00FDFCE0F8A3E0F9A3E0FAA3E0FB229000AB
:0C0D4E0064E0FCA3E0FDA3E0FEA3E022B3
:0A0EC70075B42075B20C43B281220D
:0C0EA500EFB4010443AA022253AAFD226C
:0C0EB100EFB4010443AA012253AAFE2260
:100E2900AD07AC06ECF5C5AF058FC475C24075C3F7
:0B0E390081E5C2F420E4FA53C2EF226E
:100E0D00AC06EC901012F0A3EFF07440120D32907E
:0C0E1D001011E0F420E4F8E054EFF022A3
:100E4400EF25E0FFEE33901012F0EF120D2E90100C
:0A0E540011E0F420E4F8E054EFF0A0
:010E5E002271
:06080E00900060120802D8
:10081400E47F02900060120D3D1207A29000641262
:100824000802120D4CC3940AFFEE94000208A6E4D9
:10083400FF900064120D3DD31207F14077E47FFF6F
:100844007EFFFDFC900064E0F8A3A3A3E0D31207AD
:10085400F140067EFF7FFF800A900064A3A3E0FEC0
:10086400A3E0FF900068EEF0A3EFF0900068E0FCD6
:10087400A3E0FDEC901012F0ED120D2E901011E09B
:10088400F420E4F8E054EFF0120D4CFFC006C0076A
:10089400A3E0FEA3E0FBAA06D007D006C3EF9BFFAC
:1008A400EE9AFEED9400FDEC9400FC9000641208B6
:0408B4000202083301
:0108B800221D
:03006B00020E91F1
:100E9100C0E0C083C08290003AE06401F0D082D00B
:040EA10083D0E032E8
:0300630002006632
:02006600003266
:100CF40090003DE4F0A3743CF0900040227402F0B4
:100D040090002EE0FFF422C2B3C2A0C2B4C2B2C2A9
:100D14008322E4F090002EE02290003DE4F0A374DE
:0A0D24003CF022D2B3D2A0D2B422D8
:10067F00208B5590002FE004F0E0C3943C4052745F
:10068F003C120D0330E04AEF4401F090002BE06480
:10069F0001F0E490003DF0A3F0A3F090002BE06098
:1006AF0030120003900B55E493FF740193900036C2
:1006BF00CFF0A3EFF0900B57E493FF7401939000EA
:1006CF0038CFF0A3EFF0800990002F120D1654FED3
:1006DF00F020852B900032E004F0E0C39402402814
:1006EF00120D0130E322EF4408F090002BE0B4012B
:1006FF001790002DE0C39408500EE004F08009908D
:10070F000032120D1654F7F0208426900033E004C7
:10071F00F0E0C394024026120D0130E420EF4410A4
:10072F00F090002BE0B4011590002DE0600F14F055
:0E073F0022E4900033F090002EE054EFF02200
:1003F400900034E060030204AF743CF0900011E01C
:10040400600214F0900013E0600214F090001FE00A
:10041400600214F0900020E0600214F0900021E0EB
:10042400600214F0900022E0600214F090005FE09B
:10043400600214F090003CE06003E014F0900026A9
:10044400E0600214F0900027E07002A3E0600E90D8
:100454000028E024FFF0900027E034FFF09000240F
:10046400E004F07006900023E004F0900036E070A1
:1004740002A3E0600E900037E024FFF0900036E025
:1004840034FFF0900038E07002A3E0600E90003971
:10049400E024FFF0900038E034FFF0900035E07085
:1004A40005743CF0800B9000358003900034E01418
:1004B400F090003CE0900036E07002A3E06006900B
:1004C400002BE0700FE4900043F090002BF09000BC
:0504D40036F0A3F02248
:1002E20090003FE0FFC390003EE09F90003DE0940D
:1002F20000401690002BE0B40115A3E0FF601064EB
:1003020001600CEFB402088006900040740AF0907D
:10031200003DE07002A3E060030203D6900044E0D7
:100322006013120D1D900044E030E006900040740E
:100332000DF00203A8900043E0FF607730E009125D
:100342000CF47401F00203A8EF30E109120CF4740A
:1003520002F00203A8EF30E208120CF47403F080FA
:1003620045EF30E308120CF47404F08039EF30E406
:1003720008120CF47405F0802DEF30E508120CF42D
:100382007406F08021EF30E608120CF47407F08056
:1003920015EF90003D30E708120CF77408F0800664
:1003A200120CF77409F090003DE0C313A3E013A30D
:1003B200F0802F120D1D90002BE0B4010A90002D49
:1003C200E0900040F08006900040740FF0E490004E
:1003D2003FF0800E90003EE024FFF090003DE034BC
:1003E200FFF0120ED1900040E0FF1205AFE4FF02D1
:0203F2000EE01B
:080ED100120D0BC2B0C2B122E8
:1005AF00EFB41000400302067E9005BFF8282873B1
:1005BF000205EF0205F50205F902060602060F0213
:1005CF00061302061D02062302062B02063302063D
:1005DF003F02064E02065302065F02066B02064EEC
:1005EF00120D27020671C2B3802CD2B3D2A0C2B4AF
:1005FF00D2B2D28302067A120D27D2B2C283806B97
:10060F00C2B38022D2B3C2A0D2B4D2B2801EC2B3C0
:10061F00C2A0800CD2B3D2A0D2B4801AD2B3D2A0CF
:10062F00D2B48026D2B3D2A0D2B4C2B2C2838027B2
:10063F00C2B3C2A0C2B4C2B2C283C2B0C2B122128C
:10064F000D0B8027D2B3C2A0C2B4D2B2D28380071F
:10065F00120D27C2B2D283D2B0D2B122D2B3C2A06E
:10066F00C2B4D2B2D283D2B0C2B122C2B0D2B122FE
:060EE00090006AEFF02211
:1008B90053A87F120ED97D0FE4FF120DF1120C2AF5
:1008C90043A880120AD8120003120E79E59830E382
:1008D900FB90002AE0B41F0543800180035380FE8A
:1008E9007F787E05120D847F787E05120D847FD076
:1008F9007E07120D841204D91209537F847E0312D4
:100909000D84120CB5120B951203F412067F7FF4B5
:100919007E01120D84120DACE59820E3FB1202E270
:100929007FE87E03120D847FDC7E05120D84120B95
:10093900E17FE87E03120D84120A6412006E7FE8DB
:0A0949007E03120D84120D5A808205
:100AD800E490002BF090003BF0A37414F0E4900035
:100AE8002EF0A3F0A3F090003DF0A3F0A3F0900047
:100AF8002D7404F0E490002CF0900045F090004232
:100B0800F0900040740AF0E4900043F0A3F09000E5
:100B18005A04F0A3742CF0E4900047F0900055F0CC
:100B2800900046F0900014F05398FD53807F538056
:050B3800FD5380FE22C8
:100E79007F1EE490006AF0E59830E3FBE59820E3F3
:070E8900FBEF60031F80F086
:010E9000223F
:03000000020E5F8E
:100E5F0078FFE4F6D8FD9000007F007E09E4F0A350
:0A0E6F00DFFCDEFA7581070208B906
:10074D00BC000BBE0029EF8DF084FFADF022E4CC90
:10075D00F875F008EF2FFFEE33FEEC33FCEE9DEC59
:10076D00984005FCEE9DFE0FD5F0E9E4CEFD22ED9F
:10077D00F8F5F0EE8420D21CFEADF075F008EF2FE9
:10078D00FFED33FD4007985006D5F0F222C398FDDA
:05079D000FD5F0EA2277
:1007A200E88FF0A4CC8BF0A42CFCE98EF0A42CFCF6
:1007B2008AF0EDA42CFCEA8EF0A4CDA8F08BF0A474
:1007C2002DCC3825F0FDE98FF0A42CCD35F0FCEBD3
:1007D2008EF0A4FEA9F0EB8FF0A4CFC5F02ECD3998
:0F07E200FEE43CFCEAA42DCE35F0FDE43CFC2205
:1007F100EB9FF5F0EA9E42F0E99D42F0E89C45F05E
:0108010022D4
:0C080200ECF0A3EDF0A3EEF0A3EFF02269
:00000001FF
