:100B9600438002E4FF120D8490003DEEF0A3EFF0D7
:100BA600A3E07002A3E06026900040E024FFF090EE
:100BB600003FE034FFF0C390003EE0946690003DB5
:100BC600E0940690005CE040094401F08007900044
:090BD6005CE054FEF05380FD22A6
:1004B7004380027F0F120D84900039E0FD04F0EDB8
:1004C70025E0242DF582E43400F583EEF0A3EFF068
:1004D700900039E0C394054049E4F090002FE0FE16
:1004E700A3E0FF90002EE02FFF90002DE03EFE904E
:1004F7000032E02FFF900031E03EFE900034E02F05
:10050700FF900033E03EFE900036E02FFF9000356D
:10051700E03EFE7C007D0512064C900037EEF0A30E
:10052700EFF0900037E0FEA3E0FFC3945EEE940A7D
:10053700400CE490002CF090003A04F08025C3EFC3
:10054700946EEE940640028009C3EF945EEE940623
:100557005011E490002CF090003AF0A37403F0A33C
:100567007484F090003BE07002A3E0600E90003CC2
:0F057700E024FFF090003BE034FFF05380FD22C2
:100B4A004380029000417406F0A37466F0D394AE19
:100B5A0074069403501CA3E004F0E0C3940A4017FF
:100B6A00740AF090005BE04480F0900044740AF04C
:100B7A008005E4900043F0900044E0600414F080A3
:0C0B8A000790005BE0547FF05380FD22D8
:070E8E0075C820E4F58A227B
:100DA600EDC3940F40027D0FEFB40106ED25E0F58B
:0C0DB600D822AF05EF25E04401F5D8225B
:100BDF0075A18BE4F5ACF591F5DEF580F5D375D203
:100BEF0020F5B1F5ADF592F588F5D575D40275B947
:100BFF00C4F5AEF593F59075D60A75C102F5AFF54C
:100C0F0098F5EE75C901F5A3F594F5A0F5EF75D13B
:080C1F001FF595F5B0F5FF2269
:100D8400759D07EF4480F59C439C4000E59CF4204E
:100D9400E4FAE59F540FFEAD9E7C00E42DFFEC3E8B
:020DA400FE222D
:100D3900AC06EC901012F0A3EFF09010107401F0D3
:100D4900A37464F0901010E04480F0901011E0F466
:080D590020E4F8E054EFF02261
:0A0E7200EF1F70011E144E70F722EE
:100AF400190715061F1D1B191715110808070706E6
:100B040006031F0938407080A8C0000000F0021CD2
:100B14000348047405A006CC06CC06CC0005090DD8
:100B24001115191D1F0002030405060708090666AE
:100B3400070A070A0FFF019A042905C2075C08F592
:060B44000A8F0C280CCC06
:1009A200EE25E02400F582E43400F583E0FCA3E0C8
:1009B200FDEF25E02400F582E43400F58322F0A364
:1009C200F0A3F0A3F022900047E025E0240EF58288
:1009D200E4340BF583E493FF740193900027CFF086
:1009E200A3EFF022F583E5822FF582E43583F583C8
:1009F200E493900029F02290000BE0943390000AD7
:100A0200E0940322900029E0FFA3E0FEC39F22EEC0
:090A1200F0A3EFF07F0A7E002240
:1000030090004E743CF0A3F09000467402F0E4902C
:10001300005BF0A3F0900014F09000171209C09059
:10002300001C1209C0A31209C0A3F0A3F0A3743CDF
:10003300F01209C8E4A3F0A3F09000411209C090A4
:10004300000AF0A3F0900011F090000EF0A3F0A3CB
:10005300F0900013F0900012F090000CF0A3F02247
:10006E0090002AE0641F6003020252900047E0FFF6
:10007E0090002CE0F975F009A42420F582E4340BED
:10008E001209E690003AE025E02432F582E4340BC2
:10009E00F583E493FE740193FBAA06900015740198
:1000AE00F0900017E0FEA3E0FFC39BEE9A4014EF22
:1000BE0094D6EE940F402D90005BE04410F090002B
:1000CE0020801EE4900015F0D3900018E094F69076
:1000DE000017E09400500D90005BE04408F0900093
:1000EE001F740AF0900047E025E02438F582E434CE
:1000FE000BF583E493FA740193FB9000167401F0F0
:10010E00C390001AE09B900019E09A4020E4900002
:10011E0016F090001AE094D6900019E0940F400D5E
:10012E0090005BE04440F0900022740AF0900026AC
:10013E00E060031209C8900047E07003020243E436
:10014E00900027F0A3F06009E9900B069390002928
:10015E00F0E9900AF493FF900029E0C39F50030248
:10016E00020E900024E09434900023E094084006A0
:10017E009000257401F0C3900024E0946090002359
:10018E00E0940940069000257402F0C3900024E02C
:10019E00948C900023E0940A40069000257403F09E
:1001AE00C3900024E094B8900023E0940B40069096
:1001BE0000257404F0C3900024E094E4900023E042
:1001CE00940C40069000257405F0C3900024E09432
:1001DE0010900023E0940E40069000257406F0C3A4
:1001EE00900024E09480900023E09470402C9000C6
:1001FE00257407F09000237470F0A37480F0801AB9
:10020E00E4900023F0A3F0E9900AF693FF90002902
:10021E00E0D39F5005E4900025F0900025E0FF60AC
:10022E002390002CE075F007A424F7F582E4340A3D
:10023E001209E6800FE4900027F0A3F0900023F05F
:10024E00A3F0A3F09000167401F0E4900021F0A347
:10025E00F090001FE0700790005BE054F7F0900004
:10026E0020E0700790005BE054EFF0900021E0700A
:10027E000790005BE054DFF0900022E070079000E2
:10028E005BE054BFF090002AE004F0E0D3941F40EE
:10029E0002E4F0900045E064017024900015E064E3
:1002AE0001701CA3E0B4011790000CE0B401109093
:1002BE000011E0700A90005BE070047F0180027F05
:0602CE0000900014EFF0A7
:0102D4002207
:100D0F00E490000DF0120A065019900014E0B4019F
:100D1F0018438080E4C39E501043980290000D74D6
:0A0D2F0001F02253807F5398FD224B
:100D6100120A065017900014E06401701543808048
:100D7100EF14FFEEC39F50074398022253807F5325
:030D810098FD22B8
:10090F004380027F0E120D8490000AEEF0A3EFF0E9
:10091F00A37401F0A3E0B4011AE4A3F0A3F0D3127F
:10092F0009F9505E90005BE04402F0900013740AE6
:10093F00F0804FC31209F9401E90000FE004F070D1
:10094F000690000EE004F0E490000CF0900011E02F
:10095F007013743CF0800EE490000EF0A3F0900042
:10096F005BE054FEF0C390000FE0946890000EE03F
:10097F009410400E7410F0A37468F090005BE04484
:10098F0001F0900013E0700790005BE054FDF0530E
:03099F0080FD22B6
:100C6A00438002E4900068F07F0D120D84900068C2
:100C7A00E01209B4120A11120D3963800290006859
:100C8A00E004F0E0C3940540DF5380FD120C279086
:0E0C9A000006E0FFA3E0900017CFF0A3EFF0FC
:010CA8002229
:100A1B00438002E4900068F07F0B120D8490006815
:100A2B00E01209B4120A11120D39638002900068AA
:100A3B00E004F0E0C3940540DF900002E0FEA3E089
:100A4B00FF900001E02FFF900000E03EFE900005BC
:100A5B00E02FFF900004E03EFE900007E02FFF9098
:100A6B000006E03EFE900009E02FFF900008E03EFC
:100A7B00FE7C007D0512064C900019EEF0A3EFF002
:030A8B005380FD98
:010A8E002245
:100C2700E4FFAE07EEC3940550321209A2E0FAA31F
:100C3700E0FBD39DEA9C4021900069EAF0A3EBF02A
:100C47001209A2ECF0A3EDF0900069E0FCA3E0FD2F
:100C5700EE1209B4ECF0A3EDF00E80C80FEF6405B7
:020C670070C05B
:010C69002268
:100CE300A3F07460901011F09010107481F022FE44
:100CF300FDFCE0F8A3E0F9A3E0FAA3E0FB229000F7
:0C0D030062E0FCA3E0FDA3E0FEA3E02200
:0A0E7C0075B42075B20C43B2812258
:0C0E5A00EFB4010443AA022253AAFD22B7
:0C0E6600EFB4010443AA012253AAFE22AB
:100DDE00AD07AC06ECF5C5AF058FC475C24075C343
:0B0DEE0081E5C2F420E4FA53C2EF22BA
:100DC200AC06EC901012F0A3EFF07440120CE79016
:0C0DD2001011E0F420E4F8E054EFF022EF
:100DF900EF25E0FFEE33901012F0EF120CE39010A4
:0A0E090011E0F420E4F8E054EFF0EB
:010E130022BC
:0607CA0090005E12070121
:1007D000E47F0290005E120CF21206A190006212F9
:1007E0000701120D01C3940AFFEE9400020862E4AF
:1007F000FF900062120CF2D31206F04077E47FFF04
:100800007EFFFDFC900062E0F8A3A3A3E0D31206F4
:10081000F040067EFF7FFF800A900062A3A3E0FE07
:10082000A3E0FF900066EEF0A3EFF0900066E0FC1E
:10083000A3E0FDEC901012F0ED120CE3901011E02B
:10084000F420E4F8E054EFF0120D01FFC006C007F9
:10085000A3E0FEA3E0FBAA06D007D006C3EF9BFFF0
:10086000EE9AFEED9400FDEC9400FC9000621207FD
:04087000010207EF8B
:010874002261
:03006B00020E463C
:100E4600C0E0C083C082900052E06401F0D082D03E
:040E560083D0E03233
:0300630002006632
:02006600003266
:100CA900900055E4F0A3743CF0900058227402F0CF
:100CB900900048E0FFF422C2B3C2A0C2B4C2B2C2DB
:100CC9008322E4F0900048E022900055E4F0A374F8
:0A0CD9003CF022D2B3D2A0D2B42224
:10070D00208B44900049E004F0E0C3940C40417408
:10071D000C120CB830E039EF4401F0900045E06464
:10072D0001F0E4900055F0A3F0A3F0900045E060D7
:10073D001F120003900B0CE493FF74019390005073
:10074D00CFF0A3EFF08009900049120CCB54FEF0CE
:10075D0020862B90004CE004F0E0C3940240281258
:10076D000CB630E322EF4408F0900045E0B40117D9
:10077D00900047E0C39408500EE004F0800990000B
:10078D004C120CCB54F7F020842690004DE004F071
:10079D00E0C394024026120CB630E420EF4410F072
:1007AD00900045E0B40115900047E0600F14F02271
:0D07BD00E490004DF0900048E054EFF02271
:1005860090004EE06003020622743CF0900011E0F9
:10059600600214F0900013E0600214F090001FE077
:1005A600600214F0900020E0600214F0900021E058
:1005B600600214F0900022E0600214F0900044E023
:1005C600600214F0900054E06003E014F0900026FE
:1005D600E0600214F0900027E07002A3E0600E9045
:1005E6000028E024FFF0900027E034FFF0E49000BC
:1005F60023F0A3F0900050E07002A3E0600E90009C
:1006060051E024FFF0900050E034FFF090004FE0FE
:100616007005743CF0800B90004F800390004EE014
:1006260014F0900054E0900050E07002A3E06006E1
:10063600900045E0700FE490005BF0900045F0906C
:060646000050F0A3F022B9
:1002D500900057E0FFC3900056E09F900055E094D2
:1002E500004016900045E0B40115A3E0FF601064DE
:1002F50001600CEFB402088006900058740AF09073
:100305000055E07002A3E060030203C990005CE0C1
:100315006013120CD290005CE030E0069000587437
:100325000DF002039B90005BE0FF607730E009125F
:100335000CA97401F002039BEF30E109120CA974BA
:1003450002F002039BEF30E208120CA97403F0805F
:1003550045EF30E308120CA97404F08039EF30E45E
:1003650008120CA97405F0802DEF30E508120CA9D0
:100375007406F08021EF30E608120CA97407F080AE
:1003850015EF90005530E708120CAC7408F08006A4
:10039500120CAC7409F0900055E0C313A3E013A34D
:1003A500F0802F120CD2900045E0B4010A9000476E
:1003B500E0900058F08006900058740FF0E490002B
:1003C50057F0800E900056E024FFF0900055E03481
:1003D500FFF0120E86900058E0FF1203E7E4FF02DB
:0203E5000E9573
:080E8600120CC0C2B0C2B1227F
:1003E700EFB4100040030204B69003F7F82828730F
:1003F70002042702042D02043102043E02044702CC
:10040700044B02045502045B02046302046B0204FA
:100417007702048602048B0204970204A30204866F
:10042700120CDC0204A9C2B3802CD2B3D2A0C2B48E
:10043700D2B2D2830204B2120CDCD2B2C283806B76
:10044700C2B38022D2B3C2A0D2B4D2B2801EC2B38A
:10045700C2A0800CD2B3D2A0D2B4801AD2B3D2A099
:10046700D2B48026D2B3D2A0D2B4C2B2C28380277C
:10047700C2B3C2A0C2B4C2B2C283C2B0C2B1221256
:100487000CC08027D2B3C2A0C2B4D2B2D283800735
:10049700120CDCC2B2D283D2B0D2B122D2B3C2A084
:1004A700C2B4D2B2D283D2B0C2B122C2B0D2B122C8
:060E9500900068EFF0225E
:1008750053A87F120E8E7D0FE4FF120DA6120BDF1B
:1008850043A880120A8F120003120E2EE59830E35A
:10089500FB90002AE0B41F0543800180035380FECE
:1008A5007F787E05120D397F787E05120D397FD050
:1008B5007E07120D391204B712090F7F847E0312C9
:1008C5000D39120C6A120B4A12058612070D7FF4B8
:1008D5007E01120D39120D61E59820E3FB1202D558
:1008E5007FE87E03120D397FDC7E05120D39120B70
:1008F500967FE87E03120D39120A1B12006E7FE8FF
:0A0905007E03120D39120D0F8082DF
:100A8F00E4900045F0900053F0A37414F0E490004C
:100A9F0048F0A3F0A3F0900055F0A3F0A3F090005E
:100AAF00477404F0E4900046F090005DF090005A17
:100ABF00F0900058740AF0E490005BF0A3F09000FF
:100ACF003F04F0A3742CF0E490002CF090003AF067
:100ADF0090002BF0900014F05398FD53807F5380BB
:050AEF00FD5380FE2212
:100E2E007F1EE4900068F0E59830E3FBE59820E340
:070E3E00FBEF60031F80F0D1
:010E4500228A
:03000000020E14D9
:100E140078FFE4F6D8FD9000007F007E09E4F0A39B
:0A0E2400DFFCDEFA75810702087595
:10064C00BC000BBE0029EF8DF084FFADF022E4CC92
:10065C00F875F008EF2FFFEE33FEEC33FCEE9DEC5B
:10066C00984005FCEE9DFE0FD5F0E9E4CEFD22EDA1
:10067C00F8F5F0EE8420D21CFEADF075F008EF2FEB
:10068C00FFED33FD4007985006D5F0F222C398FDDC
:05069C000FD5F0EA2279
:1006A100E88FF0A4CC8BF0A42CFCE98EF0A42CFCF8
:1006B1008AF0EDA42CFCEA8EF0A4CDA8F08BF0A476
:1006C1002DCC3825F0FDE98FF0A42CCD35F0FCEBD5
:1006D1008EF0A4FEA9F0EB8FF0A4CFC5F02ECD399A
:0F06E100FEE43CFCEAA42DCE35F0FDE43CFC2207
:1006F000EB9FF5F0EA9E42F0E99D42F0E89C45F060
:0107000022D6
:0C070100ECF0A3EDF0A3EEF0A3EFF0226B
:00000001FF
