:100EA6004380027F0B1211B49000B7EEF0A3EFF06F
:100EB6009000B7740EF0A3748BF0A3E07002A3E069
:100EC60060109000BAE024FFF09000B9E034FFF023
:100ED6008007E49000B7F0A3F0C39000B8E094B2A6
:100EE6009000B7E094099000A3E040054401F0802B
:080EF6000354FEF05380FD22BD
:100631004380027F0C1211B49000B4E0FD04F0ED90
:1006410025E024A8F582E43400F583EEF0A3EFF071
:100651009000B4E0C394054049E4F09000AAE0FEA4
:10066100A3E0FF9000A9E02FFF9000A8E03EFE90DC
:1006710000ADE02FFF9000ACE03EFE9000AFE02F18
:10068100FF9000AEE03EFE9000B1E02FFF9000B081
:10069100E03EFE7C007D051204749000B2EEF0A3F2
:1006A100EFF09000B2E0FEA3E0FFC39445EE940F9B
:1006B10040089000A67402F08028C3EF9438EE94AD
:1006C1000F501FC3EF94BEEE940940089000A6742A
:1006D10001F0800EC3EF94A5EE94095005E490005B
:1006E100A6F0E49000A6F09000B5E07002A3E070DF
:1006F100189000A6E0FFA3E06F601CEFF09000B53A
:100701007403F0A37484F0800E9000B6E024FFF02F
:0B0711009000B5E034FFF05380FD22A3
:100EFE004380027F0F1211B49000BBEEF0A3EFF00F
:100F0E00D394D9EE9404501CA3E004F0E0C3940AE9
:100F1E004017740AF09000A2E04480F09000BE7476
:100F2E000AF08005E49000BDF09000BEE06004146D
:0E0F3E00F080079000A2E0547FF05380FD2267
:0712E50075C828E4F58A2218
:1011D600EDC3940F40027D0FAE05EE25E0FEEF70E5
:0C11E600047F0180027F00EE4FF5D8224C
:1000030075A1BFE4F5ACF591F5DEF58075D320F568
:10001300D2F5B1F5ADF592F588F5D575D42A75B954
:1000230040F5AEF593F59075D60A75C108F5AFF5B1
:1000330098F5EEF5C9F5A3F594F5A075EF0375D121
:080043000FF595F5B0F5FF2261
:1011B400759D07EF4480F59C439C4000E59CF4201A
:1011C400E4FAE59F540FFEAD9E7C00E42DFFEC3E57
:0211D400FE22F9
:10112200AC06EC901012F0A3EFF09010107401F0E6
:10113200A37464F0901010E04480F0901011E0F479
:0811420020E4F8E054EFF02274
:0A12C100EF1F70011E144E70F7229B
:100E3A001907071506061F1D1B191715151108088E
:100E4A0007070606050308080707060605031F091C
:100E5A000938407080A8C0000000F00348047406F6
:100E6A00CC07F80924092409240005090D111519CC
:100E7A001D1F0002030405060708090002030405F2
:100E8A000607080906C90D930E4D0FFF026C064DA1
:0C0E9A0008BA0B260D930FFF0FFF0FFF8F
:100F4C00EE25E0243EF582E43400F583E0FCA3E0DA
:100F5C00FDEF25E0243EF582E43400F58322F0A376
:100F6C00F0A3F0A3F022900049E094D9900048E05F
:100F7C00940422900067E0FFA3E0FEC39F22EEF0F2
:080F8C00A3EFF07F0A7E0022B2
:100DC000900095743CF0A3F090008B7402F0E490D6
:100DD00000A2F0A3F0900052F0900055120F6A901C
:100DE000005A120F6AA3120F6AA3F0A3F0A3743C77
:100DF000F090001AE025E02461F582E4340EF583DA
:100E0000E493FF740193900065CFF0A3EFF0E4A3A7
:100E1000F0A3F09000BB120F6A900048F0A3F0908E
:100E2000004FF090004CF0A3F0A3F0900051F09030
:0A0E30000050F090004AF0A3F022F9
:10006E00900068E0641F600302026090001AE0FFD7
:10007E009000A6E0F975F009A42473F582E4340E1D
:10008E00F583E5822FF582E43583F583E4939000C2
:10009E0067F07BB27A099000537401F0900055E03E
:1000AE00FEA3E0FFC39BEE9A4014EF94FFEE940F75
:1000BE00402D9000A2E04410F090005E801EE4906F
:1000CE000053F0D3900056E09474900055E09401E4
:1000DE00500D9000A2E04408F090005D740AF0907C
:1000EE00001AE025E02494F582E4340EF583E493BF
:1000FE00FA740193FB9000547401F0C3900058E021
:10010E009B900057E09A4020E4900054F0900058E5
:10011E00E09407900057E0940F400D9000A2E04449
:10012E0040F0900060740AF090001AE07003020232
:10013E0051E4900065F0A3F0E9900E3A93FF900021
:10014E0067E0C39F500302020A900062E094609041
:10015E000061E0940940069000637401F0C39000C2
:10016E0062E0948C900061E0940A40069000637403
:10017E0002F0C3900062E094B8900061E0940B40EE
:10018E00069000637403F0C3900062E094E4900064
:10019E0061E0940C40069000637404F0C39000621A
:1001AE00E09410900061E0940E4006900063740598
:1001BE00F0C3900062E0943C900061E0940F400622
:1001CE009000637406F0C3900062E0946890006142
:1001DE00E0941040069000637407F0C3900062E054
:1001EE009480900061E09470402F9000637408F04A
:1001FE009000617470F0A37480F0801DE490006133
:10020E00F0A3F09000A6E0900E3D93FF900067E003
:10021E00D39F5005E4900063F0900063E0FF6032DE
:10022E009000A6E075F008A4243FF582E4340EF5A4
:10023E0083E5822FF582E43583F583E4939000679E
:10024E00F0800FE4900065F0A3F0900061F0A3F051
:10025E00A3F09000547401F0E490005FF0A3F090CE
:10026E00005DE070079000A2E054F7F090005EE0B1
:10027E0070079000A2E054EFF090005FE0700790DE
:10028E0000A2E054DFF0900060E070079000A2E062
:10029E0054BFF0900068E004F0E0D3941F4002E4F5
:1002AE00F0900019E064017024900053E064017036
:1002BE001CA3E0B4011790004AE0B4011090004F67
:1002CE00E0700A9000A2E070047F0180027F00902F
:0402DE000052EFF0EB
:0102E20022F9
:1010F800E490004BF0120F7F5019900052E0B401B9
:1011080018439040E4C39E501043808090004B7475
:0A11180001F0225390BF53807F22A4
:10116E00120F7F5017900052E064017015439040AB
:10117E00EF14FFEEC39F5007438080225390BF535E
:03118E00807F223D
:100CB2004380027F0E1211B4900048EEF0A3EFF0D1
:100CC200A37401F0A3E0B4011AE4A3F0A3F0D312D9
:100CD2000F72505E9000A2E04402F0900051740A3C
:100CE200F0804FC3120F72401E90004DE004F0706E
:100CF2000690004CE004F0E490004AF090004FE0CF
:100D02007013743CF0800EE490004CF0A3F090005D
:100D1200A2E054FEF0C390004DE0946890004CE0D5
:100D22009410400E7410F0A37468F09000A2E04496
:100D320001F0900051E070079000A2E054FDF053E2
:030D420080FD220F
:100F9400438002E49000C9F07F0D1211B49000C99F
:100FA400E0120F5E120F8A1211227F0A7E001211C4
:100FB400226380029000C9E004F0E0C3940540D8A5
:100FC4005380FD120FDA900044E0FFA3E090005537
:050FD400CFF0A3EFF0D7
:010FD90022F5
:100D4500438002E49000C9F07F041211B49000C9F9
:100D5500E0120F5E120F8A1211227F0A7E00121115
:100D6500226380029000C9E004F0E0C3940540D8F6
:100D7500900040E0FEA3E0FF90003FE02FFF9000D1
:100D85003EE03EFE900043E02FFF900042E03EFE35
:100D9500900045E02FFF900044E03EFE900047E0C4
:100DA5002FFF900046E03EFE7C007D051204749006
:0A0DB5000057EEF0A3EFF05380FDAD
:010DBF002211
:100FDA00E4FFAE07EEC394055032120F4CE0FAA3B9
:100FEA00E0FBD39DEA9C40219000CAEAF0A3EBF013
:100FFA00120F4CECF0A3EDF09000CAE0FCA3E0FD68
:10100A00EE120F5EECF0A3EDF00E80C80FEF640550
:02101A0070C0A4
:01101C0022B1
:1010CC00A3F07460901011F09010107481F022FE57
:1010DC00FDFCE0F8A3E0F9A3E0FAA3E0FB2290000A
:0C10EC00C3E0FCA3E0FDA3E0FEA3E022B3
:0A12CB0075B44175B20C43B28122E4
:0C005600EFB4010443AA022253AAFD22C9
:0C12AA00EFB4010443AA012253AAFE2263
:10120E00AD07AC06ECF5C5AF058FC475C24075C30E
:0B121E0081E5C2F420E4FA53C2EF2285
:1011F200AC06EC901012F0A3EFF074401210D090F5
:0C1202001011E0F420E4F8E054EFF022BA
:10122900EF25E0FFEE33901012F0EF1210CC901082
:0A12390011E0F420E4F8E054EFF0B7
:011243002288
:06096E009000BF120529F4
:10097400E47F029000BF1210DB1204C99000C3127E
:1009840005291210EAC3940AFFEE9400020A06E451
:10099400FF9000C31210DBD31205184077E47FFFE9
:1009A4007EFFFDFC9000C3E0F8A3A3A3E0D31205EF
:1009B4001840067EFF7FFF800A9000C3A3A3E0FED9
:1009C400A3E0FF9000C7EEF0A3EFF09000C7E0FCB7
:1009D400A3E0FDEC901012F0ED1210CC901011E099
:1009E400F420E4F8E054EFF01210EAFFC006C00768
:1009F400A3E0FEA3E0FBAA06D007D006C3EF9BFF4B
:100A0400EE9AFEED9400FDEC9400FC9000C31205F8
:040A14002902099317
:010A180022BB
:03006B000212730B
:10127300C0E0C083C082900099E06401F0D082D0C6
:0412830083D0E03202
:0300630002006632
:02006600003266
:04004E0041008900E4
:10101D00E490009CF0A3F0A3F090001CF09000A3CE
:10102D00E0227402F0900019E0640122900090E03B
:10103D00FFF422C282C283C285C2B0C2B122E4F0E3
:0C104D00900090E022D282D283D2852253
:10053500309748900091E004F0E0C3940240457480
:1005450002F012103930E03CEF4401F090008AE0EF
:100555006401121031F0E490009CF0A3F0A3F09038
:100565000019E0601F120DC090009774D2F0A374BB
:10057500F0F0E49000B9F0A3F0800990009112101A
:100585004B54FEF0308B2F900093E004F0E0C394C1
:1005950002402CA3E0702890009312102F702012B7
:1005A500103930E21AEF4404F090001AE094085034
:1005B5000EE004F0800990009312104B54FBF030CC
:1005C500982D900094E004F0900093E0702DA3E046
:1005D500C39402402612102F702112103930E31BEC
:1005E500EF4408F090001AE06011E014F0800CE48C
:1005F500900094F0900090E054F7F0900093E0C3E1
:1006050094784027A3E0947840219000937478F083
:10061500A3F0900019E07013121039540CFEBE0CB3
:0C0625000AEF440CF090001D74FFF0225E
:100A1900900095E07073743CF090004FE060021410
:100A2900F0900051E0600214F090005DE060021463
:100A3900F090005EE0600214F090005FE060021444
:100A4900F0900060E0600214F09000BEE0600214D3
:100A5900F090009BE06003E014F0E4900061F0A3E3
:100A6900F0900097E07002A3E0600E900098E024F7
:100A7900FFF0900097E034FFF0900096E070057465
:100A89003CF0800B9000968003900095E014F09064
:100A9900009BE0900097E07002A3E06006900019C7
:100AA900E07017E49000A2F090008AF0900019F02D
:0B0AB90090001CF0900097F0A3F022CA
:1002E30090009EE0FFC390009DE09F90009CE094EF
:1002F300004018900019E0B4011790008BE0FF60F4
:10030300106401600CEFB40208800690009F740A29
:10031300F090008EE0702F90001DE0B4020C90006E
:100323008E741EF0A3740FF0802290001DE0B401C0
:100333000C90008E7478F0A3743CF0800FE490006E
:100343008EF0A3F0800690008EE014F090008FE012
:10035300FF90008EE0C39F4004D2848002C2849049
:10036300009CE07002A3E0601190009DE024FFF088
:1003730090009CE034FFF0020415121032706EA35B
:10038300E090009FF012101D30E002806C9000A2FC
:10039300E0FF30E00790009F7401804BEF30E107EE
:1003A30090009F74028040EF30E20790009F740337
:1003B3008035EF30E30790009F7404802AEF30E428
:1003C3000790009F7405801FEF30E50790009F742E
:1003D300068014EF30E60790009F74078009EF3022
:1003E300E73090009F7408F090001C801790009FE6
:1003F300740FF012101D30E01990009F740DF090EF
:10040300001C7409F090009CE4F0A3743CF0A37406
:100413001EF01212D590009FE0FF12071CE4FF02AA
:0204230012ECD9
:0812D500121040C2B2C2B322A4
:10071C00EFB4100040030207EB90072CF828287365
:10072C0002075C02076202076602077302077C027B
:10073C00078002078A0207900207980207A00207A7
:10074C00AC0207BB0207C00207CC0207D80207BBEA
:10075C001210520207DEC282802CD282D283C28552
:10076C00D2B0D2B10207E7121052D2B0C2B1806B34
:10077C00C2828022D282C283D285D2B0801EC28233
:10078C00C283800CD282D283D285801AD282D28349
:10079C00D2858026D282D283D285C2B0C2B18027C4
:1007AC00C282C283C285C2B0C2B1C2B2C2B322126B
:1007BC0010408027D282C283C285D2B0D2B18007CA
:1007CC00121052C2B0D2B1D2B2D2B322D282C283F0
:1007DC00C285D2B0D2B1D2B2C2B322C2B2D2B3228B
:0612EC009000C9EFF022A2
:0B12B600746B2FF582E43400F58322F6
:10129A0075D906E4F5DB75E36775DA2E43A90822EA
:0812DD00E5E130E7FB8FE5229B
:03004B000210950B
:0D109500C0E0C083C082C0D075D000C0078D
:1010A200900069E004FFC3941E40027F0090006A32
:0F10B200E06F600B1212B6E5E5F0900069EFF009
:0B10C100D007D0D0D082D083D0E03226
:0300530002006246
:01006200326B
:10128700E4900069F0A3F0FF1212B6E4F00FEFB498
:021297001EF641
:011299002232
:10125C00900069E0FFA3E0FEEFC39EEF40039EFF0A
:06126C0022241EC39EFFB8
:011272002259
:10114A0090006AE0FF900069E06F60F4A3E004FF9A
:10115A00C3941E4002E4FF1212B6E0FE90006AEF4A
:03116A00F0AF06DD
:01116D00225F
:0D1059009000C9EBF0A3EAF0A3E9F0AC05AC
:10106600E4FDEC14FFEDC39F5024ED2401FFE433AF
:10107600FE9000C9E0FBA3E0FAA3E0F98F828E831D
:0E1086001204258D827583001204520D80D451
:011094002239
:10119100900019E0900031F090001AE0900032F0D8
:1011A10090001BE0900033F02290003DF0E49000AD
:0311B1003CF022ED
:1007EC0053A87F1212E57D0AE4FF1211D612000302
:1007FC0012129A43A880120B6E120DC0121244E50D
:10080C009030E2FB900068E0B41F05438001800348
:10081C005380FE7F627E111211227F627E111211B3
:10082C00221206317F057E001211227F057E0012F6
:10083C001122120CB27FB07E041211227FB07E0402
:10084C00121122120F947FF47E011211227FF47E7A
:10085C0001121122120EFE120A191205357F287E82
:10086C000012112212116EE59020E2FB1202E37FBE
:10087C00A07E0F1211227FA07E0F121122120EA643
:10088C007FC87E001211227FC87E00121122120D29
:10089C004512006E120AC41208BA7FFA7E001211B9
:0E08AC00227FFA7E001211221210F802080BB1
:100AC40012125CEF7003020B6D12114A900017EFC3
:100AD400F090000CE064FA6003020B62900017E0EF
:100AE40064F5707A90000DE0B4FF05A3E0F460684B
:100AF40090000DE0900019F0E4A3F090000EE0D314
:100B040094085005E090001AF090001B7496F09041
:100B1400000FE0D394965005E090001BF090001174
:100B2400E090001DF0900010E0B4010A9000B97448
:100B340001F0A3742CF090001BE06011E0FE75F04E
:100B440068A4FFE5F02E900097F0A3EFF012119146
:100B540090001DE0900035F090003D7401F07B01A1
:0A0B64007A00790C7D0C1210592262
:1008BA00900019E0FF900031E0B5072490001AE09B
:1008CA00FF900032E0B5071890001CE0FF9000345A
:1008DA00E0B5070C90001DE0FF900035E06F601650
:1008EA0090003DE0701012119190001CE0900034CD
:1008FA00F074011211AA90003DE06067900019E0BF
:10090A00B40126900097E0FEA3E0FFC39468EE943A
:10091A0001400E7C017D6812047490001BEFF08088
:10092A000D90001B7401F08005E490001BF090000C
:10093A003CE02418F582E43400F583E0FF1212DD6E
:10094A0090003CE004F0E0C3940C401790001DE0D6
:10095A00B4FF077402F0900035F0E490003DF09087
:04096A00003CF0223B
:100B6E00E490008AF0900019F0900031F090009A15
:100B7E00F0A37414F0E4900090F0A3F0A3F09000B2
:100B8E009CF0A3F0A3F090008DF090008C7404F014
:100B9E0090001AF0900032F090008B7402F09000EA
:100BAE001B7496F0900033F0E49000A4F090001CBB
:100BBE00F0900034F09000A1F090009F740AF0E4E1
:100BCE009000A2F0A3F09000B904F0A3742CF0E40E
:100BDE009000A6F0A3F09000A5F09000B5F0A3F061
:100BEE00900052F053807F5390BF5380FD5380FE90
:100BFE00041211AA90001874FAF090002374F5F004
:0A0C0E0090003074FAF074F5F02243
:101244007F1EE49000C9F0E59030E2FBE59020E2D7
:07125400FBEF60031F80F0B7
:01125B002270
:03000000020C18D7
:100C180078FFE4F6D8FD9000007F007E09E4F0A399
:0A0C2800DFFCDEFA758107020C6D97
:100C32000207ECE493A3F8E493A34003F68001F2E5
:100C420008DFF48029E493A3F85407240CC8C333C3
:100C5200C4540F4420C8834004F456800146F6DF92
:100C6200E4800B010204081020408090004EE47ED4
:100C7200019360BCA3FF543F30E509541FFEE49387
:100C8200A360010ECF54C025E060A840B8E493A34E
:100C9200FAE493A3F8E493A3C8C582C8CAC583CA79
:100CA200F0A3C8C582C8CAC583CADFE9DEE780BE31
:0100520000AD
:10042500BB010CE58229F582E5833AF583E022508C
:1004350006E92582F8E622BBFE06E92582F8E222D6
:0D044500E58229F582E5833AF583E49322F0
:10045200F8BB010DE58229F582E5833AF583E8F0E0
:10046200225006E92582C8F622BBFE05E92582C88C
:02047200F22274
:10047400BC000BBE0029EF8DF084FFADF022E4CC6C
:10048400F875F008EF2FFFEE33FEEC33FCEE9DEC35
:10049400984005FCEE9DFE0FD5F0E9E4CEFD22ED7B
:1004A400F8F5F0EE8420D21CFEADF075F008EF2FC5
:1004B400FFED33FD4007985006D5F0F222C398FDB6
:0504C4000FD5F0EA2253
:1004C900E88FF0A4CC8BF0A42CFCE98EF0A42CFCD2
:1004D9008AF0EDA42CFCEA8EF0A4CDA8F08BF0A450
:1004E9002DCC3825F0FDE98FF0A42CCD35F0FCEBAF
:1004F9008EF0A4FEA9F0EB8FF0A4CFC5F02ECD3974
:0F050900FEE43CFCEAA42DCE35F0FDE43CFC22E0
:10051800EB9FF5F0EA9E42F0E99D42F0E89C45F039
:0105280022B0
:0C052900ECF0A3EDF0A3EEF0A3EFF02245
:00000001FF
