:100EB1004380027F0B1211BF9000B7EEF0A3EFF059
:100EC1009000B7740EF0A3748BF0A3E07002A3E05E
:100ED10060109000BAE024FFF09000B9E034FFF018
:100EE1008007E49000B7F0A3F0C39000B8E094B29B
:100EF1009000B7E094099000A3E040054401F08020
:080F01000354FEF05380FD22B1
:10061C004380027F0C1211BF9000B4E0FD04F0ED9A
:10062C0025E024A8F582E43400F583EEF0A3EFF086
:10063C009000B4E0C394054049E4F09000AAE0FEB9
:10064C00A3E0FF9000A9E02FFF9000A8E03EFE90F1
:10065C0000ADE02FFF9000ACE03EFE9000AFE02F2D
:10066C00FF9000AEE03EFE9000B1E02FFF9000B096
:10067C00E03EFE7C007D0512045F9000B2EEF0A31C
:10068C00EFF09000B2E0FEA3E0FFC39445EE940FB0
:10069C0040089000A67402F08028C3EF9438EE94C2
:1006AC000F501FC3EF94BEEE940940089000A6743F
:1006BC0001F0800EC3EF94A5EE94095005E4900070
:1006CC00A6F0E49000A6F09000B5E07002A3E070F4
:1006DC00189000A6E0FFA3E06F601CEFF09000B54F
:1006EC007403F0A37484F0800E9000B6E024FFF045
:0B06FC009000B5E034FFF05380FD22B9
:100F09004380027F0F1211BF9000BBEEF0A3EFF0F8
:100F1900D394D9EE9404501CA3E004F0E0C3940ADE
:100F29004017740AF09000A2E04480F09000BE746B
:100F39000AF08005E49000BDF09000BEE060041462
:0E0F4900F080079000A2E0547FF05380FD225C
:0712F00075C828E4F58A220D
:1011E100EDC3940F40027D0FAE05EE25E0FEEF70DA
:0C11F100047F0180027F00EE4FF5D82241
:1000030075A1BFE4F5ACF591F5DEF58075D320F568
:10001300D2F5B1F5ADF592F588F5D575D42A75B954
:1000230040F5AEF593F59075D60A75C108F5AFF5B1
:1000330098F5EEF5C9F5A3F594F5A075EF0375D121
:080043000FF595F5B0F5FF2261
:1011BF00759D07EF4480F59C439C4000E59CF4200F
:1011CF00E4FAE59F540FFEAD9E7C00E42DFFEC3E4C
:0211DF00FE22EE
:10112D00AC06EC901012F0A3EFF09010107401F0DB
:10113D00A37464F0901010E04480F0901011E0F46E
:08114D0020E4F8E054EFF02269
:0A12CC00EF1F70011E144E70F72290
:100E48001907071506061F1D1B191715110808078E
:100E580007060503080807070605031F09093840A0
:100E68007080A8C0000000F00348047406CC07F89E
:100E78000924092409240005090D1115191D1F004D
:100E8800020304050607080900020304050607080B
:100E98000906C90D930E4D0FFF026C064D08BA0BDB
:090EA800260D930FFF0FFF0FFF51
:100F5700EE25E0243EF582E43400F583E0FCA3E0CF
:100F6700FDEF25E0243EF582E43400F58322F0A36B
:100F7700F0A3F0A3F022900049E094D9900048E054
:100F8700940422900067E0FFA3E0FEC39F22EEF0E7
:080F9700A3EFF07F0A7E0022A7
:100DCE00900095743CF0A3F090008B7402F0E490C8
:100DDE0000A2F0A3F0900052F0900055120F759003
:100DEE00005A120F75A3120F75A3F0A3F0A3743C53
:100DFE00F090001AE025E0246CF582E4340EF583C1
:100E0E00E493FF740193900065CFF0A3EFF0E4A399
:100E1E00F0A3F09000BB120F75900048F0A3F09075
:100E2E00004FF090004CF0A3F0A3F0900051F09022
:0A0E3E000050F090004AF0A3F022EB
:10006E00900068E0641F600302024B90001AE0FFEC
:10007E009000A6E0F975F009A4247EF582E4340E12
:10008E00F583E5822FF582E43583F583E4939000C2
:10009E0067F07BB27A099000537401F0900055E03E
:1000AE00FEA3E0FFC39BEE9A4014EF94FFEE940F75
:1000BE00402D9000A2E04410F090005E801EE4906F
:1000CE000053F0D3900056E09474900055E09401E4
:1000DE00500D9000A2E04408F090005D740AF0907C
:1000EE00001AE025E0249FF582E4340EF583E493B4
:1000FE00FA740193FB9000547401F0C3900058E021
:10010E009B900057E09A4020E4900054F0900058E5
:10011E00E09407900057E0940F400D9000A2E04449
:10012E0040F0900060740AF090001AE07003020232
:10013E003CE4900065F0A3F0E9900E4893FF900028
:10014E0067E0C39F50030201F5900062E094349083
:10015E000061E0940840069000637401F0C39000C3
:10016E0062E09460900061E0940940069000637430
:10017E0002F0C3900062E0948C900061E0940A401B
:10018E00069000637403F0C3900062E094B8900090
:10019E0061E0940B40069000637404F0C39000621B
:1001AE00E094E4900061E0940C40069000637405C6
:1001BE00F0C3900062E09410900061E0940E40064F
:1001CE009000637406F0C3900062E094809000612A
:1001DE00E09470402F9000637407F090006174708B
:1001EE00F0A37480F0801DE4900061F0A3F0900005
:1001FE00A6E0900E4B93FF900067E0D39F5005E46E
:10020E00900063F0900063E0FF60329000A6E0750E
:10021E00F007A4244DF582E4340EF583E5822FF524
:10022E0082E43583F583E493900067F0800FE490C9
:10023E000065F0A3F0900061F0A3F0A3F0900054DD
:10024E007401F0E490005FF0A3F090005DE07007A1
:10025E009000A2E054F7F090005EE070079000A2CC
:10026E00E054EFF090005FE070079000A2E054DFE2
:10027E00F0900060E070079000A2E054BFF0900094
:10028E0068E004F0E0D3941F4002E4F0900019E01F
:10029E0064017024900053E06401701CA3E0B4016B
:1002AE001790004AE0B4011090004FE0700A9000E1
:0F02BE00A2E070047F0180027F00900052EFF0F9
:0102CD00220E
:10110300E490004BF0120F8A5019900052E0B401A2
:1011130018439040E4C39E501043808090004B746A
:0A11230001F0225390BF53807F2299
:10117900120F8A5017900052E06401701543904095
:10118900EF14FFEEC39F5007438080225390BF5353
:03119900807F2232
:100CC0004380027F0E1211BF900048EEF0A3EFF0B8
:100CD000A37401F0A3E0B4011AE4A3F0A3F0D312CB
:100CE0000F7D505E9000A2E04402F0900051740A23
:100CF000F0804FC3120F7D401E90004DE004F07055
:100D00000690004CE004F0E490004AF090004FE0C0
:100D10007013743CF0800EE490004CF0A3F090004F
:100D2000A2E054FEF0C390004DE0946890004CE0C7
:100D30009410400E7410F0A37468F09000A2E04488
:100D400001F0900051E070079000A2E054FDF053D4
:030D500080FD2201
:100F9F00438002E49000C9F07F0D1211BF9000C989
:100FAF00E0120F69120F9512112D7F0A7E00121198
:100FBF002D6380029000C9E004F0E0C3940540D88F
:100FCF005380FD120FE5900044E0FFA3E090005521
:050FDF00CFF0A3EFF0CC
:010FE40022EA
:100D5300438002E49000C9F07F041211BF9000C9E0
:100D6300E0120F69120F9512112D7F0A7E001211E6
:100D73002D6380029000C9E004F0E0C3940540D8DD
:100D8300900040E0FEA3E0FF90003FE02FFF9000C3
:100D93003EE03EFE900043E02FFF900042E03EFE27
:100DA300900045E02FFF900044E03EFE900047E0B6
:100DB3002FFF900046E03EFE7C007D0512045F900D
:0A0DC3000057EEF0A3EFF05380FD9F
:010DCD002203
:100FE500E4FFAE07EEC394055032120F57E0FAA3A3
:100FF500E0FBD39DEA9C40219000CAEAF0A3EBF008
:10100500120F57ECF0A3EDF09000CAE0FCA3E0FD51
:10101500EE120F69ECF0A3EDF00E80C80FEF64053A
:0210250070C099
:0110270022A6
:1010D700A3F07460901011F09010107481F022FE4C
:1010E700FDFCE0F8A3E0F9A3E0FAA3E0FB229000FF
:0C10F700C3E0FCA3E0FDA3E0FEA3E022A8
:0A12D60075B44175B20C43B28122D9
:0C005600EFB4010443AA022253AAFD22C9
:0C12B500EFB4010443AA012253AAFE2258
:10121900AD07AC06ECF5C5AF058FC475C24075C303
:0B12290081E5C2F420E4FA53C2EF227A
:1011FD00AC06EC901012F0A3EFF074401210DB90DF
:0C120D001011E0F420E4F8E054EFF022AF
:10123400EF25E0FFEE33901012F0EF1210D790106C
:0A12440011E0F420E4F8E054EFF0AC
:01124E00227D
:060A27009000BF1205144F
:100A2D00E47F029000BF1210E61204B49000C312CE
:100A3D0005141210F5C3940AFFEE9400020ABFE4E8
:100A4D00FF9000C31210E6D31205034077E47FFF39
:100A5D007EFFFDFC9000C3E0F8A3A3A3E0D3120535
:100A6D000340067EFF7FFF800A9000C3A3A3E0FE34
:100A7D00A3E0FF9000C7EEF0A3EFF09000C7E0FCFD
:100A8D00A3E0FDEC901012F0ED1210D7901011E0D4
:100A9D00F420E4F8E054EFF01210F5FFC006C007A3
:100AAD00A3E0FEA3E0FBAA06D007D006C3EF9BFF91
:100ABD00EE9AFEED9400FDEC9400FC9000C312053F
:040ACD0014020A4CB9
:010AD1002202
:03006B0002127E00
:10127E00C0E0C083C082900099E06401F0D082D0BB
:04128E0083D0E032F7
:0300630002006632
:02006600003266
:04004E0041008900E4
:10102800E490009CF0A3F0A3F090001CF09000A3C3
:10103800E0227402F0900019E0640122900090E030
:10104800FFF422C282C283C285C2B0C2B122E4F0D8
:0C105800900090E022D282D283D2852248
:10052000309748900091E004F0E0C3940240457495
:1005300002F012104430E03CEF4401F090008AE0F9
:10054000640112103CF0E490009CF0A3F0A3F09042
:100550000019E0601F120DCE90009774D2F0A374C2
:10056000F0F0E49000B9F0A3F0800990009112102F
:100570005654FEF0308B2F900093E004F0E0C394CB
:1005800002402CA3E0702890009312103A702012C1
:10059000104430E21AEF4404F090001AE09408503E
:1005A0000EE004F0800990009312105654FBF030D6
:1005B000982D900094E004F0900093E0702DA3E05B
:1005C000C39402402612103A702112104430E31BEB
:1005D000EF4408F090001AE06011E014F0800CE4A1
:1005E000900094F0900090E054F7F0900093E0C3F6
:1005F00094784027A3E0947840219000937478F099
:10060000A3F0900019E07013121044540CFEBE0CBD
:0C0610000AEF440CF090001D74FFF02273
:1007D700900095E06003020873743CF090004FE0CE
:1007E700600214F0900051E0600214F090005DE0A8
:1007F700600214F090005EE0600214F090005FE089
:10080700600214F0900060E0600214F09000BEE017
:10081700600214F090009BE06003E014F090006425
:10082700E0600214F0900065E07002A3E0600E90B3
:100837000066E024FFF0900065E034FFF0E49000EC
:1008470061F0A3F0900097E07002A3E0600E9000C3
:1008570098E024FFF0900097E034FFF0900096E0D6
:100867007005743CF0800B9000968003900095E033
:1008770014F090009BE0900097E07002A3E0600600
:10088700900019E07017E49000A2F090008AF090B1
:0E0897000019F090001CF0900097F0A3F022E2
:1002CE0090009EE0FFC390009DE09F90009CE09404
:1002DE00004018900019E0B4011790008BE0FF6009
:1002EE00106401600CEFB40208800690009F740A3F
:1002FE00F090008EE0702F90001DE0B4020C900084
:10030E008E741EF0A3740FF0802290001DE0B401D5
:10031E000C90008E7478F0A3743CF0800FE4900083
:10032E008EF0A3F0800690008EE014F090008FE027
:10033E00FF90008EE0C39F4004D2848002C284905E
:10034E00009CE07002A3E0601190009DE024FFF09D
:10035E0090009CE034FFF002040012103D706EA37A
:10036E00E090009FF012102830E002806C9000A206
:10037E00E0FF30E00790009F7401804BEF30E10703
:10038E0090009F74028040EF30E20790009F74034C
:10039E008035EF30E30790009F7404802AEF30E43D
:1003AE000790009F7405801FEF30E50790009F7443
:1003BE00068014EF30E60790009F74078009EF3037
:1003CE00E73090009F7408F090001C801790009FFB
:1003DE00740FF012102830E01990009F740DF090F9
:1003EE00001C7409F090009CE4F0A3743CF0A3741C
:1003FE001EF01212E090009FE0FF120707E4FF02CA
:02040E0012F7E3
:0812E00012104BC2B2C2B3228E
:10070700EFB4100040030207D6900717F8282873A4
:1007170002074702074D02075102075E02076702F9
:10072700076B02077502077B02078302078B020725
:10073700970207A60207AB0207B70207C30207A67D
:1007470012105D0207C9C282802CD282D283C28571
:10075700D2B0D2B10207D212105DD2B0C2B1806B53
:10076700C2828022D282C283D285D2B0801EC28248
:10077700C283800CD282D283D285801AD282D2835E
:10078700D2858026D282D283D285C2B0C2B18027D9
:10079700C282C283C285C2B0C2B1C2B2C2B3221280
:1007A700104B8027D282C283C285D2B0D2B18007D4
:1007B70012105DC2B0D2B1D2B2D2B322D282C283FA
:1007C700C285D2B0D2B1D2B2C2B322C2B2D2B322A0
:0612F7009000C9EFF02297
:0B12C100746B2FF582E43400F58322EB
:1012A50075D906E4F5DB75E36775DA2E43A90822DF
:0812E800E5E130E7FB8FE52290
:03004B000210A000
:0D10A000C0E0C083C082C0D075D000C00782
:1010AD00900069E004FFC3941E40027F0090006A27
:0F10BD00E06F600B1212C1E5E5F0900069EFF0F3
:0B10CC00D007D0D0D082D083D0E0321B
:0300530002006246
:01006200326B
:10129200E4900069F0A3F0FF1212C1E4F00FEFB482
:0212A2001EF636
:0112A4002227
:10126700900069E0FFA3E0FEEFC39EEF40039EFFFF
:0612770022241EC39EFFAD
:01127D00224E
:1011550090006AE0FF900069E06F60F4A3E004FF8F
:10116500C3941E4002E4FF1212C1E0FE90006AEF34
:03117500F0AF06D2
:011178002254
:0D1064009000C9EBF0A3EAF0A3E9F0AC05A1
:10107100E4FDEC14FFEDC39F5024ED2401FFE433A4
:10108100FE9000C9E0FBA3E0FAA3E0F98F828E8312
:0E1091001204108D8275830012043D0D80D470
:01109F00222E
:10119C00900019E0900031F090001AE0900032F0CD
:1011AC0090001BE0900033F02290003DF0E49000A2
:0311BC003CF022E2
:1008A50053A87F1212F07D0AE4FF1211E112000332
:1008B5001212A543A880120B7C120DCE12124FE521
:1008C5009030E2FB900068E0B41F0543800180038F
:1008D5005380FE7F627E1112112D7F627E111211EF
:1008E5002D12061C7F057E0012112D7F057E00123C
:1008F500112D120CC07FB07E0412112D7FB07E0425
:1009050012112D120F9F7FF47E0112112D7FF47E9F
:100915000112112D120F091207D71205207F287E0B
:100925000012112D121179E59020E2FB1202CE7F03
:10093500A07E0F12112D7FA07E0F12112D120EB168
:100945007FC87E0012112D7FC87E0012112D120D59
:100955005312006E120AD21209737FFA7E00121129
:0E0965002D7FFA7E0012112D1211030208C41C
:100AD200121267EF7003020B7B121155900017EF91
:100AE200F090000CE064FA6003020B70900017E0D3
:100AF20064F5707A90000DE0B4FF05A3E0F460683D
:100B020090000DE0900019F0E4A3F090000EE0D305
:100B120094085005E090001AF090001B7496F09033
:100B2200000FE0D394965005E090001BF090001166
:100B3200E090001DF0900010E0B4010A9000B9743A
:100B420001F0A3742CF090001BE06011E0FE75F040
:100B520068A4FFE5F02E900097F0A3EFF012119C2D
:100B620090001DE0900035F090003D7401F07B0193
:0A0B72007A00790C7D0C1210642249
:10097300900019E0FF900031E0B5072490001AE0E1
:10098300FF900032E0B5071890001CE0FF900034A0
:10099300E0B5070C90001DE0FF900035E06F601696
:1009A30090003DE0701012119C90001CE090003408
:1009B300F074011211B590003DE06067900019E0FA
:1009C300B40126900097E0FEA3E0FFC39468EE9481
:1009D30001400E7C017D6812045F90001BEFF080E4
:1009E3000D90001B7401F08005E490001BF0900053
:1009F3003CE02418F582E43400F583E0FF1212E8AA
:100A030090003CE004F0E0C3940C401790001DE01C
:100A1300B4FF077402F0900035F0E490003DF090CD
:040A2300003CF02281
:100B7C00E490008AF0900019F0900031F090009A07
:100B8C00F0A37414F0E4900090F0A3F0A3F09000A4
:100B9C009CF0A3F0A3F090008DF090008C7404F006
:100BAC0090001AF0900032F090008B7402F09000DC
:100BBC001B7496F0900033F0E49000A4F090001CAD
:100BCC00F0900034F09000A1F090009F740AF0E4D3
:100BDC009000A2F0A3F09000B904F0A3742CF0E400
:100BEC009000A6F0A3F09000A5F09000B5F0A3F053
:100BFC00900052F053807F5390BF5380FD5380FE82
:100C0C00041211B590001874FAF090002374F5F0EA
:0A0C1C0090003074FAF074F5F02235
:10124F007F1EE49000C9F0E59030E2FBE59020E2CC
:07125F00FBEF60031F80F0AC
:011266002265
:03000000020C26C9
:100C260078FFE4F6D8FD9000007F007E09E4F0A38B
:0A0C3600DFFCDEFA758107020C7B7B
:100C40000208A5E493A3F8E493A34003F68001F21D
:100C500008DFF48029E493A3F85407240CC8C333B5
:100C6000C4540F4420C8834004F456800146F6DF84
:100C7000E4800B010204081020408090004EE47EC6
:100C8000019360BCA3FF543F30E509541FFEE49379
:100C9000A360010ECF54C025E060A840B8E493A340
:100CA000FAE493A3F8E493A3C8C582C8CAC583CA6B
:100CB000F0A3C8C582C8CAC583CADFE9DEE780BE23
:0100520000AD
:10041000BB010CE58229F582E5833AF583E02250A1
:1004200006E92582F8E622BBFE06E92582F8E222EB
:0D043000E58229F582E5833AF583E4932205
:10043D00F8BB010DE58229F582E5833AF583E8F0F5
:10044D00225006E92582C8F622BBFE05E92582C8A1
:02045D00F22289
:10045F00BC000BBE0029EF8DF084FFADF022E4CC81
:10046F00F875F008EF2FFFEE33FEEC33FCEE9DEC4A
:10047F00984005FCEE9DFE0FD5F0E9E4CEFD22ED90
:10048F00F8F5F0EE8420D21CFEADF075F008EF2FDA
:10049F00FFED33FD4007985006D5F0F222C398FDCB
:0504AF000FD5F0EA2268
:1004B400E88FF0A4CC8BF0A42CFCE98EF0A42CFCE7
:1004C4008AF0EDA42CFCEA8EF0A4CDA8F08BF0A465
:1004D4002DCC3825F0FDE98FF0A42CCD35F0FCEBC4
:1004E4008EF0A4FEA9F0EB8FF0A4CFC5F02ECD3989
:0F04F400FEE43CFCEAA42DCE35F0FDE43CFC22F6
:10050300EB9FF5F0EA9E42F0E99D42F0E89C45F04E
:0105130022C5
:0C051400ECF0A3EDF0A3EEF0A3EFF0225A
:00000001FF
