:100C1C00438002E4FF120E0A90003DEEF0A3EFF0C9
:100C2C00A3E07002A3E06026900040E024FFF09067
:100C3C00003FE034FFF0C390003EE0946690003D2E
:100C4C00E0940690005DE040094401F080079000BC
:090C5C005DE054FEF05380FD221E
:1006AA004380027F0F120E0A900039E0FD04F0ED3C
:1006BA0025E0242DF582E43400F583EEF0A3EFF073
:1006CA00900039E0C394054049E4F090002FE0FE21
:1006DA00A3E0FF90002EE02FFF90002DE03EFE9059
:1006EA000032E02FFF900031E03EFE900034E02F10
:1006FA00FF900033E03EFE900036E02FFF90003579
:10070A00E03EFE7C007D05120779900037EEF0A3EB
:10071A00EFF0900037E0FEA3E0FFC3945EEE940A88
:10072A00400CE490002CF090003A04F08025C3EFCE
:10073A00946EEE940640028009C3EF945EEE94062E
:10074A005011E490002CF090003AF0A37403F0A347
:10075A007484F090003BE07002A3E0600E90003CCD
:0F076A00E024FFF090003BE034FFF05380FD22CD
:100BCE004380027F0C120E0A900041EEF0A3EFF06C
:100BDE00D394AEEE9403501CA3E004F0E0C3940A49
:100BEE004017740AF090005CE04480F0900044746A
:100BFE000AF08005E4900043F0900044E060041495
:0E0C0E00F0800790005CE0547FF05380FD22E0
:070F140075C820E4F58A22F4
:100E2C00EDC3940F40027D0FEFB40106ED25E0F504
:0C0E3C00D822AF05EF25E04401F5D822D4
:100C650075A18BE4F5ACF591F5DEF580F5D375D27C
:100C750020F5B1F5ADF592F588F5D575D42A75B998
:100C8500C4F5AEF593F59075D60A75C107F5AFF5C0
:100C950098F5EE75C901F5A3F594F5A0F5EF75D1B5
:080CA5001FF595F5B0F5FF22E3
:100E0A00759D07EF4480F59C439C4000E59CF420C7
:100E1A00E4FAE59F540FFEAD9E7C00E42DFFEC3E04
:020E2A00FE22A6
:100DBF00AC06EC901012F0A3EFF09010107401F04D
:100DCF00A37464F0901010E04480F0901011E0F4E0
:080DDF0020E4F8E054EFF022DB
:0A0EF800EF1F70011E144E70F72268
:100B7000190715061F1D1B19171511080807070669
:100B800006031F091C20384070808CA0A8C0D2F03A
:100B90001518000000F0021C0348047405A006CCE0
:100BA00006CC06CC0005090D1115191D1F00020306
:100BB0000405060708090666070A070A0FFF019AD7
:0E0BC000042905C2075C08F50A8F0C280CCC2E
:100A1900EE25E02400F582E43400F583E0FCA3E050
:100A2900FDEF25E02400F582E43400F58322F0A3EC
:100A3900F0A3F0A3F022900047E025E02492F5828C
:100A4900E4340BF583E493FF740193900027CFF00E
:100A5900A3EFF022F582E43583F583E4939000292E
:100A6900F02290000BE0943390000AE09403229066
:100A79000029E0FFA3E0FEC39F22F583E493FA7403
:0E0A89000193FB22EEF0A3EFF07F0A7E002225
:1000030090004D743CF0A3F09000467405F0E4902A
:10001300005CF0A3F0900014F0900017120A3790E0
:10002300001C120A37A3120A37A3F0A3F0A3743CEF
:10003300F0120A3FE4A3F0A3F0900041120A3790B4
:10004300000AF0A3F0900011F090000EF0A3F0A3CB
:10005300F0900013F0900012F090000CF0A3F02247
:10006E0090002AE0641F600302025F900047E0FDEB
:10007E0090002CE0F975F009A424A4F582E4340B69
:10008E00F583E5822D120A5D900051E07002A3E027
:10009E0060067A017BEB801090003AE025E024B6F2
:1000AE00F582E4340B120A839000157401F090006F
:1000BE0017E0FCA3E0FDC39BEC9A4014ED94D6EC44
:1000CE00940F402D90005CE04410F0900020801EB4
:1000DE00E4900015F0D3900018E094F6900017E02D
:1000EE009400500D90005CE04408F090001F740ADC
:1000FE00F0900047E025E024BCF582E4340B120AB0
:10010E00839000167401F0C390001AE09B900019C2
:10011E00E09A4020E4900016F090001AE094D690F9
:10012E000019E0940F400D90005CE04440F0900008
:10013E0022740AF0900026E06003120A3F900047F6
:10014E00E07003020250900027E07002A3E0600905
:10015E00E9900B8293900029F0E9900B7093FF9039
:10016E000029E0C39F5003020216900024E094344D
:10017E00900023E0940840069000257401F0C3908F
:10018E000024E09460900023E0940940069000253E
:10019E007402F0C3900024E0948C900023E0940A43
:1001AE0040069000257403F0C3900024E094B890AC
:1001BE000023E0940B40069000257404F0C39000D9
:1001CE0024E094E4900023E0940C40069000257403
:1001DE0005F0C3900024E09410900023E0940E40AC
:1001EE00069000257406F0C3900024E094809000E1
:1001FE0023E09470402C9000257407F09000237437
:10020E0070F0A37480F0801AE4900023F0A3F0E95C
:10021E00900B7293FF900029E0D39F5005E490005D
:10022E0025F0900025E0FF602890002CE075F00787
:10023E00A42473F582E4340BF583E5822F120A5D54
:10024E00800FE4900027F0A3F0900023F0A3F0A31A
:10025E00F09000167401F0E4900021F0A3F09000ED
:10026E001FE0700790005CE054F7F0900020E07003
:10027E000790005CE054EFF0900021E070079000D2
:10028E005CE054DFF0900022E0700790005CE054D8
:10029E00BFF090002AE004F0E0D3941F4002E4F097
:1002AE00900045E064017024900015E06401701C1C
:1002BE00A3E0B4011790000CE0B40110900011E01F
:1002CE00700A90005CE070047F0180027F00900055
:0302DE0014EFF02A
:0102E10022FA
:100D9500E490000DF0120A785019900014E0B401A7
:100DA50018438080E4C39E501043980290000D7450
:0A0DB50001F02253807F5398FD22C5
:100DE700120A785017900014E06401701543808050
:100DF700EF14FFEEC39F50074398022253807F539F
:030E070098FD2231
:100986004380027F0E120E0A90000AEEF0A3EFF0EB
:10099600A37401F0A3E0B4011AE4A3F0A3F0D31208
:1009A6000A6B505E90005CE04402F0900013740AFB
:1009B600F0804FC3120A6B401E90000FE004F070E7
:1009C6000690000EE004F0E490000CF0900011E0B8
:1009D6007013743CF0800EE490000EF0A3F09000CB
:1009E6005CE054FEF0C390000FE0946890000EE0C7
:1009F6009410400E7410F0A37468F090005CE0440C
:100A060001F0900013E0700790005CE054FDF05395
:030A160080FD223E
:100CF000438002E4900069F07F0D120E0A900069B3
:100D0000E0120A2B120A8D120DBF63800290006957
:100D1000E004F0E0C3940540DF5380FD120CAD9079
:0E0D20000006E0FFA3E0900017CFF0A3EFF075
:010D2E0022A2
:100A9700438002E4900069F07F0B120E0A90006910
:100AA700E0120A2B120A8D120DBF638002900069B3
:100AB700E004F0E0C3940540DF900002E0FEA3E00D
:100AC700FF900001E02FFF900000E03EFE90000540
:100AD700E02FFF900004E03EFE900007E02FFF901C
:100AE7000006E03EFE900009E02FFF900008E03E80
:100AF700FE7C007D05120779900019EEF0A3EFF058
:030B07005380FD1B
:010B0A0022C8
:100CAD00E4FFAE07EEC394055032120A19E0FAA321
:100CBD00E0FBD39DEA9C402190006AEAF0A3EBF0A3
:100CCD00120A19ECF0A3EDF090006AE0FCA3E0FD30
:100CDD00EE120A2BECF0A3EDF00E80C80FEF6405B9
:020CED0070C0D5
:010CEF0022E2
:100D6900A3F07460901011F09010107481F022FEBD
:100D7900FDFCE0F8A3E0F9A3E0FAA3E0FB22900070
:0C0D890063E0FCA3E0FDA3E0FEA3E02279
:0A0F020075B42075B20C43B28122D1
:0C0EE000EFB4010443AA022253AAFD2231
:0C0EEC00EFB4010443AA012253AAFE2225
:100E6400AD07AC06ECF5C5AF058FC475C24075C3BC
:0B0E740081E5C2F420E4FA53C2EF2233
:100E4800AC06EC901012F0A3EFF07440120D6D9008
:0C0E58001011E0F420E4F8E054EFF02268
:100E7F00EF25E0FFEE33901012F0EF120D69901096
:0A0E8F0011E0F420E4F8E054EFF065
:010E99002236
:06083A0090005F12082E81
:10084000E47F0290005F120D781207CE90006312D1
:10085000082E120D87C3940AFFEE94000208D2E41A
:10086000FF900063120D78D312081D4077E47FFFDC
:100870007EFFFDFC900063E0F8A3A3A3E0D3120881
:100880001D40067EFF7FFF800A900063A3A3E0FE69
:10089000A3E0FF900067EEF0A3EFF0900067E0FCAC
:1008A000A3E0FDEC901012F0ED120D69901011E034
:1008B000F420E4F8E054EFF0120D87FFC006C00703
:1008C000A3E0FEA3E0FBAA06D007D006C3EF9BFF80
:1008D000EE9AFEED9400FDEC9400FC90006312088B
:0408E0002E02085F7D
:0108E40022F1
:03006B00020ECCB6
:100ECC00C0E0C083C082900053E06401F0D082D0B7
:040EDC0083D0E032AD
:0300630002006632
:02006600003266
:100D2F00900056E4F0A3743CF0900059227402F046
:100D3F00900048E0FFF422E4F0900048E022C2B3B4
:100D4F00C2A0C2B4C2B2C28322900056E4F0A37410
:0A0D5F003CF022D2B3D2A0D2B4229D
:10040F00208B61900049E004F0E0C3940C405E74CF
:10041F000C120D3E30E056EF4401F0900045E064C1
:10042F0001F0E4900056F0A3F0A3F0900045E060D7
:10043F003C120003900046E025E02484F582E4346A
:10044F000BF583E493FF74019390004FCFF0A3EF6C
:10045F00F0900B90E493FF740193900051CFF0A3B1
:10046F00EFF08009900049120D4654FEF090004ABB
:10047F00120D4654FDF020852B90004BE004F0E068
:10048F00C39402402B120D3C30E225EF4404F09050
:10049F000045E0B4011A900047E0C394085011E002
:1004AF0004F0800CE490004BF0900048E054FBF017
:1004BF0020842690004CE004F0E0C3940240261202
:1004CF000D3C30E320EF4408F0900045E0B40115F7
:1004DF00900047E0600F14F022E490004CF0900081
:0604EF0048E054F7F02282
:1004F50090004DE060030205B0743CF0900011E0FF
:10050500600214F0900013E0600214F090001FE008
:10051500600214F0900020E0600214F0900021E0E9
:10052500600214F0900022E0600214F0900044E0B4
:10053500600214F0900055E06003E014F09000268E
:10054500E0600214F0900027E07002A3E0600E90D6
:100555000028E024FFF0900027E034FFF09000240D
:10056500E004F07006900023E004F090004FE07086
:1005750002A3E0600E900050E024FFF090004FE0F1
:1005850034FFF0900051E07002A3E0600E9000523D
:10059500E024FFF0900051E034FFF090004EE07051
:1005A50005743CF0800B90004E800390004DE014E4
:1005B500F0900055E090004FE07002A3E0600690D7
:1005C5000045E0700FE490005CF0900045F090006D
:0505D5004FF0A3F0222D
:1002E200900058E0FFC3900057E09F900056E094C2
:1002F200004031900045E06401702FA3E0FF7004DC
:10030200D2928026EFB40104D296801EEFB402048A
:10031200D2978016EFB40304D298800EEFB4040A89
:10032200D29A8006900059740AF0900056E070024A
:10033200A3E060030203F190005DE06013120D5828
:1003420090005DE030E006900059740DF00203C3A6
:1003520090005CE0FF607730E009120D2F7401F02D
:100362000203C3EF30E109120D2F7402F00203C33E
:10037200EF30E208120D2F7403F08045EF30E308EE
:10038200120D2F7404F08039EF30E408120D2F742F
:1003920005F0802DEF30E508120D2F7406F0802154
:1003A200EF30E608120D2F7407F08015EF9000561B
:1003B20030E708120D327408F08006120D3274090B
:1003C200F0900056E0C313A3E013A3F0802F120DA8
:1003D20058900045E0B4010A900047E0900059F0BF
:1003E2008006900059740FF0E4900058F0800E904F
:1003F2000057E024FFF0900056E034FFF0120F0C9B
:0D040200900059E0FF1205DAE4FF020F1B25
:080F0C00120D4DC2B0C2B1226A
:1005DA00EFB4100040030206A99005EAF828287330
:1005EA0002061A02062002062402063102063A020E
:1005FA00063E02064802064E02065602065E02063B
:10060A006A02067902067E02068A020696020679BE
:10061A00120D6202069CC2B3802CD2B3D2A0C2B41D
:10062A00D2B2D2830206A5120D62D2B2C283806B05
:10063A00C2B38022D2B3C2A0D2B4D2B2801EC2B395
:10064A00C2A0800CD2B3D2A0D2B4801AD2B3D2A0A4
:10065A00D2B48026D2B3D2A0D2B4C2B2C283802787
:10066A00C2B3C2A0C2B4C2B2C283C2B0C2B1221261
:10067A000D4D8027D2B3C2A0C2B4D2B2D2838007B2
:10068A00120D62C2B2D283D2B0D2B122D2B3C2A008
:10069A00C2B4D2B2D283D2B0C2B122C2B0D2B122D3
:060F1B00900069EFF022D6
:1008E50053A87F120F147D0FE4FF120E2C120C6516
:1008F50043A880120B0B120003120EB4E59830E3E7
:10090500FB90002AE0B41F0543800180035380FE5D
:100915007F787E05120DBF7F787E05120DBF7FD0D3
:100925007E07120DBF1206AA1209867F847E031266
:100935000DBF120CF0120BCE1204F512040F7FF44A
:100945007E01120DBF120DE7E59820E3FB1202E2CE
:100955007FE87E03120DBF7FDC7E05120DBF120CF2
:100965001C7FE87E03120DBF120A9753903B5398E4
:10097500FA12006E7FE87E03120DBF120D95020973
:010985000170
:100B0B00E4900045F0900054F0A37414F0E49000CE
:100B1B0048F0A3F0A3F0900056F0A3F0A3F09000E0
:100B2B00477404F0E4900046F090005EF090005B98
:100B3B00F0900059740AF0E490005CF0A3F0900080
:100B4B003F04F0A3742CF0E490002CF090003AF0EA
:100B5B0090002BF0900014F05398FD53807F53803E
:050B6B00FD5380FE2295
:100EB4007F1EE4900069F0E59830E3FBE59820E3B9
:070EC400FBEF60031F80F04B
:010ECB002204
:03000000020E9A53
:100E9A0078FFE4F6D8FD9000007F007E09E4F0A315
:0A0EAA00DFFCDEFA7581070208E59F
:10077900BC000BBE0029EF8DF084FFADF022E4CC64
:10078900F875F008EF2FFFEE33FEEC33FCEE9DEC2D
:10079900984005FCEE9DFE0FD5F0E9E4CEFD22ED73
:1007A900F8F5F0EE8420D21CFEADF075F008EF2FBD
:1007B900FFED33FD4007985006D5F0F222C398FDAE
:0507C9000FD5F0EA224B
:1007CE00E88FF0A4CC8BF0A42CFCE98EF0A42CFCCA
:1007DE008AF0EDA42CFCEA8EF0A4CDA8F08BF0A448
:1007EE002DCC3825F0FDE98FF0A42CCD35F0FCEBA7
:1007FE008EF0A4FEA9F0EB8FF0A4CFC5F02ECD396C
:0F080E00FEE43CFCEAA42DCE35F0FDE43CFC22D8
:10081D00EB9FF5F0EA9E42F0E99D42F0E89C45F031
:01082D0022A8
:0C082E00ECF0A3EDF0A3EEF0A3EFF0223D
:00000001FF
